{
  "contractName": "ResumeContract",
  "abi": [
    {
      "inputs": [],
      "stateMutability": "nonpayable",
      "type": "constructor"
    },
    {
      "inputs": [
        {
          "internalType": "uint256",
          "name": "",
          "type": "uint256"
        }
      ],
      "name": "registeredArray",
      "outputs": [
        {
          "internalType": "address",
          "name": "",
          "type": "address"
        }
      ],
      "stateMutability": "view",
      "type": "function",
      "constant": true
    },
    {
      "inputs": [],
      "name": "resumeCount",
      "outputs": [
        {
          "internalType": "uint256",
          "name": "",
          "type": "uint256"
        }
      ],
      "stateMutability": "view",
      "type": "function",
      "constant": true
    },
    {
      "inputs": [],
      "name": "getUsers",
      "outputs": [
        {
          "internalType": "address[]",
          "name": "",
          "type": "address[]"
        }
      ],
      "stateMutability": "view",
      "type": "function",
      "constant": true
    },
    {
      "inputs": [
        {
          "components": [
            {
              "internalType": "bytes32",
              "name": "picUrl",
              "type": "bytes32"
            },
            {
              "internalType": "bytes32",
              "name": "name",
              "type": "bytes32"
            },
            {
              "internalType": "bytes32",
              "name": "phone",
              "type": "bytes32"
            },
            {
              "internalType": "bytes32",
              "name": "email",
              "type": "bytes32"
            },
            {
              "internalType": "bytes32",
              "name": "dateOfBirth",
              "type": "bytes32"
            },
            {
              "internalType": "bytes32",
              "name": "socialUrl",
              "type": "bytes32"
            },
            {
              "internalType": "bytes32",
              "name": "location",
              "type": "bytes32"
            }
          ],
          "internalType": "struct ResumeContract.PersonalInfo",
          "name": "inf",
          "type": "tuple"
        },
        {
          "components": [
            {
              "internalType": "bytes32",
              "name": "expStartDate",
              "type": "bytes32"
            },
            {
              "internalType": "bytes32",
              "name": "expEndDate",
              "type": "bytes32"
            },
            {
              "internalType": "bytes32",
              "name": "companyName",
              "type": "bytes32"
            },
            {
              "internalType": "bytes32",
              "name": "position",
              "type": "bytes32"
            },
            {
              "internalType": "bool",
              "name": "isNotEmpty",
              "type": "bool"
            }
          ],
          "internalType": "struct ResumeContract.Experience",
          "name": "exp",
          "type": "tuple"
        },
        {
          "components": [
            {
              "internalType": "bytes32",
              "name": "eduStartDate",
              "type": "bytes32"
            },
            {
              "internalType": "bytes32",
              "name": "eduEndDate",
              "type": "bytes32"
            },
            {
              "internalType": "bytes32",
              "name": "institute",
              "type": "bytes32"
            },
            {
              "internalType": "bytes32",
              "name": "degree",
              "type": "bytes32"
            },
            {
              "internalType": "bytes32",
              "name": "faculty",
              "type": "bytes32"
            },
            {
              "internalType": "bytes32",
              "name": "major",
              "type": "bytes32"
            },
            {
              "internalType": "bytes32",
              "name": "gpa",
              "type": "bytes32"
            },
            {
              "internalType": "bool",
              "name": "isNotEmpty",
              "type": "bool"
            }
          ],
          "internalType": "struct ResumeContract.Education",
          "name": "edu",
          "type": "tuple"
        },
        {
          "components": [
            {
              "internalType": "bytes32",
              "name": "skillName",
              "type": "bytes32"
            },
            {
              "internalType": "bytes32",
              "name": "level",
              "type": "bytes32"
            },
            {
              "internalType": "bytes32",
              "name": "date",
              "type": "bytes32"
            },
            {
              "internalType": "bytes32",
              "name": "resumeTitle",
              "type": "bytes32"
            },
            {
              "internalType": "bytes32",
              "name": "summary",
              "type": "bytes32"
            },
            {
              "internalType": "bytes32",
              "name": "motive",
              "type": "bytes32"
            },
            {
              "internalType": "bool",
              "name": "isNotEmpty",
              "type": "bool"
            }
          ],
          "internalType": "struct ResumeContract.Skill",
          "name": "ski",
          "type": "tuple"
        }
      ],
      "name": "add",
      "outputs": [
        {
          "internalType": "bool",
          "name": "",
          "type": "bool"
        }
      ],
      "stateMutability": "nonpayable",
      "type": "function"
    },
    {
      "inputs": [
        {
          "internalType": "bytes32",
          "name": "picUrl",
          "type": "bytes32"
        },
        {
          "internalType": "bytes32",
          "name": "name",
          "type": "bytes32"
        },
        {
          "internalType": "bytes32",
          "name": "phone",
          "type": "bytes32"
        },
        {
          "internalType": "bytes32",
          "name": "email",
          "type": "bytes32"
        },
        {
          "internalType": "bytes32",
          "name": "dateOfBirth",
          "type": "bytes32"
        },
        {
          "internalType": "bytes32",
          "name": "socialUrl",
          "type": "bytes32"
        },
        {
          "internalType": "bytes32",
          "name": "location",
          "type": "bytes32"
        },
        {
          "internalType": "uint256",
          "name": "index",
          "type": "uint256"
        }
      ],
      "name": "updatePersonalInfo",
      "outputs": [
        {
          "internalType": "bool",
          "name": "",
          "type": "bool"
        }
      ],
      "stateMutability": "nonpayable",
      "type": "function"
    },
    {
      "inputs": [
        {
          "internalType": "bytes32",
          "name": "startDate",
          "type": "bytes32"
        },
        {
          "internalType": "bytes32",
          "name": "endDate",
          "type": "bytes32"
        },
        {
          "internalType": "bytes32",
          "name": "institute",
          "type": "bytes32"
        },
        {
          "internalType": "bytes32",
          "name": "degree",
          "type": "bytes32"
        },
        {
          "internalType": "bytes32",
          "name": "faculty",
          "type": "bytes32"
        },
        {
          "internalType": "bytes32",
          "name": "major",
          "type": "bytes32"
        },
        {
          "internalType": "bytes32",
          "name": "gpa",
          "type": "bytes32"
        },
        {
          "internalType": "uint256",
          "name": "index",
          "type": "uint256"
        }
      ],
      "name": "updateEducation",
      "outputs": [
        {
          "internalType": "bool",
          "name": "",
          "type": "bool"
        }
      ],
      "stateMutability": "nonpayable",
      "type": "function"
    },
    {
      "inputs": [
        {
          "internalType": "bytes32",
          "name": "startDate",
          "type": "bytes32"
        },
        {
          "internalType": "bytes32",
          "name": "endDate",
          "type": "bytes32"
        },
        {
          "internalType": "bytes32",
          "name": "companyName",
          "type": "bytes32"
        },
        {
          "internalType": "bytes32",
          "name": "position",
          "type": "bytes32"
        },
        {
          "internalType": "uint256",
          "name": "index",
          "type": "uint256"
        }
      ],
      "name": "updateExperience",
      "outputs": [
        {
          "internalType": "bool",
          "name": "",
          "type": "bool"
        }
      ],
      "stateMutability": "nonpayable",
      "type": "function"
    },
    {
      "inputs": [
        {
          "internalType": "bytes32",
          "name": "skill",
          "type": "bytes32"
        },
        {
          "internalType": "bytes32",
          "name": "level",
          "type": "bytes32"
        },
        {
          "internalType": "bytes32",
          "name": "date",
          "type": "bytes32"
        },
        {
          "internalType": "uint256",
          "name": "index",
          "type": "uint256"
        },
        {
          "internalType": "bytes32",
          "name": "resumeTitle",
          "type": "bytes32"
        },
        {
          "internalType": "bytes32",
          "name": "summary",
          "type": "bytes32"
        },
        {
          "internalType": "bytes32",
          "name": "motive",
          "type": "bytes32"
        }
      ],
      "name": "updateSkill",
      "outputs": [
        {
          "internalType": "bool",
          "name": "",
          "type": "bool"
        }
      ],
      "stateMutability": "nonpayable",
      "type": "function"
    },
    {
      "inputs": [],
      "name": "getPersonalInfo",
      "outputs": [
        {
          "components": [
            {
              "internalType": "bytes32",
              "name": "picUrl",
              "type": "bytes32"
            },
            {
              "internalType": "bytes32",
              "name": "name",
              "type": "bytes32"
            },
            {
              "internalType": "bytes32",
              "name": "phone",
              "type": "bytes32"
            },
            {
              "internalType": "bytes32",
              "name": "email",
              "type": "bytes32"
            },
            {
              "internalType": "bytes32",
              "name": "dateOfBirth",
              "type": "bytes32"
            },
            {
              "internalType": "bytes32",
              "name": "socialUrl",
              "type": "bytes32"
            },
            {
              "internalType": "bytes32",
              "name": "location",
              "type": "bytes32"
            }
          ],
          "internalType": "struct ResumeContract.PersonalInfo[]",
          "name": "",
          "type": "tuple[]"
        }
      ],
      "stateMutability": "view",
      "type": "function",
      "constant": true
    },
    {
      "inputs": [],
      "name": "getEducation",
      "outputs": [
        {
          "components": [
            {
              "internalType": "bytes32",
              "name": "eduStartDate",
              "type": "bytes32"
            },
            {
              "internalType": "bytes32",
              "name": "eduEndDate",
              "type": "bytes32"
            },
            {
              "internalType": "bytes32",
              "name": "institute",
              "type": "bytes32"
            },
            {
              "internalType": "bytes32",
              "name": "degree",
              "type": "bytes32"
            },
            {
              "internalType": "bytes32",
              "name": "faculty",
              "type": "bytes32"
            },
            {
              "internalType": "bytes32",
              "name": "major",
              "type": "bytes32"
            },
            {
              "internalType": "bytes32",
              "name": "gpa",
              "type": "bytes32"
            },
            {
              "internalType": "bool",
              "name": "isNotEmpty",
              "type": "bool"
            }
          ],
          "internalType": "struct ResumeContract.Education[]",
          "name": "",
          "type": "tuple[]"
        }
      ],
      "stateMutability": "view",
      "type": "function",
      "constant": true
    },
    {
      "inputs": [],
      "name": "getExperience",
      "outputs": [
        {
          "components": [
            {
              "internalType": "bytes32",
              "name": "expStartDate",
              "type": "bytes32"
            },
            {
              "internalType": "bytes32",
              "name": "expEndDate",
              "type": "bytes32"
            },
            {
              "internalType": "bytes32",
              "name": "companyName",
              "type": "bytes32"
            },
            {
              "internalType": "bytes32",
              "name": "position",
              "type": "bytes32"
            },
            {
              "internalType": "bool",
              "name": "isNotEmpty",
              "type": "bool"
            }
          ],
          "internalType": "struct ResumeContract.Experience[]",
          "name": "",
          "type": "tuple[]"
        }
      ],
      "stateMutability": "view",
      "type": "function",
      "constant": true
    },
    {
      "inputs": [],
      "name": "getSkill",
      "outputs": [
        {
          "components": [
            {
              "internalType": "bytes32",
              "name": "skillName",
              "type": "bytes32"
            },
            {
              "internalType": "bytes32",
              "name": "level",
              "type": "bytes32"
            },
            {
              "internalType": "bytes32",
              "name": "date",
              "type": "bytes32"
            },
            {
              "internalType": "bytes32",
              "name": "resumeTitle",
              "type": "bytes32"
            },
            {
              "internalType": "bytes32",
              "name": "summary",
              "type": "bytes32"
            },
            {
              "internalType": "bytes32",
              "name": "motive",
              "type": "bytes32"
            },
            {
              "internalType": "bool",
              "name": "isNotEmpty",
              "type": "bool"
            }
          ],
          "internalType": "struct ResumeContract.Skill[]",
          "name": "",
          "type": "tuple[]"
        }
      ],
      "stateMutability": "view",
      "type": "function",
      "constant": true
    },
    {
      "inputs": [],
      "name": "getAllPersonalInfo",
      "outputs": [
        {
          "components": [
            {
              "internalType": "bytes32",
              "name": "picUrl",
              "type": "bytes32"
            },
            {
              "internalType": "bytes32",
              "name": "name",
              "type": "bytes32"
            },
            {
              "internalType": "bytes32",
              "name": "phone",
              "type": "bytes32"
            },
            {
              "internalType": "bytes32",
              "name": "email",
              "type": "bytes32"
            },
            {
              "internalType": "bytes32",
              "name": "dateOfBirth",
              "type": "bytes32"
            },
            {
              "internalType": "bytes32",
              "name": "socialUrl",
              "type": "bytes32"
            },
            {
              "internalType": "bytes32",
              "name": "location",
              "type": "bytes32"
            }
          ],
          "internalType": "struct ResumeContract.PersonalInfo[][]",
          "name": "",
          "type": "tuple[][]"
        }
      ],
      "stateMutability": "view",
      "type": "function",
      "constant": true
    },
    {
      "inputs": [],
      "name": "getAllEducation",
      "outputs": [
        {
          "components": [
            {
              "internalType": "bytes32",
              "name": "eduStartDate",
              "type": "bytes32"
            },
            {
              "internalType": "bytes32",
              "name": "eduEndDate",
              "type": "bytes32"
            },
            {
              "internalType": "bytes32",
              "name": "institute",
              "type": "bytes32"
            },
            {
              "internalType": "bytes32",
              "name": "degree",
              "type": "bytes32"
            },
            {
              "internalType": "bytes32",
              "name": "faculty",
              "type": "bytes32"
            },
            {
              "internalType": "bytes32",
              "name": "major",
              "type": "bytes32"
            },
            {
              "internalType": "bytes32",
              "name": "gpa",
              "type": "bytes32"
            },
            {
              "internalType": "bool",
              "name": "isNotEmpty",
              "type": "bool"
            }
          ],
          "internalType": "struct ResumeContract.Education[][]",
          "name": "",
          "type": "tuple[][]"
        }
      ],
      "stateMutability": "view",
      "type": "function",
      "constant": true
    },
    {
      "inputs": [],
      "name": "getAllExperience",
      "outputs": [
        {
          "components": [
            {
              "internalType": "bytes32",
              "name": "expStartDate",
              "type": "bytes32"
            },
            {
              "internalType": "bytes32",
              "name": "expEndDate",
              "type": "bytes32"
            },
            {
              "internalType": "bytes32",
              "name": "companyName",
              "type": "bytes32"
            },
            {
              "internalType": "bytes32",
              "name": "position",
              "type": "bytes32"
            },
            {
              "internalType": "bool",
              "name": "isNotEmpty",
              "type": "bool"
            }
          ],
          "internalType": "struct ResumeContract.Experience[][]",
          "name": "",
          "type": "tuple[][]"
        }
      ],
      "stateMutability": "view",
      "type": "function",
      "constant": true
    },
    {
      "inputs": [],
      "name": "getAllSkill",
      "outputs": [
        {
          "components": [
            {
              "internalType": "bytes32",
              "name": "skillName",
              "type": "bytes32"
            },
            {
              "internalType": "bytes32",
              "name": "level",
              "type": "bytes32"
            },
            {
              "internalType": "bytes32",
              "name": "date",
              "type": "bytes32"
            },
            {
              "internalType": "bytes32",
              "name": "resumeTitle",
              "type": "bytes32"
            },
            {
              "internalType": "bytes32",
              "name": "summary",
              "type": "bytes32"
            },
            {
              "internalType": "bytes32",
              "name": "motive",
              "type": "bytes32"
            },
            {
              "internalType": "bool",
              "name": "isNotEmpty",
              "type": "bool"
            }
          ],
          "internalType": "struct ResumeContract.Skill[][]",
          "name": "",
          "type": "tuple[][]"
        }
      ],
      "stateMutability": "view",
      "type": "function",
      "constant": true
    },
    {
      "inputs": [
        {
          "internalType": "uint256",
          "name": "index",
          "type": "uint256"
        }
      ],
      "name": "remove",
      "outputs": [
        {
          "internalType": "bool",
          "name": "",
          "type": "bool"
        }
      ],
      "stateMutability": "nonpayable",
      "type": "function"
    }
  ],
  "bytecode": "0x6080604052600060045534801561001557600080fd5b50336000806101000a81548173ffffffffffffffffffffffffffffffffffffffff021916908373ffffffffffffffffffffffffffffffffffffffff160217905550613486806100656000396000f3fe608060405234801561001057600080fd5b506004361061010a5760003560e01c806381f539ff116100a2578063d31025d211610071578063d31025d2146102bf578063d40afcb1146102ef578063d4e4fffd1461031f578063f31786851461033d578063f40cf84d1461036d5761010a565b806381f539ff14610235578063a6a5245c14610253578063b08026ea14610283578063cdb986cc146102a15761010a565b80631c41e2db116100de5780631c41e2db146101ab57806330b759dd146101c957806347865a08146101e75780634cc82215146102055761010a565b8062ce8e3e1461010f578063162c97cd1461012d578063189e659e1461015d5780631914cb0d1461017b575b600080fd5b61011761038b565b6040516101249190612110565b60405180910390f35b610147600480360381019061014291906121ad565b610419565b604051610154919061227e565b60405180910390f35b610165610590565b60405161017291906123f4565b60405180910390f35b61019560048036038101906101909190612791565b610686565b6040516101a2919061227e565b60405180910390f35b6101b3610b15565b6040516101c0919061294d565b60405180910390f35b6101d1610c16565b6040516101de919061297e565b60405180910390f35b6101ef610c1c565b6040516101fc9190612b98565b60405180910390f35b61021f600480360381019061021a9190612bba565b610d84565b60405161022c919061227e565b60405180910390f35b61023d6115c3565b60405161024a9190612c56565b60405180910390f35b61026d60048036038101906102689190612c78565b6116a8565b60405161027a919061227e565b60405180910390f35b61028b61180d565b6040516102989190612e4b565b60405180910390f35b6102a9611986565b6040516102b69190612f84565b60405180910390f35b6102d960048036038101906102d49190612fa6565b611a68565b6040516102e6919061227e565b60405180910390f35b61030960048036038101906103049190612bba565b611bab565b6040516103169190613030565b60405180910390f35b610327611bea565b604051610334919061317c565b60405180910390f35b610357600480360381019061035291906121ad565b611d6e565b604051610364919061227e565b60405180910390f35b610375611ebb565b60405161038291906132cf565b60405180910390f35b6060600380548060200260200160405190810160405280929190818152602001828054801561040f57602002820191906000526020600020905b8160009054906101000a900473ffffffffffffffffffffffffffffffffffffffff1673ffffffffffffffffffffffffffffffffffffffff16815260200190600101908083116103c5575b5050505050905090565b600081600160003373ffffffffffffffffffffffffffffffffffffffff1673ffffffffffffffffffffffffffffffffffffffff16815260200190815260200160002060020180549050111561057f5760006040518061010001604052808b81526020018a815260200189815260200188815260200187815260200186815260200185815260200160011515815250905080600160003373ffffffffffffffffffffffffffffffffffffffff1673ffffffffffffffffffffffffffffffffffffffff16815260200190815260200160002060020184815481106104fe576104fd6132f1565b5b9060005260206000209060080201600082015181600001556020820151816001015560408201518160020155606082015181600301556080820151816004015560a0820151816005015560c0820151816006015560e08201518160070160006101000a81548160ff0219169083151502179055509050506001915050610584565b600090505b98975050505050505050565b6060600160003373ffffffffffffffffffffffffffffffffffffffff1673ffffffffffffffffffffffffffffffffffffffff168152602001908152602001600020600301805480602002602001604051908101604052809291908181526020016000905b8282101561067d57838290600052602060002090600702016040518060e00160405290816000820154815260200160018201548152602001600282015481526020016003820154815260200160048201548152602001600582015481526020016006820160009054906101000a900460ff161515151581525050815260200190600101906105f4565b50505050905090565b600080859050600085905060008590506000859050600160003373ffffffffffffffffffffffffffffffffffffffff1673ffffffffffffffffffffffffffffffffffffffff168152602001908152602001600020600001849080600181540180825580915050600190039060005260206000209060070201600090919091909150600082015181600001556020820151816001015560408201518160020155606082015181600301556080820151816004015560a0820151816005015560c082015181600601555050600160003373ffffffffffffffffffffffffffffffffffffffff1673ffffffffffffffffffffffffffffffffffffffff1681526020019081526020016000206001018390806001815401808255809150506001900390600052602060002090600502016000909190919091506000820151816000015560208201518160010155604082015181600201556060820151816003015560808201518160040160006101000a81548160ff0219169083151502179055505050600160003373ffffffffffffffffffffffffffffffffffffffff1673ffffffffffffffffffffffffffffffffffffffff168152602001908152602001600020600201829080600181540180825580915050600190039060005260206000209060080201600090919091909150600082015181600001556020820151816001015560408201518160020155606082015181600301556080820151816004015560a0820151816005015560c0820151816006015560e08201518160070160006101000a81548160ff0219169083151502179055505050600160003373ffffffffffffffffffffffffffffffffffffffff1673ffffffffffffffffffffffffffffffffffffffff168152602001908152602001600020600301819080600181540180825580915050600190039060005260206000209060070201600090919091909150600082015181600001556020820151816001015560408201518160020155606082015181600301556080820151816004015560a0820151816005015560c08201518160060160006101000a81548160ff021916908315150217905550505060018060003373ffffffffffffffffffffffffffffffffffffffff1673ffffffffffffffffffffffffffffffffffffffff16815260200190815260200160002060040160006101000a81548160ff0219169083151502179055506001600260003373ffffffffffffffffffffffffffffffffffffffff1673ffffffffffffffffffffffffffffffffffffffff1681526020019081526020016000205414610aed576001600260003373ffffffffffffffffffffffffffffffffffffffff1673ffffffffffffffffffffffffffffffffffffffff168152602001908152602001600020819055506003339080600181540180825580915050600190039060005260206000200160009091909190916101000a81548173ffffffffffffffffffffffffffffffffffffffff021916908373ffffffffffffffffffffffffffffffffffffffff1602179055505b60046000815480929190610b009061334f565b91905055506001945050505050949350505050565b6060600160003373ffffffffffffffffffffffffffffffffffffffff1673ffffffffffffffffffffffffffffffffffffffff168152602001908152602001600020600201805480602002602001604051908101604052809291908181526020016000905b82821015610c0d578382906000526020600020906008020160405180610100016040529081600082015481526020016001820154815260200160028201548152602001600382015481526020016004820154815260200160058201548152602001600682015481526020016007820160009054906101000a900460ff16151515158152505081526020019060010190610b79565b50505050905090565b60045481565b60608060005b600380549050811015610d7c576001600060038381548110610c4757610c466132f1565b5b9060005260206000200160009054906101000a900473ffffffffffffffffffffffffffffffffffffffff1673ffffffffffffffffffffffffffffffffffffffff1673ffffffffffffffffffffffffffffffffffffffff168152602001908152602001600020600001805480602002602001604051908101604052809291908181526020016000905b82821015610d4757838290600052602060002090600702016040518060e001604052908160008201548152602001600182015481526020016002820154815260200160038201548152602001600482015481526020016005820154815260200160068201548152505081526020019060010190610ccf565b50505050828281518110610d5e57610d5d6132f1565b5b60200260200101819052508080610d749061334f565b915050610c22565b508091505090565b600081600160003373ffffffffffffffffffffffffffffffffffffffff1673ffffffffffffffffffffffffffffffffffffffff1681526020019081526020016000206000018054905011156115b95760008290505b60018060003373ffffffffffffffffffffffffffffffffffffffff1673ffffffffffffffffffffffffffffffffffffffff16815260200190815260200160002060000180549050610e2a9190613397565b81101561130757600160003373ffffffffffffffffffffffffffffffffffffffff1673ffffffffffffffffffffffffffffffffffffffff168152602001908152602001600020600001600182610e8091906133cb565b81548110610e9157610e906132f1565b5b9060005260206000209060070201600160003373ffffffffffffffffffffffffffffffffffffffff1673ffffffffffffffffffffffffffffffffffffffff1681526020019081526020016000206000018281548110610ef357610ef26132f1565b5b906000526020600020906007020160008201548160000155600182015481600101556002820154816002015560038201548160030155600482015481600401556005820154816005015560068201548160060155905050600160003373ffffffffffffffffffffffffffffffffffffffff1673ffffffffffffffffffffffffffffffffffffffff168152602001908152602001600020600201600182610f9991906133cb565b81548110610faa57610fa96132f1565b5b9060005260206000209060080201600160003373ffffffffffffffffffffffffffffffffffffffff1673ffffffffffffffffffffffffffffffffffffffff168152602001908152602001600020600201828154811061100c5761100b6132f1565b5b9060005260206000209060080201600082015481600001556001820154816001015560028201548160020155600382015481600301556004820154816004015560058201548160050155600682015481600601556007820160009054906101000a900460ff168160070160006101000a81548160ff021916908315150217905550905050600160003373ffffffffffffffffffffffffffffffffffffffff1673ffffffffffffffffffffffffffffffffffffffff1681526020019081526020016000206001016001826110df91906133cb565b815481106110f0576110ef6132f1565b5b9060005260206000209060050201600160003373ffffffffffffffffffffffffffffffffffffffff1673ffffffffffffffffffffffffffffffffffffffff1681526020019081526020016000206001018281548110611152576111516132f1565b5b9060005260206000209060050201600082015481600001556001820154816001015560028201548160020155600382015481600301556004820160009054906101000a900460ff168160040160006101000a81548160ff021916908315150217905550905050600160003373ffffffffffffffffffffffffffffffffffffffff1673ffffffffffffffffffffffffffffffffffffffff16815260200190815260200160002060030160018261120791906133cb565b81548110611218576112176132f1565b5b9060005260206000209060070201600160003373ffffffffffffffffffffffffffffffffffffffff1673ffffffffffffffffffffffffffffffffffffffff168152602001908152602001600020600301828154811061127a576112796132f1565b5b90600052602060002090600702016000820154816000015560018201548160010155600282015481600201556003820154816003015560048201548160040155600582015481600501556006820160009054906101000a900460ff168160060160006101000a81548160ff02191690831515021790555090505080806112ff9061334f565b915050610dd9565b50600160003373ffffffffffffffffffffffffffffffffffffffff1673ffffffffffffffffffffffffffffffffffffffff16815260200190815260200160002060000180548061135a57611359613421565b5b600190038181906000526020600020906007020160008082016000905560018201600090556002820160009055600382016000905560048201600090556005820160009055600682016000905550509055600160003373ffffffffffffffffffffffffffffffffffffffff1673ffffffffffffffffffffffffffffffffffffffff1681526020019081526020016000206002018054806113fd576113fc613421565b5b60019003818190600052602060002090600802016000808201600090556001820160009055600282016000905560038201600090556004820160009055600582016000905560068201600090556007820160006101000a81549060ff021916905550509055600160003373ffffffffffffffffffffffffffffffffffffffff1673ffffffffffffffffffffffffffffffffffffffff1681526020019081526020016000206001018054806114b4576114b3613421565b5b60019003818190600052602060002090600502016000808201600090556001820160009055600282016000905560038201600090556004820160006101000a81549060ff021916905550509055600160003373ffffffffffffffffffffffffffffffffffffffff1673ffffffffffffffffffffffffffffffffffffffff16815260200190815260200160002060030180548061155357611552613421565b5b6001900381819060005260206000209060070201600080820160009055600182016000905560028201600090556003820160009055600482016000905560058201600090556006820160006101000a81549060ff021916905550509055600190506115be565b600090505b919050565b6060600160003373ffffffffffffffffffffffffffffffffffffffff1673ffffffffffffffffffffffffffffffffffffffff168152602001908152602001600020600001805480602002602001604051908101604052809291908181526020016000905b8282101561169f57838290600052602060002090600702016040518060e001604052908160008201548152602001600182015481526020016002820154815260200160038201548152602001600482015481526020016005820154815260200160068201548152505081526020019060010190611627565b50505050905090565b600084600160003373ffffffffffffffffffffffffffffffffffffffff1673ffffffffffffffffffffffffffffffffffffffff1681526020019081526020016000206003018054905011156117fd5760006040518060e001604052808a815260200189815260200188815260200186815260200185815260200184815260200160011515815250905080600160003373ffffffffffffffffffffffffffffffffffffffff1673ffffffffffffffffffffffffffffffffffffffff1681526020019081526020016000206003018781548110611786576117856132f1565b5b9060005260206000209060070201600082015181600001556020820151816001015560408201518160020155606082015181600301556080820151816004015560a0820151816005015560c08201518160060160006101000a81548160ff0219169083151502179055509050506001915050611802565b600090505b979650505050505050565b60608060005b60038054905081101561197e576001600060038381548110611838576118376132f1565b5b9060005260206000200160009054906101000a900473ffffffffffffffffffffffffffffffffffffffff1673ffffffffffffffffffffffffffffffffffffffff1673ffffffffffffffffffffffffffffffffffffffff168152602001908152602001600020600301805480602002602001604051908101604052809291908181526020016000905b8282101561194957838290600052602060002090600702016040518060e00160405290816000820154815260200160018201548152602001600282015481526020016003820154815260200160048201548152602001600582015481526020016006820160009054906101000a900460ff161515151581525050815260200190600101906118c0565b505050508282815181106119605761195f6132f1565b5b602002602001018190525080806119769061334f565b915050611813565b508091505090565b6060600160003373ffffffffffffffffffffffffffffffffffffffff1673ffffffffffffffffffffffffffffffffffffffff168152602001908152602001600020600101805480602002602001604051908101604052809291908181526020016000905b82821015611a5f57838290600052602060002090600502016040518060a0016040529081600082015481526020016001820154815260200160028201548152602001600382015481526020016004820160009054906101000a900460ff161515151581525050815260200190600101906119ea565b50505050905090565b600081600160003373ffffffffffffffffffffffffffffffffffffffff1673ffffffffffffffffffffffffffffffffffffffff168152602001908152602001600020600101805490501115611b9d5760006040518060a0016040528088815260200187815260200186815260200185815260200160011515815250905080600160003373ffffffffffffffffffffffffffffffffffffffff1673ffffffffffffffffffffffffffffffffffffffff1681526020019081526020016000206001018481548110611b3a57611b396132f1565b5b90600052602060002090600502016000820151816000015560208201518160010155604082015181600201556060820151816003015560808201518160040160006101000a81548160ff0219169083151502179055509050506001915050611ba2565b600090505b95945050505050565b60038181548110611bbb57600080fd5b906000526020600020016000915054906101000a900473ffffffffffffffffffffffffffffffffffffffff1681565b60608060005b600380549050811015611d66576001600060038381548110611c1557611c146132f1565b5b9060005260206000200160009054906101000a900473ffffffffffffffffffffffffffffffffffffffff1673ffffffffffffffffffffffffffffffffffffffff1673ffffffffffffffffffffffffffffffffffffffff168152602001908152602001600020600201805480602002602001604051908101604052809291908181526020016000905b82821015611d31578382906000526020600020906008020160405180610100016040529081600082015481526020016001820154815260200160028201548152602001600382015481526020016004820154815260200160058201548152602001600682015481526020016007820160009054906101000a900460ff16151515158152505081526020019060010190611c9d565b50505050828281518110611d4857611d476132f1565b5b60200260200101819052508080611d5e9061334f565b915050611bf0565b508091505090565b600081600160003373ffffffffffffffffffffffffffffffffffffffff1673ffffffffffffffffffffffffffffffffffffffff168152602001908152602001600020600001805490501115611eaa5760006040518060e001604052808b81526020018a815260200189815260200188815260200187815260200186815260200185815250905080600160003373ffffffffffffffffffffffffffffffffffffffff1673ffffffffffffffffffffffffffffffffffffffff1681526020019081526020016000206000018481548110611e4957611e486132f1565b5b9060005260206000209060070201600082015181600001556020820151816001015560408201518160020155606082015181600301556080820151816004015560a0820151816005015560c082015181600601559050506001915050611eaf565b600090505b98975050505050505050565b60608060005b600380549050811015612018576001600060038381548110611ee657611ee56132f1565b5b9060005260206000200160009054906101000a900473ffffffffffffffffffffffffffffffffffffffff1673ffffffffffffffffffffffffffffffffffffffff1673ffffffffffffffffffffffffffffffffffffffff168152602001908152602001600020600101805480602002602001604051908101604052809291908181526020016000905b82821015611fe357838290600052602060002090600502016040518060a0016040529081600082015481526020016001820154815260200160028201548152602001600382015481526020016004820160009054906101000a900460ff16151515158152505081526020019060010190611f6e565b50505050828281518110611ffa57611ff96132f1565b5b602002602001018190525080806120109061334f565b915050611ec1565b508091505090565b600081519050919050565b600082825260208201905092915050565b6000819050602082019050919050565b600073ffffffffffffffffffffffffffffffffffffffff82169050919050565b60006120778261204c565b9050919050565b6120878161206c565b82525050565b6000612099838361207e565b60208301905092915050565b6000602082019050919050565b60006120bd82612020565b6120c7818561202b565b93506120d28361203c565b8060005b838110156121035781516120ea888261208d565b97506120f5836120a5565b9250506001810190506120d6565b5085935050505092915050565b6000602082019050818103600083015261212a81846120b2565b905092915050565b6000604051905090565b600080fd5b6000819050919050565b61215481612141565b811461215f57600080fd5b50565b6000813590506121718161214b565b92915050565b6000819050919050565b61218a81612177565b811461219557600080fd5b50565b6000813590506121a781612181565b92915050565b600080600080600080600080610100898b0312156121ce576121cd61213c565b5b60006121dc8b828c01612162565b98505060206121ed8b828c01612162565b97505060406121fe8b828c01612162565b965050606061220f8b828c01612162565b95505060806122208b828c01612162565b94505060a06122318b828c01612162565b93505060c06122428b828c01612162565b92505060e06122538b828c01612198565b9150509295985092959890939650565b60008115159050919050565b61227881612263565b82525050565b6000602082019050612293600083018461226f565b92915050565b600081519050919050565b600082825260208201905092915050565b6000819050602082019050919050565b6122ce81612141565b82525050565b6122dd81612263565b82525050565b60e0820160008201516122f960008501826122c5565b50602082015161230c60208501826122c5565b50604082015161231f60408501826122c5565b50606082015161233260608501826122c5565b50608082015161234560808501826122c5565b5060a082015161235860a08501826122c5565b5060c082015161236b60c08501826122d4565b50505050565b600061237d83836122e3565b60e08301905092915050565b6000602082019050919050565b60006123a182612299565b6123ab81856122a4565b93506123b6836122b5565b8060005b838110156123e75781516123ce8882612371565b97506123d983612389565b9250506001810190506123ba565b5085935050505092915050565b6000602082019050818103600083015261240e8184612396565b905092915050565b600080fd5b6000601f19601f8301169050919050565b7f4e487b7100000000000000000000000000000000000000000000000000000000600052604160045260246000fd5b6124648261241b565b810181811067ffffffffffffffff821117156124835761248261242c565b5b80604052505050565b6000612496612132565b90506124a2828261245b565b919050565b600060e082840312156124bd576124bc612416565b5b6124c760e061248c565b905060006124d784828501612162565b60008301525060206124eb84828501612162565b60208301525060406124ff84828501612162565b604083015250606061251384828501612162565b606083015250608061252784828501612162565b60808301525060a061253b84828501612162565b60a08301525060c061254f84828501612162565b60c08301525092915050565b61256481612263565b811461256f57600080fd5b50565b6000813590506125818161255b565b92915050565b600060a0828403121561259d5761259c612416565b5b6125a760a061248c565b905060006125b784828501612162565b60008301525060206125cb84828501612162565b60208301525060406125df84828501612162565b60408301525060606125f384828501612162565b606083015250608061260784828501612572565b60808301525092915050565b6000610100828403121561262a57612629612416565b5b61263561010061248c565b9050600061264584828501612162565b600083015250602061265984828501612162565b602083015250604061266d84828501612162565b604083015250606061268184828501612162565b606083015250608061269584828501612162565b60808301525060a06126a984828501612162565b60a08301525060c06126bd84828501612162565b60c08301525060e06126d184828501612572565b60e08301525092915050565b600060e082840312156126f3576126f2612416565b5b6126fd60e061248c565b9050600061270d84828501612162565b600083015250602061272184828501612162565b602083015250604061273584828501612162565b604083015250606061274984828501612162565b606083015250608061275d84828501612162565b60808301525060a061277184828501612162565b60a08301525060c061278584828501612572565b60c08301525092915050565b60008060008061036085870312156127ac576127ab61213c565b5b60006127ba878288016124a7565b94505060e06127cb87828801612587565b9350506101806127dd87828801612613565b9250506102806127ef878288016126dd565b91505092959194509250565b600081519050919050565b600082825260208201905092915050565b6000819050602082019050919050565b6101008201600082015161283e60008501826122c5565b50602082015161285160208501826122c5565b50604082015161286460408501826122c5565b50606082015161287760608501826122c5565b50608082015161288a60808501826122c5565b5060a082015161289d60a08501826122c5565b5060c08201516128b060c08501826122c5565b5060e08201516128c360e08501826122d4565b50505050565b60006128d58383612827565b6101008301905092915050565b6000602082019050919050565b60006128fa826127fb565b6129048185612806565b935061290f83612817565b8060005b8381101561294057815161292788826128c9565b9750612932836128e2565b925050600181019050612913565b5085935050505092915050565b6000602082019050818103600083015261296781846128ef565b905092915050565b61297881612177565b82525050565b6000602082019050612993600083018461296f565b92915050565b600081519050919050565b600082825260208201905092915050565b6000819050602082019050919050565b600081519050919050565b600082825260208201905092915050565b6000819050602082019050919050565b60e082016000820151612a0760008501826122c5565b506020820151612a1a60208501826122c5565b506040820151612a2d60408501826122c5565b506060820151612a4060608501826122c5565b506080820151612a5360808501826122c5565b5060a0820151612a6660a08501826122c5565b5060c0820151612a7960c08501826122c5565b50505050565b6000612a8b83836129f1565b60e08301905092915050565b6000602082019050919050565b6000612aaf826129c5565b612ab981856129d0565b9350612ac4836129e1565b8060005b83811015612af5578151612adc8882612a7f565b9750612ae783612a97565b925050600181019050612ac8565b5085935050505092915050565b6000612b0e8383612aa4565b905092915050565b6000602082019050919050565b6000612b2e82612999565b612b3881856129a4565b935083602082028501612b4a856129b5565b8060005b85811015612b865784840389528151612b678582612b02565b9450612b7283612b16565b925060208a01995050600181019050612b4e565b50829750879550505050505092915050565b60006020820190508181036000830152612bb28184612b23565b905092915050565b600060208284031215612bd057612bcf61213c565b5b6000612bde84828501612198565b91505092915050565b600082825260208201905092915050565b6000612c03826129c5565b612c0d8185612be7565b9350612c18836129e1565b8060005b83811015612c49578151612c308882612a7f565b9750612c3b83612a97565b925050600181019050612c1c565b5085935050505092915050565b60006020820190508181036000830152612c708184612bf8565b905092915050565b600080600080600080600060e0888a031215612c9757612c9661213c565b5b6000612ca58a828b01612162565b9750506020612cb68a828b01612162565b9650506040612cc78a828b01612162565b9550506060612cd88a828b01612198565b9450506080612ce98a828b01612162565b93505060a0612cfa8a828b01612162565b92505060c0612d0b8a828b01612162565b91505092959891949750929550565b600081519050919050565b600082825260208201905092915050565b6000819050602082019050919050565b600082825260208201905092915050565b6000612d6282612299565b612d6c8185612d46565b9350612d77836122b5565b8060005b83811015612da8578151612d8f8882612371565b9750612d9a83612389565b925050600181019050612d7b565b5085935050505092915050565b6000612dc18383612d57565b905092915050565b6000602082019050919050565b6000612de182612d1a565b612deb8185612d25565b935083602082028501612dfd85612d36565b8060005b85811015612e395784840389528151612e1a8582612db5565b9450612e2583612dc9565b925060208a01995050600181019050612e01565b50829750879550505050505092915050565b60006020820190508181036000830152612e658184612dd6565b905092915050565b600081519050919050565b600082825260208201905092915050565b6000819050602082019050919050565b60a082016000820151612eaf60008501826122c5565b506020820151612ec260208501826122c5565b506040820151612ed560408501826122c5565b506060820151612ee860608501826122c5565b506080820151612efb60808501826122d4565b50505050565b6000612f0d8383612e99565b60a08301905092915050565b6000602082019050919050565b6000612f3182612e6d565b612f3b8185612e78565b9350612f4683612e89565b8060005b83811015612f77578151612f5e8882612f01565b9750612f6983612f19565b925050600181019050612f4a565b5085935050505092915050565b60006020820190508181036000830152612f9e8184612f26565b905092915050565b600080600080600060a08688031215612fc257612fc161213c565b5b6000612fd088828901612162565b9550506020612fe188828901612162565b9450506040612ff288828901612162565b935050606061300388828901612162565b925050608061301488828901612198565b9150509295509295909350565b61302a8161206c565b82525050565b60006020820190506130456000830184613021565b92915050565b600081519050919050565b600082825260208201905092915050565b6000819050602082019050919050565b600082825260208201905092915050565b6000613093826127fb565b61309d8185613077565b93506130a883612817565b8060005b838110156130d95781516130c088826128c9565b97506130cb836128e2565b9250506001810190506130ac565b5085935050505092915050565b60006130f28383613088565b905092915050565b6000602082019050919050565b60006131128261304b565b61311c8185613056565b93508360208202850161312e85613067565b8060005b8581101561316a578484038952815161314b85826130e6565b9450613156836130fa565b925060208a01995050600181019050613132565b50829750879550505050505092915050565b600060208201905081810360008301526131968184613107565b905092915050565b600081519050919050565b600082825260208201905092915050565b6000819050602082019050919050565b600082825260208201905092915050565b60006131e682612e6d565b6131f081856131ca565b93506131fb83612e89565b8060005b8381101561322c5781516132138882612f01565b975061321e83612f19565b9250506001810190506131ff565b5085935050505092915050565b600061324583836131db565b905092915050565b6000602082019050919050565b60006132658261319e565b61326f81856131a9565b935083602082028501613281856131ba565b8060005b858110156132bd578484038952815161329e8582613239565b94506132a98361324d565b925060208a01995050600181019050613285565b50829750879550505050505092915050565b600060208201905081810360008301526132e9818461325a565b905092915050565b7f4e487b7100000000000000000000000000000000000000000000000000000000600052603260045260246000fd5b7f4e487b7100000000000000000000000000000000000000000000000000000000600052601160045260246000fd5b600061335a82612177565b91507fffffffffffffffffffffffffffffffffffffffffffffffffffffffffffffffff820361338c5761338b613320565b5b600182019050919050565b60006133a282612177565b91506133ad83612177565b9250828210156133c0576133bf613320565b5b828203905092915050565b60006133d682612177565b91506133e183612177565b9250827fffffffffffffffffffffffffffffffffffffffffffffffffffffffffffffffff0382111561341657613415613320565b5b828201905092915050565b7f4e487b7100000000000000000000000000000000000000000000000000000000600052603160045260246000fdfea2646970667358221220a8e3f906d01813f5da6b77a9bfc28591f5a17abbe0e43f94f111a2b259f0c81264736f6c634300080d0033",
  "immutableReferences": {},
  "source": "// SPDX-License-Identifier: MIT\r\n\r\npragma solidity ^0.8.13;\r\n\r\nimport \"./Ownable.sol\";\r\n\r\ncontract ResumeContract is Ownable {\r\n\r\n\t// Constructor\r\n\tconstructor() {}\r\n\r\n\t//  \r\n\tstruct PersonalInfo {\r\n\t\tbytes32 picUrl; // \r\n\t\tbytes32 name; // \r\n\t\tbytes32 phone; // \r\n\t\tbytes32 email; // \r\n\t\tbytes32 dateOfBirth; // \r\n\t\tbytes32 socialUrl; //  ,    Url\r\n\t\tbytes32 location; // \r\n\t}\r\n\r\n\t//    \r\n\tstruct Education {\r\n\t\tbytes32 eduStartDate; //  \r\n\t\tbytes32 eduEndDate; //  \r\n\t\tbytes32 institute; //  \r\n\t\tbytes32 degree; // \r\n\t\tbytes32 faculty; // \r\n\t\tbytes32 major; // \r\n\t\tbytes32 gpa; // \r\n\t\tbool isNotEmpty;\r\n\t}\r\n\r\n\tstruct Experience {\r\n\t\tbytes32 expStartDate; //  \r\n\t\tbytes32 expEndDate; //  \r\n\t\tbytes32 companyName; // \r\n\t\tbytes32 position; // \r\n\t\tbool isNotEmpty;\r\n\t}\r\n\r\n\t//     \r\n\tstruct Skill {\r\n\t\tbytes32 skillName; // , \r\n\t\tbytes32 level; //   ,  \r\n\t\tbytes32 date; //  \r\n\t\tbytes32 resumeTitle; //  \r\n\t\tbytes32 summary; //  \r\n\t\tbytes32 motive; //  \r\n\t\tbool isNotEmpty;\r\n\t}\r\n\r\n\r\n\tstruct ResumeModel {\r\n\t\tPersonalInfo[] personalInfos;\r\n\t\tExperience[] experiences;\r\n\t\tEducation[] educations;\r\n\t\tSkill[] skills;\r\n\t\tbool isNotEmpty;\r\n\t}\r\n\r\n\tmapping (address => ResumeModel) mResumeModels;\r\n\r\n\tmapping (address => uint) registerd;\r\n\taddress[] public registeredArray;\r\n\tuint public resumeCount = 0;\r\n\r\n\t//   \r\n\tfunction getUsers() public view returns (address[] memory){\r\n\t\treturn registeredArray;\r\n\t}\r\n\r\n\tfunction add(PersonalInfo memory inf, Experience memory exp, Education memory edu, Skill memory ski) public returns (bool) {\r\n\t\tPersonalInfo memory info = inf;\r\n\t\tExperience memory expr = exp;\r\n\t\tEducation memory educ = edu;\r\n\t\tSkill memory skil = ski;\r\n\t\t\r\n\t\tmResumeModels[msg.sender].personalInfos.push(info);\r\n\t\tmResumeModels[msg.sender].experiences.push(expr);\r\n\t\tmResumeModels[msg.sender].educations.push(educ);\r\n\t\tmResumeModels[msg.sender].skills.push(skil);\r\n\r\n\t\tmResumeModels[msg.sender].isNotEmpty = true;\r\n\r\n    \tif(registerd[msg.sender] != 1) {\r\n        \tregisterd[msg.sender] = 1;\r\n        \tregisteredArray.push(msg.sender); // push to the array\r\n\t\t}\r\n\t\tresumeCount++;\r\n\r\n\t\treturn true;\r\n\t}\r\n\r\n\t//   \r\n\tfunction updatePersonalInfo(bytes32 picUrl, bytes32 name, bytes32 phone, bytes32 email, bytes32 dateOfBirth, bytes32 socialUrl, bytes32 location, uint index) public returns (bool) {\r\n\t\tif(mResumeModels[msg.sender].personalInfos.length > index) {\r\n\t\t\tPersonalInfo memory info = PersonalInfo(picUrl, name, phone, email, dateOfBirth, socialUrl, location);\r\n\t\t\tmResumeModels[msg.sender].personalInfos[index] = info;\r\n\t\t\treturn true;\r\n\t\t}\r\n\t\treturn false;\r\n\t}\r\n\tfunction updateEducation(bytes32 startDate, bytes32 endDate, bytes32 institute, bytes32 degree, bytes32 faculty, bytes32 major, bytes32 gpa, uint index) public returns (bool) {\r\n\t\tif(mResumeModels[msg.sender].educations.length > index) {\r\n\t\t\tEducation memory edu = Education(startDate, endDate, institute, degree, faculty, major, gpa, true);\r\n\t\t\tmResumeModels[msg.sender].educations[index] = edu;\r\n\t\t\treturn true;\r\n\t\t}\r\n\t\treturn false;\r\n\t}\r\n\t\r\n\tfunction updateExperience(bytes32 startDate, bytes32 endDate, bytes32 companyName, bytes32 position, uint index) public returns (bool) {\r\n\t\tif(mResumeModels[msg.sender].experiences.length > index) {\r\n\t\t\tExperience memory exp = Experience(startDate, endDate, companyName, position, true);\r\n\t\t\tmResumeModels[msg.sender].experiences[index] = exp;\r\n\t\t\treturn true;\r\n\t\t}\r\n\t\treturn false;\r\n\t}\r\n\tfunction updateSkill(bytes32 skill, bytes32 level, bytes32 date, uint index, bytes32 resumeTitle, bytes32 summary, bytes32 motive) public returns (bool) {\r\n\t\tif(mResumeModels[msg.sender].skills.length > index) {\r\n\t\t\tSkill memory skillStruct = Skill(skill, level, date, resumeTitle, summary, motive, true);\r\n\t\t\tmResumeModels[msg.sender].skills[index] = skillStruct;\r\n\t\t\treturn true;\r\n\t\t}\r\n\t\treturn false;\r\n\t}\r\n\r\n\t//   \r\n\tfunction getPersonalInfo() external view returns (PersonalInfo[] memory) {\r\n\t\treturn mResumeModels[msg.sender].personalInfos;\r\n\t}\r\n\tfunction getEducation() public view returns (Education[] memory) {\r\n\t\treturn mResumeModels[msg.sender].educations;\r\n\t}\r\n\tfunction getExperience() public view returns (Experience[] memory) {\r\n\t\treturn mResumeModels[msg.sender].experiences;\r\n\t}\r\n\tfunction getSkill() public view returns (Skill[] memory) {\r\n\t\treturn mResumeModels[msg.sender].skills;\r\n\t}\r\n\r\n\t//   \r\n\tfunction getAllPersonalInfo()  external view returns (PersonalInfo[][] memory) {\r\n\t\tPersonalInfo[][] memory allPersonalInfos;\r\n\t\tfor(uint i = 0; i < registeredArray.length; i++) {\r\n\t\t\tallPersonalInfos[i] = mResumeModels[registeredArray[i]].personalInfos;\r\n\t\t}\r\n\t\treturn allPersonalInfos;\r\n\t}\r\n\tfunction getAllEducation()  external view returns (Education[][] memory) {\r\n\t\tEducation[][] memory allEducations;\r\n\t\tfor(uint i = 0; i < registeredArray.length; i++) {\r\n\t\t\tallEducations[i] = mResumeModels[registeredArray[i]].educations;\r\n\t\t}\r\n\t\treturn allEducations;\r\n\t}\r\n\tfunction getAllExperience()  external view returns (Experience[][] memory) {\r\n\t\tExperience[][] memory allExperiences;\r\n\t\tfor(uint i = 0; i < registeredArray.length; i++) {\r\n\t\t\tallExperiences[i] = mResumeModels[registeredArray[i]].experiences;\r\n\t\t}\r\n\t\treturn allExperiences;\r\n\t}\r\n\tfunction getAllSkill()  external view returns (Skill[][] memory) {\r\n\t\tSkill[][] memory allSkills;\r\n\t\tfor(uint i = 0; i < registeredArray.length; i++) {\r\n\t\t\tallSkills[i] = mResumeModels[registeredArray[i]].skills;\r\n\t\t}\r\n\t\treturn allSkills;\r\n\t}\r\n\r\n\t//   \r\n\tfunction remove(uint index) public returns (bool) {\r\n\t\tif(mResumeModels[msg.sender].personalInfos.length > index) {\r\n\t\t\tfor(uint i = index; i < mResumeModels[msg.sender].personalInfos.length-1; i++) {\r\n\t\t\t\tmResumeModels[msg.sender].personalInfos[i] = mResumeModels[msg.sender].personalInfos[i+1];\r\n\t\t\t\tmResumeModels[msg.sender].educations[i] = mResumeModels[msg.sender].educations[i+1];\r\n\t\t\t\tmResumeModels[msg.sender].experiences[i] = mResumeModels[msg.sender].experiences[i+1];\r\n\t\t\t\tmResumeModels[msg.sender].skills[i] = mResumeModels[msg.sender].skills[i+1];\r\n\t\t\t}\r\n\r\n\t\t\tmResumeModels[msg.sender].personalInfos.pop();\r\n\t\t\tmResumeModels[msg.sender].educations.pop();\r\n\t\t\tmResumeModels[msg.sender].experiences.pop();\r\n\t\t\tmResumeModels[msg.sender].skills.pop();\r\n\t\r\n\t\t\treturn true;\r\n\t\t}\r\n\t\treturn false;\r\n\t}\r\n}",
  "sourcePath": "C:\\Users\\davej\\Desktop\\workspace\\TestCapstone\\contracts\\ResumeContract.sol",
  "compiler": {
    "name": "solc",
    "version": "0.8.13+commit.abaa5c0e.Emscripten.clang"
  },
  "schemaVersion": "3.4.7",
  "updatedAt": "2022-05-21T11:01:58.402Z",
  "networkType": "ethereum",
  "devdoc": {
    "kind": "dev",
    "methods": {},
    "version": 1
  },
  "userdoc": {
    "kind": "user",
    "methods": {},
    "version": 1
  }
}