{
  "contractName": "ResumeContract",
  "abi": [
    {
      "inputs": [],
      "stateMutability": "nonpayable",
      "type": "constructor"
    },
    {
      "anonymous": false,
      "inputs": [
        {
          "indexed": false,
          "internalType": "bytes32",
          "name": "eduStartDate",
          "type": "bytes32"
        },
        {
          "indexed": false,
          "internalType": "bytes32",
          "name": "eduEndDate",
          "type": "bytes32"
        },
        {
          "indexed": false,
          "internalType": "bytes32",
          "name": "institute",
          "type": "bytes32"
        },
        {
          "indexed": false,
          "internalType": "bytes32",
          "name": "degree",
          "type": "bytes32"
        },
        {
          "indexed": false,
          "internalType": "bytes32",
          "name": "faculty",
          "type": "bytes32"
        },
        {
          "indexed": false,
          "internalType": "bytes32",
          "name": "major",
          "type": "bytes32"
        },
        {
          "indexed": false,
          "internalType": "bytes32",
          "name": "gpa",
          "type": "bytes32"
        },
        {
          "indexed": false,
          "internalType": "uint256",
          "name": "count",
          "type": "uint256"
        },
        {
          "indexed": false,
          "internalType": "uint256",
          "name": "index",
          "type": "uint256"
        }
      ],
      "name": "educationEvent",
      "type": "event"
    },
    {
      "anonymous": false,
      "inputs": [
        {
          "indexed": false,
          "internalType": "bytes32",
          "name": "expStartDate",
          "type": "bytes32"
        },
        {
          "indexed": false,
          "internalType": "bytes32",
          "name": "expEndDate",
          "type": "bytes32"
        },
        {
          "indexed": false,
          "internalType": "bytes32",
          "name": "companyName",
          "type": "bytes32"
        },
        {
          "indexed": false,
          "internalType": "bytes32",
          "name": "position",
          "type": "bytes32"
        },
        {
          "indexed": false,
          "internalType": "uint256",
          "name": "count",
          "type": "uint256"
        },
        {
          "indexed": false,
          "internalType": "uint256",
          "name": "index",
          "type": "uint256"
        }
      ],
      "name": "experienceEvent",
      "type": "event"
    },
    {
      "anonymous": false,
      "inputs": [
        {
          "indexed": false,
          "internalType": "bytes32",
          "name": "picUrl",
          "type": "bytes32"
        },
        {
          "indexed": false,
          "internalType": "bytes32",
          "name": "name",
          "type": "bytes32"
        },
        {
          "indexed": false,
          "internalType": "bytes32",
          "name": "phone",
          "type": "bytes32"
        },
        {
          "indexed": false,
          "internalType": "bytes32",
          "name": "email",
          "type": "bytes32"
        },
        {
          "indexed": false,
          "internalType": "bytes32",
          "name": "dateOfBirth",
          "type": "bytes32"
        },
        {
          "indexed": false,
          "internalType": "bytes32",
          "name": "socialUrl",
          "type": "bytes32"
        },
        {
          "indexed": false,
          "internalType": "bytes32",
          "name": "location",
          "type": "bytes32"
        }
      ],
      "name": "personalInfoEvent",
      "type": "event"
    },
    {
      "anonymous": false,
      "inputs": [],
      "name": "resumeEmptyEvent",
      "type": "event"
    },
    {
      "anonymous": false,
      "inputs": [
        {
          "indexed": false,
          "internalType": "bytes32",
          "name": "skillName",
          "type": "bytes32"
        },
        {
          "indexed": false,
          "internalType": "bytes32",
          "name": "level",
          "type": "bytes32"
        },
        {
          "indexed": false,
          "internalType": "bytes32",
          "name": "date",
          "type": "bytes32"
        },
        {
          "indexed": false,
          "internalType": "uint256",
          "name": "count",
          "type": "uint256"
        },
        {
          "indexed": false,
          "internalType": "uint256",
          "name": "index",
          "type": "uint256"
        }
      ],
      "name": "skillEvent",
      "type": "event"
    },
    {
      "inputs": [
        {
          "internalType": "bytes32",
          "name": "picUrl",
          "type": "bytes32"
        },
        {
          "internalType": "bytes32",
          "name": "name",
          "type": "bytes32"
        },
        {
          "internalType": "bytes32",
          "name": "phone",
          "type": "bytes32"
        },
        {
          "internalType": "bytes32",
          "name": "email",
          "type": "bytes32"
        },
        {
          "internalType": "bytes32",
          "name": "dateOfBirth",
          "type": "bytes32"
        },
        {
          "internalType": "bytes32",
          "name": "socialUrl",
          "type": "bytes32"
        },
        {
          "internalType": "bytes32",
          "name": "location",
          "type": "bytes32"
        }
      ],
      "name": "addPersonalInfo",
      "outputs": [
        {
          "internalType": "bool",
          "name": "",
          "type": "bool"
        }
      ],
      "stateMutability": "nonpayable",
      "type": "function"
    },
    {
      "inputs": [
        {
          "internalType": "bytes32",
          "name": "startDate",
          "type": "bytes32"
        },
        {
          "internalType": "bytes32",
          "name": "endDate",
          "type": "bytes32"
        },
        {
          "internalType": "bytes32",
          "name": "institute",
          "type": "bytes32"
        },
        {
          "internalType": "bytes32",
          "name": "degree",
          "type": "bytes32"
        },
        {
          "internalType": "bytes32",
          "name": "faculty",
          "type": "bytes32"
        },
        {
          "internalType": "bytes32",
          "name": "major",
          "type": "bytes32"
        },
        {
          "internalType": "bytes32",
          "name": "gpa",
          "type": "bytes32"
        }
      ],
      "name": "addEducation",
      "outputs": [
        {
          "internalType": "bool",
          "name": "",
          "type": "bool"
        }
      ],
      "stateMutability": "nonpayable",
      "type": "function"
    },
    {
      "inputs": [
        {
          "internalType": "bytes32",
          "name": "startDate",
          "type": "bytes32"
        },
        {
          "internalType": "bytes32",
          "name": "endDate",
          "type": "bytes32"
        },
        {
          "internalType": "bytes32",
          "name": "companyName",
          "type": "bytes32"
        },
        {
          "internalType": "bytes32",
          "name": "position",
          "type": "bytes32"
        }
      ],
      "name": "addExperience",
      "outputs": [
        {
          "internalType": "bool",
          "name": "",
          "type": "bool"
        }
      ],
      "stateMutability": "nonpayable",
      "type": "function"
    },
    {
      "inputs": [
        {
          "internalType": "bytes32",
          "name": "skill",
          "type": "bytes32"
        },
        {
          "internalType": "bytes32",
          "name": "level",
          "type": "bytes32"
        },
        {
          "internalType": "bytes32",
          "name": "date",
          "type": "bytes32"
        }
      ],
      "name": "addSkill",
      "outputs": [
        {
          "internalType": "bool",
          "name": "",
          "type": "bool"
        }
      ],
      "stateMutability": "nonpayable",
      "type": "function"
    },
    {
      "inputs": [
        {
          "internalType": "bytes32",
          "name": "picUrl",
          "type": "bytes32"
        },
        {
          "internalType": "bytes32",
          "name": "name",
          "type": "bytes32"
        },
        {
          "internalType": "bytes32",
          "name": "phone",
          "type": "bytes32"
        },
        {
          "internalType": "bytes32",
          "name": "email",
          "type": "bytes32"
        },
        {
          "internalType": "bytes32",
          "name": "dateOfBirth",
          "type": "bytes32"
        },
        {
          "internalType": "bytes32",
          "name": "socialUrl",
          "type": "bytes32"
        },
        {
          "internalType": "bytes32",
          "name": "location",
          "type": "bytes32"
        },
        {
          "internalType": "uint256",
          "name": "index",
          "type": "uint256"
        }
      ],
      "name": "updatePersonalInfo",
      "outputs": [
        {
          "internalType": "bool",
          "name": "",
          "type": "bool"
        }
      ],
      "stateMutability": "nonpayable",
      "type": "function"
    },
    {
      "inputs": [
        {
          "internalType": "bytes32",
          "name": "eduStartDate",
          "type": "bytes32"
        },
        {
          "internalType": "bytes32",
          "name": "eduEndDate",
          "type": "bytes32"
        },
        {
          "internalType": "bytes32",
          "name": "institute",
          "type": "bytes32"
        },
        {
          "internalType": "bytes32",
          "name": "degree",
          "type": "bytes32"
        },
        {
          "internalType": "bytes32",
          "name": "faculty",
          "type": "bytes32"
        },
        {
          "internalType": "bytes32",
          "name": "major",
          "type": "bytes32"
        },
        {
          "internalType": "bytes32",
          "name": "gpa",
          "type": "bytes32"
        },
        {
          "internalType": "uint256",
          "name": "index",
          "type": "uint256"
        }
      ],
      "name": "updateEducation",
      "outputs": [
        {
          "internalType": "bool",
          "name": "",
          "type": "bool"
        }
      ],
      "stateMutability": "nonpayable",
      "type": "function"
    },
    {
      "inputs": [
        {
          "internalType": "bytes32",
          "name": "expStartDate",
          "type": "bytes32"
        },
        {
          "internalType": "bytes32",
          "name": "expEndDate",
          "type": "bytes32"
        },
        {
          "internalType": "bytes32",
          "name": "companyName",
          "type": "bytes32"
        },
        {
          "internalType": "bytes32",
          "name": "position",
          "type": "bytes32"
        },
        {
          "internalType": "uint256",
          "name": "index",
          "type": "uint256"
        }
      ],
      "name": "updateExperience",
      "outputs": [
        {
          "internalType": "bool",
          "name": "",
          "type": "bool"
        }
      ],
      "stateMutability": "nonpayable",
      "type": "function"
    },
    {
      "inputs": [
        {
          "internalType": "bytes32",
          "name": "skill",
          "type": "bytes32"
        },
        {
          "internalType": "bytes32",
          "name": "level",
          "type": "bytes32"
        },
        {
          "internalType": "bytes32",
          "name": "date",
          "type": "bytes32"
        },
        {
          "internalType": "uint256",
          "name": "index",
          "type": "uint256"
        }
      ],
      "name": "updateSkill",
      "outputs": [
        {
          "internalType": "bool",
          "name": "",
          "type": "bool"
        }
      ],
      "stateMutability": "nonpayable",
      "type": "function"
    },
    {
      "inputs": [],
      "name": "getPersonalInfo",
      "outputs": [
        {
          "components": [
            {
              "internalType": "bytes32",
              "name": "picUrl",
              "type": "bytes32"
            },
            {
              "internalType": "bytes32",
              "name": "name",
              "type": "bytes32"
            },
            {
              "internalType": "bytes32",
              "name": "phone",
              "type": "bytes32"
            },
            {
              "internalType": "bytes32",
              "name": "email",
              "type": "bytes32"
            },
            {
              "internalType": "bytes32",
              "name": "dateOfBirth",
              "type": "bytes32"
            },
            {
              "internalType": "bytes32",
              "name": "socialUrl",
              "type": "bytes32"
            },
            {
              "internalType": "bytes32",
              "name": "location",
              "type": "bytes32"
            }
          ],
          "internalType": "struct ResumeContract.PersonalInfo[]",
          "name": "",
          "type": "tuple[]"
        }
      ],
      "stateMutability": "view",
      "type": "function",
      "constant": true
    },
    {
      "inputs": [],
      "name": "getEducation",
      "outputs": [
        {
          "components": [
            {
              "internalType": "bytes32",
              "name": "eduStartDate",
              "type": "bytes32"
            },
            {
              "internalType": "bytes32",
              "name": "eduEndDate",
              "type": "bytes32"
            },
            {
              "internalType": "bytes32",
              "name": "institute",
              "type": "bytes32"
            },
            {
              "internalType": "bytes32",
              "name": "degree",
              "type": "bytes32"
            },
            {
              "internalType": "bytes32",
              "name": "faculty",
              "type": "bytes32"
            },
            {
              "internalType": "bytes32",
              "name": "major",
              "type": "bytes32"
            },
            {
              "internalType": "bytes32",
              "name": "gpa",
              "type": "bytes32"
            },
            {
              "internalType": "bool",
              "name": "isNotEmpty",
              "type": "bool"
            }
          ],
          "internalType": "struct ResumeContract.Education[]",
          "name": "",
          "type": "tuple[]"
        }
      ],
      "stateMutability": "view",
      "type": "function",
      "constant": true
    },
    {
      "inputs": [],
      "name": "getExperience",
      "outputs": [
        {
          "components": [
            {
              "internalType": "bytes32",
              "name": "expStartDate",
              "type": "bytes32"
            },
            {
              "internalType": "bytes32",
              "name": "expEndDate",
              "type": "bytes32"
            },
            {
              "internalType": "bytes32",
              "name": "companyName",
              "type": "bytes32"
            },
            {
              "internalType": "bytes32",
              "name": "position",
              "type": "bytes32"
            },
            {
              "internalType": "bool",
              "name": "isNotEmpty",
              "type": "bool"
            }
          ],
          "internalType": "struct ResumeContract.Experience[]",
          "name": "",
          "type": "tuple[]"
        }
      ],
      "stateMutability": "view",
      "type": "function",
      "constant": true
    },
    {
      "inputs": [],
      "name": "getSkill",
      "outputs": [
        {
          "components": [
            {
              "internalType": "bytes32",
              "name": "skillName",
              "type": "bytes32"
            },
            {
              "internalType": "bytes32",
              "name": "level",
              "type": "bytes32"
            },
            {
              "internalType": "bytes32",
              "name": "date",
              "type": "bytes32"
            },
            {
              "internalType": "bool",
              "name": "isNotEmpty",
              "type": "bool"
            }
          ],
          "internalType": "struct ResumeContract.Skill[]",
          "name": "",
          "type": "tuple[]"
        }
      ],
      "stateMutability": "view",
      "type": "function",
      "constant": true
    },
    {
      "inputs": [
        {
          "internalType": "uint256",
          "name": "index",
          "type": "uint256"
        }
      ],
      "name": "remove",
      "outputs": [
        {
          "internalType": "bool",
          "name": "",
          "type": "bool"
        }
      ],
      "stateMutability": "nonpayable",
      "type": "function"
    },
    {
      "inputs": [
        {
          "internalType": "address",
          "name": "accountId",
          "type": "address"
        }
      ],
      "name": "triggerGetResumeByEvent",
      "outputs": [],
      "stateMutability": "nonpayable",
      "type": "function"
    },
    {
      "inputs": [
        {
          "internalType": "address",
          "name": "accountId",
          "type": "address"
        }
      ],
      "name": "triggerGetPersonalInfoByEvent",
      "outputs": [],
      "stateMutability": "nonpayable",
      "type": "function"
    },
    {
      "inputs": [
        {
          "internalType": "address",
          "name": "accountId",
          "type": "address"
        }
      ],
      "name": "triggerGetEducationByEvent",
      "outputs": [],
      "stateMutability": "nonpayable",
      "type": "function"
    },
    {
      "inputs": [
        {
          "internalType": "address",
          "name": "accountId",
          "type": "address"
        }
      ],
      "name": "triggerGetExperienceByEvent",
      "outputs": [],
      "stateMutability": "nonpayable",
      "type": "function"
    },
    {
      "inputs": [
        {
          "internalType": "address",
          "name": "accountId",
          "type": "address"
        }
      ],
      "name": "triggerGetSkillByEvent",
      "outputs": [],
      "stateMutability": "nonpayable",
      "type": "function"
    }
  ],
  "bytecode": "0x608060405234801561001057600080fd5b50336000806101000a81548173ffffffffffffffffffffffffffffffffffffffff021916908373ffffffffffffffffffffffffffffffffffffffff160217905550612f1f806100606000396000f3fe608060405234801561001057600080fd5b50600436106101165760003560e01c806381f539ff116100a2578063cdb986cc11610071578063cdb986cc14610305578063d2e0207614610323578063d31025d214610353578063eb54625614610383578063f31786851461039f57610116565b806381f539ff1461026b5780639ea215f014610289578063bbafa406146102b9578063c829c4a2146102e957610116565b806337ff8b7e116100e957806337ff8b7e146101a35780633cdc64c0146101bf5780634cc82215146101ef5780635b99b7081461021f57806372b912401461023b57610116565b8063162c97cd1461011b578063189e659e1461014b5780631c41e2db14610169578063275e78e814610187575b600080fd5b6101356004803603810190610130919061228a565b6103cf565b604051610142919061235b565b60405180910390f35b610153610546565b6040516101609190612498565b60405180910390f35b61017161061e565b60405161017e919061260c565b60405180910390f35b6101a1600480360381019061019c919061268c565b61071f565b005b6101bd60048036038101906101b8919061268c565b61091b565b005b6101d960048036038101906101d491906126b9565b610ae6565b6040516101e6919061235b565b60405180910390f35b6102096004803603810190610204919061275b565b610c66565b604051610216919061235b565b60405180910390f35b6102396004803603810190610234919061268c565b61146f565b005b61025560048036038101906102509190612788565b61151d565b604051610262919061235b565b60405180910390f35b610273611658565b6040516102809190612918565b60405180910390f35b6102a3600480360381019061029e919061293a565b61173d565b6040516102b0919061235b565b60405180910390f35b6102d360048036038101906102ce91906126b9565b61186f565b6040516102e0919061235b565b60405180910390f35b61030360048036038101906102fe919061268c565b6119c5565b005b61030d611ba0565b60405161031a9190612ab8565b60405180910390f35b61033d60048036038101906103389190612ada565b611c82565b60405161034a919061235b565b60405180910390f35b61036d60048036038101906103689190612b41565b611dce565b60405161037a919061235b565b60405180910390f35b61039d6004803603810190610398919061268c565b611f11565b005b6103b960048036038101906103b4919061228a565b6120cc565b6040516103c6919061235b565b60405180910390f35b600081600160003373ffffffffffffffffffffffffffffffffffffffff1673ffffffffffffffffffffffffffffffffffffffff1681526020019081526020016000206000018054905011156105355760006040518061010001604052808b81526020018a815260200189815260200188815260200187815260200186815260200185815260200160011515815250905080600160003373ffffffffffffffffffffffffffffffffffffffff1673ffffffffffffffffffffffffffffffffffffffff16815260200190815260200160002060020184815481106104b4576104b3612bbc565b5b9060005260206000209060080201600082015181600001556020820151816001015560408201518160020155606082015181600301556080820151816004015560a0820151816005015560c0820151816006015560e08201518160070160006101000a81548160ff021916908315150217905550905050600191505061053a565b600090505b98975050505050505050565b6060600160003373ffffffffffffffffffffffffffffffffffffffff1673ffffffffffffffffffffffffffffffffffffffff168152602001908152602001600020600301805480602002602001604051908101604052809291908181526020016000905b8282101561061557838290600052602060002090600402016040518060800160405290816000820154815260200160018201548152602001600282015481526020016003820160009054906101000a900460ff161515151581525050815260200190600101906105aa565b50505050905090565b6060600160003373ffffffffffffffffffffffffffffffffffffffff1673ffffffffffffffffffffffffffffffffffffffff168152602001908152602001600020600201805480602002602001604051908101604052809291908181526020016000905b82821015610716578382906000526020600020906008020160405180610100016040529081600082015481526020016001820154815260200160028201548152602001600382015481526020016004820154815260200160058201548152602001600682015481526020016007820160009054906101000a900460ff16151515158152505081526020019060010190610682565b50505050905090565b600160008273ffffffffffffffffffffffffffffffffffffffff1673ffffffffffffffffffffffffffffffffffffffff16815260200190815260200160002060040160009054906101000a900460ff1615610918576060600160008373ffffffffffffffffffffffffffffffffffffffff1673ffffffffffffffffffffffffffffffffffffffff168152602001908152602001600020600201805480602002602001604051908101604052809291908181526020016000905b8282101561086c578382906000526020600020906008020160405180610100016040529081600082015481526020016001820154815260200160028201548152602001600382015481526020016004820154815260200160058201548152602001600682015481526020016007820160009054906101000a900460ff161515151581525050815260200190600101906107d8565b50505050905060005b815181101561091557600082828151811061089357610892612bbc565b5b602002602001015190507f338a627e22e948a94ec73f04e46ede6a2e12e8a4100246916dbd5c98af353e28816000015182602001518360400151846060015185608001518660a001518760c001518a518a6040516108f999989796959493929190612c09565b60405180910390a150808061090d90612cc5565b915050610875565b50505b50565b600160008273ffffffffffffffffffffffffffffffffffffffff1673ffffffffffffffffffffffffffffffffffffffff16815260200190815260200160002060040160009054906101000a900460ff1615610ae3576060600160008373ffffffffffffffffffffffffffffffffffffffff1673ffffffffffffffffffffffffffffffffffffffff168152602001908152602001600020600101805480602002602001604051908101604052809291908181526020016000905b82821015610a4957838290600052602060002090600502016040518060a0016040529081600082015481526020016001820154815260200160028201548152602001600382015481526020016004820160009054906101000a900460ff161515151581525050815260200190600101906109d4565b50505050905060005b8151811015610ae0576000828281518110610a7057610a6f612bbc565b5b602002602001015190507f7c333290d4ba954c8326540cf42b538ae005c4c02699071cfb7eb3e1ba2c90048160000151826020015183604001518460600151875187604051610ac496959493929190612d0d565b60405180910390a1508080610ad890612cc5565b915050610a52565b50505b50565b6000806040518061010001604052808a8152602001898152602001888152602001878152602001868152602001858152602001848152602001600115158152509050600160003373ffffffffffffffffffffffffffffffffffffffff1673ffffffffffffffffffffffffffffffffffffffff168152602001908152602001600020600201819080600181540180825580915050600190039060005260206000209060080201600090919091909150600082015181600001556020820151816001015560408201518160020155606082015181600301556080820151816004015560a0820151816005015560c0820151816006015560e08201518160070160006101000a81548160ff021916908315150217905550505060018060003373ffffffffffffffffffffffffffffffffffffffff1673ffffffffffffffffffffffffffffffffffffffff16815260200190815260200160002060040160006101000a81548160ff0219169083151502179055506001915050979650505050505050565b600081600160003373ffffffffffffffffffffffffffffffffffffffff1673ffffffffffffffffffffffffffffffffffffffff1681526020019081526020016000206000018054905011156114655760008290505b60018060003373ffffffffffffffffffffffffffffffffffffffff1673ffffffffffffffffffffffffffffffffffffffff16815260200190815260200160002060000180549050610d0c9190612d6e565b8110156111cb57600160003373ffffffffffffffffffffffffffffffffffffffff1673ffffffffffffffffffffffffffffffffffffffff168152602001908152602001600020600001600182610d629190612da2565b81548110610d7357610d72612bbc565b5b9060005260206000209060070201600160003373ffffffffffffffffffffffffffffffffffffffff1673ffffffffffffffffffffffffffffffffffffffff1681526020019081526020016000206000018281548110610dd557610dd4612bbc565b5b906000526020600020906007020160008201548160000155600182015481600101556002820154816002015560038201548160030155600482015481600401556005820154816005015560068201548160060155905050600160003373ffffffffffffffffffffffffffffffffffffffff1673ffffffffffffffffffffffffffffffffffffffff168152602001908152602001600020600201600182610e7b9190612da2565b81548110610e8c57610e8b612bbc565b5b9060005260206000209060080201600160003373ffffffffffffffffffffffffffffffffffffffff1673ffffffffffffffffffffffffffffffffffffffff1681526020019081526020016000206002018281548110610eee57610eed612bbc565b5b9060005260206000209060080201600082015481600001556001820154816001015560028201548160020155600382015481600301556004820154816004015560058201548160050155600682015481600601556007820160009054906101000a900460ff168160070160006101000a81548160ff021916908315150217905550905050600160003373ffffffffffffffffffffffffffffffffffffffff1673ffffffffffffffffffffffffffffffffffffffff168152602001908152602001600020600101600182610fc19190612da2565b81548110610fd257610fd1612bbc565b5b9060005260206000209060050201600160003373ffffffffffffffffffffffffffffffffffffffff1673ffffffffffffffffffffffffffffffffffffffff168152602001908152602001600020600101828154811061103457611033612bbc565b5b9060005260206000209060050201600082015481600001556001820154816001015560028201548160020155600382015481600301556004820160009054906101000a900460ff168160040160006101000a81548160ff021916908315150217905550905050600160003373ffffffffffffffffffffffffffffffffffffffff1673ffffffffffffffffffffffffffffffffffffffff1681526020019081526020016000206003016001826110e99190612da2565b815481106110fa576110f9612bbc565b5b9060005260206000209060040201600160003373ffffffffffffffffffffffffffffffffffffffff1673ffffffffffffffffffffffffffffffffffffffff168152602001908152602001600020600301828154811061115c5761115b612bbc565b5b90600052602060002090600402016000820154816000015560018201548160010155600282015481600201556003820160009054906101000a900460ff168160030160006101000a81548160ff02191690831515021790555090505080806111c390612cc5565b915050610cbb565b50600160003373ffffffffffffffffffffffffffffffffffffffff1673ffffffffffffffffffffffffffffffffffffffff16815260200190815260200160002060000180548061121e5761121d612df8565b5b600190038181906000526020600020906007020160008082016000905560018201600090556002820160009055600382016000905560048201600090556005820160009055600682016000905550509055600160003373ffffffffffffffffffffffffffffffffffffffff1673ffffffffffffffffffffffffffffffffffffffff1681526020019081526020016000206002018054806112c1576112c0612df8565b5b60019003818190600052602060002090600802016000808201600090556001820160009055600282016000905560038201600090556004820160009055600582016000905560068201600090556007820160006101000a81549060ff021916905550509055600160003373ffffffffffffffffffffffffffffffffffffffff1673ffffffffffffffffffffffffffffffffffffffff16815260200190815260200160002060010180548061137857611377612df8565b5b60019003818190600052602060002090600502016000808201600090556001820160009055600282016000905560038201600090556004820160006101000a81549060ff021916905550509055600160003373ffffffffffffffffffffffffffffffffffffffff1673ffffffffffffffffffffffffffffffffffffffff16815260200190815260200160002060030180548061141757611416612df8565b5b6001900381819060005260206000209060040201600080820160009055600182016000905560028201600090556003820160006101000a81549060ff0219169055505090556001905061146a565b600090505b919050565b600160008273ffffffffffffffffffffffffffffffffffffffff1673ffffffffffffffffffffffffffffffffffffffff16815260200190815260200160002060040160009054906101000a900460ff16156114ed576114cd816119c5565b6114d68161091b565b6114df8161071f565b6114e881611f11565b61151a565b7fdb46d9c9185746ac04f85600280bf31e2ec54c2a10450a61818359dcbdd9c24260405160405180910390a15b50565b6000806040518060800160405280868152602001858152602001848152602001600115158152509050600160003373ffffffffffffffffffffffffffffffffffffffff1673ffffffffffffffffffffffffffffffffffffffff16815260200190815260200160002060030181908060018154018082558091505060019003906000526020600020906004020160009091909190915060008201518160000155602082015181600101556040820151816002015560608201518160030160006101000a81548160ff021916908315150217905550505060018060003373ffffffffffffffffffffffffffffffffffffffff1673ffffffffffffffffffffffffffffffffffffffff16815260200190815260200160002060040160006101000a81548160ff02191690831515021790555060019150509392505050565b6060600160003373ffffffffffffffffffffffffffffffffffffffff1673ffffffffffffffffffffffffffffffffffffffff168152602001908152602001600020600001805480602002602001604051908101604052809291908181526020016000905b8282101561173457838290600052602060002090600702016040518060e0016040529081600082015481526020016001820154815260200160028201548152602001600382015481526020016004820154815260200160058201548152602001600682015481525050815260200190600101906116bc565b50505050905090565b600081600160003373ffffffffffffffffffffffffffffffffffffffff1673ffffffffffffffffffffffffffffffffffffffff168152602001908152602001600020600001805490501115611862576000604051806080016040528087815260200186815260200185815260200160011515815250905080600160003373ffffffffffffffffffffffffffffffffffffffff1673ffffffffffffffffffffffffffffffffffffffff168152602001908152602001600020600301848154811061180957611808612bbc565b5b906000526020600020906004020160008201518160000155602082015181600101556040820151816002015560608201518160030160006101000a81548160ff0219169083151502179055509050506001915050611867565b600090505b949350505050565b6000806040518060e001604052808a8152602001898152602001888152602001878152602001868152602001858152602001848152509050600160003373ffffffffffffffffffffffffffffffffffffffff1673ffffffffffffffffffffffffffffffffffffffff168152602001908152602001600020600001819080600181540180825580915050600190039060005260206000209060070201600090919091909150600082015181600001556020820151816001015560408201518160020155606082015181600301556080820151816004015560a0820151816005015560c08201518160060155505060018060003373ffffffffffffffffffffffffffffffffffffffff1673ffffffffffffffffffffffffffffffffffffffff16815260200190815260200160002060040160006101000a81548160ff0219169083151502179055506001915050979650505050505050565b600160008273ffffffffffffffffffffffffffffffffffffffff1673ffffffffffffffffffffffffffffffffffffffff16815260200190815260200160002060040160009054906101000a900460ff1615611b9d576060600160008373ffffffffffffffffffffffffffffffffffffffff1673ffffffffffffffffffffffffffffffffffffffff168152602001908152602001600020600001805480602002602001604051908101604052809291908181526020016000905b82821015611af657838290600052602060002090600702016040518060e001604052908160008201548152602001600182015481526020016002820154815260200160038201548152602001600482015481526020016005820154815260200160068201548152505081526020019060010190611a7e565b50505050905060005b8151811015611b9a576000828281518110611b1d57611b1c612bbc565b5b602002602001015190507f08f654f1ad069805f797f3582c65cfa29cdaa444fa4fdf69a1d6a8f954fdd806816000015182602001518360400151846060015185608001518660a001518760c00151604051611b7e9796959493929190612e27565b60405180910390a1508080611b9290612cc5565b915050611aff565b50505b50565b6060600160003373ffffffffffffffffffffffffffffffffffffffff1673ffffffffffffffffffffffffffffffffffffffff168152602001908152602001600020600101805480602002602001604051908101604052809291908181526020016000905b82821015611c7957838290600052602060002090600502016040518060a0016040529081600082015481526020016001820154815260200160028201548152602001600382015481526020016004820160009054906101000a900460ff16151515158152505081526020019060010190611c04565b50505050905090565b6000806040518060a00160405280878152602001868152602001858152602001848152602001600115158152509050600160003373ffffffffffffffffffffffffffffffffffffffff1673ffffffffffffffffffffffffffffffffffffffff1681526020019081526020016000206001018190806001815401808255809150506001900390600052602060002090600502016000909190919091506000820151816000015560208201518160010155604082015181600201556060820151816003015560808201518160040160006101000a81548160ff021916908315150217905550505060018060003373ffffffffffffffffffffffffffffffffffffffff1673ffffffffffffffffffffffffffffffffffffffff16815260200190815260200160002060040160006101000a81548160ff0219169083151502179055506001915050949350505050565b600081600160003373ffffffffffffffffffffffffffffffffffffffff1673ffffffffffffffffffffffffffffffffffffffff168152602001908152602001600020600001805490501115611f035760006040518060a0016040528088815260200187815260200186815260200185815260200160011515815250905080600160003373ffffffffffffffffffffffffffffffffffffffff1673ffffffffffffffffffffffffffffffffffffffff1681526020019081526020016000206001018481548110611ea057611e9f612bbc565b5b90600052602060002090600502016000820151816000015560208201518160010155604082015181600201556060820151816003015560808201518160040160006101000a81548160ff0219169083151502179055509050506001915050611f08565b600090505b95945050505050565b600160008273ffffffffffffffffffffffffffffffffffffffff1673ffffffffffffffffffffffffffffffffffffffff16815260200190815260200160002060040160009054906101000a900460ff16156120c9576060600160008373ffffffffffffffffffffffffffffffffffffffff1673ffffffffffffffffffffffffffffffffffffffff168152602001908152602001600020600301805480602002602001604051908101604052809291908181526020016000905b8282101561203557838290600052602060002090600402016040518060800160405290816000820154815260200160018201548152602001600282015481526020016003820160009054906101000a900460ff16151515158152505081526020019060010190611fca565b50505050905060005b81518110156120c657600082828151811061205c5761205b612bbc565b5b602002602001015190507f14bf0b25d5177ec42547af690f214c8b0249bb27a6d7cfde835d114fd39a56e98160000151826020015183604001518651866040516120aa959493929190612e96565b60405180910390a15080806120be90612cc5565b91505061203e565b50505b50565b600081600160003373ffffffffffffffffffffffffffffffffffffffff1673ffffffffffffffffffffffffffffffffffffffff1681526020019081526020016000206000018054905011156122085760006040518060e001604052808b81526020018a815260200189815260200188815260200187815260200186815260200185815250905080600160003373ffffffffffffffffffffffffffffffffffffffff1673ffffffffffffffffffffffffffffffffffffffff16815260200190815260200160002060000184815481106121a7576121a6612bbc565b5b9060005260206000209060070201600082015181600001556020820151816001015560408201518160020155606082015181600301556080820151816004015560a0820151816005015560c08201518160060155905050600191505061220d565b600090505b98975050505050505050565b600080fd5b6000819050919050565b6122318161221e565b811461223c57600080fd5b50565b60008135905061224e81612228565b92915050565b6000819050919050565b61226781612254565b811461227257600080fd5b50565b6000813590506122848161225e565b92915050565b600080600080600080600080610100898b0312156122ab576122aa612219565b5b60006122b98b828c0161223f565b98505060206122ca8b828c0161223f565b97505060406122db8b828c0161223f565b96505060606122ec8b828c0161223f565b95505060806122fd8b828c0161223f565b94505060a061230e8b828c0161223f565b93505060c061231f8b828c0161223f565b92505060e06123308b828c01612275565b9150509295985092959890939650565b60008115159050919050565b61235581612340565b82525050565b6000602082019050612370600083018461234c565b92915050565b600081519050919050565b600082825260208201905092915050565b6000819050602082019050919050565b6123ab8161221e565b82525050565b6123ba81612340565b82525050565b6080820160008201516123d660008501826123a2565b5060208201516123e960208501826123a2565b5060408201516123fc60408501826123a2565b50606082015161240f60608501826123b1565b50505050565b600061242183836123c0565b60808301905092915050565b6000602082019050919050565b600061244582612376565b61244f8185612381565b935061245a83612392565b8060005b8381101561248b5781516124728882612415565b975061247d8361242d565b92505060018101905061245e565b5085935050505092915050565b600060208201905081810360008301526124b2818461243a565b905092915050565b600081519050919050565b600082825260208201905092915050565b6000819050602082019050919050565b610100820160008201516124fd60008501826123a2565b50602082015161251060208501826123a2565b50604082015161252360408501826123a2565b50606082015161253660608501826123a2565b50608082015161254960808501826123a2565b5060a082015161255c60a08501826123a2565b5060c082015161256f60c08501826123a2565b5060e082015161258260e08501826123b1565b50505050565b600061259483836124e6565b6101008301905092915050565b6000602082019050919050565b60006125b9826124ba565b6125c381856124c5565b93506125ce836124d6565b8060005b838110156125ff5781516125e68882612588565b97506125f1836125a1565b9250506001810190506125d2565b5085935050505092915050565b6000602082019050818103600083015261262681846125ae565b905092915050565b600073ffffffffffffffffffffffffffffffffffffffff82169050919050565b60006126598261262e565b9050919050565b6126698161264e565b811461267457600080fd5b50565b60008135905061268681612660565b92915050565b6000602082840312156126a2576126a1612219565b5b60006126b084828501612677565b91505092915050565b600080600080600080600060e0888a0312156126d8576126d7612219565b5b60006126e68a828b0161223f565b97505060206126f78a828b0161223f565b96505060406127088a828b0161223f565b95505060606127198a828b0161223f565b945050608061272a8a828b0161223f565b93505060a061273b8a828b0161223f565b92505060c061274c8a828b0161223f565b91505092959891949750929550565b60006020828403121561277157612770612219565b5b600061277f84828501612275565b91505092915050565b6000806000606084860312156127a1576127a0612219565b5b60006127af8682870161223f565b93505060206127c08682870161223f565b92505060406127d18682870161223f565b9150509250925092565b600081519050919050565b600082825260208201905092915050565b6000819050602082019050919050565b60e08201600082015161281d60008501826123a2565b50602082015161283060208501826123a2565b50604082015161284360408501826123a2565b50606082015161285660608501826123a2565b50608082015161286960808501826123a2565b5060a082015161287c60a08501826123a2565b5060c082015161288f60c08501826123a2565b50505050565b60006128a18383612807565b60e08301905092915050565b6000602082019050919050565b60006128c5826127db565b6128cf81856127e6565b93506128da836127f7565b8060005b8381101561290b5781516128f28882612895565b97506128fd836128ad565b9250506001810190506128de565b5085935050505092915050565b6000602082019050818103600083015261293281846128ba565b905092915050565b6000806000806080858703121561295457612953612219565b5b60006129628782880161223f565b94505060206129738782880161223f565b93505060406129848782880161223f565b925050606061299587828801612275565b91505092959194509250565b600081519050919050565b600082825260208201905092915050565b6000819050602082019050919050565b60a0820160008201516129e360008501826123a2565b5060208201516129f660208501826123a2565b506040820151612a0960408501826123a2565b506060820151612a1c60608501826123a2565b506080820151612a2f60808501826123b1565b50505050565b6000612a4183836129cd565b60a08301905092915050565b6000602082019050919050565b6000612a65826129a1565b612a6f81856129ac565b9350612a7a836129bd565b8060005b83811015612aab578151612a928882612a35565b9750612a9d83612a4d565b925050600181019050612a7e565b5085935050505092915050565b60006020820190508181036000830152612ad28184612a5a565b905092915050565b60008060008060808587031215612af457612af3612219565b5b6000612b028782880161223f565b9450506020612b138782880161223f565b9350506040612b248782880161223f565b9250506060612b358782880161223f565b91505092959194509250565b600080600080600060a08688031215612b5d57612b5c612219565b5b6000612b6b8882890161223f565b9550506020612b7c8882890161223f565b9450506040612b8d8882890161223f565b9350506060612b9e8882890161223f565b9250506080612baf88828901612275565b9150509295509295909350565b7f4e487b7100000000000000000000000000000000000000000000000000000000600052603260045260246000fd5b612bf48161221e565b82525050565b612c0381612254565b82525050565b600061012082019050612c1f600083018c612beb565b612c2c602083018b612beb565b612c39604083018a612beb565b612c466060830189612beb565b612c536080830188612beb565b612c6060a0830187612beb565b612c6d60c0830186612beb565b612c7a60e0830185612bfa565b612c88610100830184612bfa565b9a9950505050505050505050565b7f4e487b7100000000000000000000000000000000000000000000000000000000600052601160045260246000fd5b6000612cd082612254565b91507fffffffffffffffffffffffffffffffffffffffffffffffffffffffffffffffff8203612d0257612d01612c96565b5b600182019050919050565b600060c082019050612d226000830189612beb565b612d2f6020830188612beb565b612d3c6040830187612beb565b612d496060830186612beb565b612d566080830185612bfa565b612d6360a0830184612bfa565b979650505050505050565b6000612d7982612254565b9150612d8483612254565b925082821015612d9757612d96612c96565b5b828203905092915050565b6000612dad82612254565b9150612db883612254565b9250827fffffffffffffffffffffffffffffffffffffffffffffffffffffffffffffffff03821115612ded57612dec612c96565b5b828201905092915050565b7f4e487b7100000000000000000000000000000000000000000000000000000000600052603160045260246000fd5b600060e082019050612e3c600083018a612beb565b612e496020830189612beb565b612e566040830188612beb565b612e636060830187612beb565b612e706080830186612beb565b612e7d60a0830185612beb565b612e8a60c0830184612beb565b98975050505050505050565b600060a082019050612eab6000830188612beb565b612eb86020830187612beb565b612ec56040830186612beb565b612ed26060830185612bfa565b612edf6080830184612bfa565b969550505050505056fea26469706673582212203fffe2d8d2f75fcac85da3776abc36e6ff37088382c225e12159168e0619d50c64736f6c634300080d0033",
  "immutableReferences": {},
  "source": "// SPDX-License-Identifier: MIT\r\n\r\npragma solidity ^0.8.13;\r\n\r\nimport \"./Ownable.sol\";\r\n\r\ncontract ResumeContract is Ownable {\r\n\r\n\t// Constructor\r\n\tconstructor() {}\r\n\r\n\t//  \r\n\tstruct PersonalInfo {\r\n\t\tbytes32 picUrl; // \r\n\t\tbytes32 name; // \r\n\t\tbytes32 phone; // \r\n\t\tbytes32 email; // \r\n\t\tbytes32 dateOfBirth; // \r\n\t\tbytes32 socialUrl; //  ,    Url\r\n\t\tbytes32 location; // \r\n\t}\r\n\r\n\t//    \r\n\tstruct Education {\r\n\t\tbytes32 eduStartDate; //  \r\n\t\tbytes32 eduEndDate; //  \r\n\t\tbytes32 institute; //  \r\n\t\tbytes32 degree; // \r\n\t\tbytes32 faculty; // \r\n\t\tbytes32 major; // \r\n\t\tbytes32 gpa; // \r\n\t\tbool isNotEmpty;\r\n\t}\r\n\r\n\tstruct Experience {\r\n\t\tbytes32 expStartDate; //  \r\n\t\tbytes32 expEndDate; //  \r\n\t\tbytes32 companyName; // \r\n\t\tbytes32 position; // \r\n\t\tbool isNotEmpty;\r\n\t}\r\n\r\n\t//     \r\n\tstruct Skill {\r\n\t\tbytes32 skillName; // , \r\n\t\tbytes32 level; //   ,  \r\n\t\tbytes32 date; //  \r\n\t\tbool isNotEmpty;\r\n\t}\r\n\r\n\r\n\tstruct ResumeModel {\r\n\t\tPersonalInfo[] personalInfos;\r\n\t\tExperience[] experiences;\r\n\t\tEducation[] educations;\r\n\t\tSkill[] skills;\r\n\t\tbool isNotEmpty;\r\n\t}\r\n\r\n\tmapping (address => ResumeModel) mResumeModels;\r\n\r\n\t//   \r\n\tfunction addPersonalInfo(bytes32 picUrl, bytes32 name, bytes32 phone, bytes32 email, bytes32 dateOfBirth, bytes32 socialUrl, bytes32 location) public returns (bool) {\r\n\t\tPersonalInfo memory info = PersonalInfo(picUrl, name, phone, email, dateOfBirth, socialUrl, location);\r\n\t\tmResumeModels[msg.sender].personalInfos.push(info);\r\n\t\tmResumeModels[msg.sender].isNotEmpty = true;\r\n\t\treturn true;\r\n\t}\r\n\tfunction addEducation(bytes32 startDate, bytes32 endDate, bytes32 institute, bytes32 degree, bytes32 faculty, bytes32 major, bytes32 gpa) public returns (bool) {\r\n\t\tEducation memory edu = Education(startDate, endDate, institute, degree, faculty, major, gpa, true);\r\n\t\tmResumeModels[msg.sender].educations.push(edu);\r\n\t\tmResumeModels[msg.sender].isNotEmpty = true;\r\n\t\treturn true;\r\n\t}\r\n\tfunction addExperience(bytes32 startDate, bytes32 endDate, bytes32 companyName, bytes32 position) public returns (bool) {\r\n\t\tExperience memory exp = Experience(startDate, endDate, companyName, position, true);\r\n\t\tmResumeModels[msg.sender].experiences.push(exp);\r\n\t\tmResumeModels[msg.sender].isNotEmpty = true;\r\n\t\treturn true;\r\n\t}\r\n\tfunction addSkill(bytes32 skill, bytes32 level, bytes32 date) public returns (bool) {\r\n\t\tSkill memory skillStruct = Skill(skill, level, date, true);\r\n\t\tmResumeModels[msg.sender].skills.push(skillStruct);\r\n\t\tmResumeModels[msg.sender].isNotEmpty = true;\r\n\t\treturn true;\r\n\t}\r\n\r\n\t//   \r\n\tfunction updatePersonalInfo(bytes32 picUrl, bytes32 name, bytes32 phone, bytes32 email, bytes32 dateOfBirth, bytes32 socialUrl, bytes32 location, uint index) public returns (bool) {\r\n\t\tif(mResumeModels[msg.sender].personalInfos.length > index) {\r\n\t\t\tPersonalInfo memory info = PersonalInfo(picUrl, name, phone, email, dateOfBirth, socialUrl, location);\r\n\t\t\tmResumeModels[msg.sender].personalInfos[index] = info;\r\n\t\t\r\n\t\t\treturn true;\r\n\t\t}\r\n\t\treturn false;\r\n\t}\r\n\tfunction updateEducation(bytes32 eduStartDate, bytes32 eduEndDate, bytes32 institute, bytes32 degree, bytes32 faculty, bytes32 major, bytes32 gpa, uint index) public returns (bool) {\r\n\t\tif(mResumeModels[msg.sender].personalInfos.length > index) {\t\t\t\r\n\t\t\tEducation memory edu = Education(eduStartDate, eduEndDate, institute, degree, faculty, major, gpa, true);\r\n\t\t\tmResumeModels[msg.sender].educations[index] = edu;\t\t\r\n\t\t\treturn true;\r\n\t\t}\r\n\t\treturn false;\r\n\t}\r\n\tfunction updateExperience(bytes32 expStartDate, bytes32 expEndDate, bytes32 companyName, bytes32 position, uint index) public returns (bool) {\r\n\t\tif(mResumeModels[msg.sender].personalInfos.length > index) {\r\n\t\t\tExperience memory exp = Experience(expStartDate, expEndDate, companyName, position, true);\r\n\t\t\tmResumeModels[msg.sender].experiences[index] = exp;\t\t\t\r\n\t\t\r\n\t\t\treturn true;\r\n\t\t}\r\n\t\treturn false;\r\n\t}\r\n\tfunction updateSkill(bytes32 skill, bytes32 level, bytes32 date, uint index) public returns (bool) {\r\n\t\tif(mResumeModels[msg.sender].personalInfos.length > index) {\t\t\t\r\n\t\t\tSkill memory skillStruct = Skill(skill, level, date, true);\r\n\t\t\tmResumeModels[msg.sender].skills[index] = skillStruct;\r\n\t\t\r\n\t\t\treturn true;\r\n\t\t}\r\n\t\treturn false;\r\n\t}\r\n\r\n\t//   \r\n\tfunction getPersonalInfo() external view returns(PersonalInfo[] memory) {\r\n\t\treturn mResumeModels[msg.sender].personalInfos;\r\n\t}\r\n\r\n\tfunction getEducation() public view returns (Education[] memory) {\r\n\t\treturn mResumeModels[msg.sender].educations;\r\n\t}\r\n\r\n\tfunction getExperience() public view returns (Experience[] memory) {\r\n\t\treturn  mResumeModels[msg.sender].experiences;\r\n\t}\r\n\r\n\tfunction getSkill() public view returns (Skill[] memory) {\r\n\t\treturn  mResumeModels[msg.sender].skills;\r\n\t}\r\n\r\n\t//   \r\n\tfunction remove(uint index) public returns (bool) {\r\n\t\tif(mResumeModels[msg.sender].personalInfos.length > index) {\r\n\t\t\tfor(uint i = index; i < mResumeModels[msg.sender].personalInfos.length-1; i++) {\r\n\t\t\t\tmResumeModels[msg.sender].personalInfos[i] = mResumeModels[msg.sender].personalInfos[i+1];\r\n\t\t\t\tmResumeModels[msg.sender].educations[i] = mResumeModels[msg.sender].educations[i+1];\r\n\t\t\t\tmResumeModels[msg.sender].experiences[i] = mResumeModels[msg.sender].experiences[i+1];\r\n\t\t\t\tmResumeModels[msg.sender].skills[i] = mResumeModels[msg.sender].skills[i+1];\r\n\t\t\t}\r\n\t\t\tmResumeModels[msg.sender].personalInfos.pop();\r\n\t\t\tmResumeModels[msg.sender].educations.pop();\r\n\t\t\tmResumeModels[msg.sender].experiences.pop();\r\n\t\t\tmResumeModels[msg.sender].skills.pop();\r\n\t\r\n\t\t\treturn true;\r\n\t\t}\r\n\t\treturn false;\r\n\t}\r\n\r\n\tevent personalInfoEvent(bytes32 picUrl, bytes32 name, bytes32 phone, bytes32 email, bytes32 dateOfBirth, bytes32 socialUrl, bytes32 location);\r\n\r\n\tevent educationEvent(bytes32 eduStartDate, bytes32 eduEndDate, bytes32 institute, bytes32 degree, bytes32 faculty, bytes32 major, bytes32 gpa, uint count, uint index);\r\n\t\t \r\n\tevent experienceEvent(bytes32 expStartDate, bytes32 expEndDate, bytes32 companyName, bytes32 position, uint count, uint index);\r\n\r\n\tevent skillEvent(bytes32 skillName, bytes32 level, bytes32 date, uint count, uint index);\r\n\r\n\tevent resumeEmptyEvent();\r\n\r\n\r\n\tfunction triggerGetResumeByEvent(address accountId) public {\r\n\t\tif(mResumeModels[accountId].isNotEmpty){\r\n\t\t\ttriggerGetPersonalInfoByEvent(accountId);\r\n\t\t\ttriggerGetExperienceByEvent(accountId);\r\n\t\t\ttriggerGetEducationByEvent(accountId);\r\n\t\t\ttriggerGetSkillByEvent(accountId);\r\n\t\t}else{\r\n\t\t\temit resumeEmptyEvent();\r\n\t\t}\r\n\t}\r\n\r\n\tfunction triggerGetPersonalInfoByEvent(address accountId) public {\r\n\t\tif(mResumeModels[accountId].isNotEmpty) {\r\n\t\t\tPersonalInfo[] memory info;\r\n\t\t\tinfo = mResumeModels[accountId].personalInfos;\r\n\r\n\t\t\tfor(uint i=0; i < info.length; i++) {\r\n\t\t\t\tPersonalInfo memory inf = info[i];\r\n\t\t\t\temit personalInfoEvent(inf.picUrl, inf.name, inf.phone, inf.email, inf.dateOfBirth, inf.socialUrl, inf.location);\r\n\t\t\t}\r\n\t\t}\r\n\t}\r\n\r\n\tfunction triggerGetEducationByEvent(address accountId) public {\r\n\t\tif(mResumeModels[accountId].isNotEmpty) {\r\n\t\t\tEducation[] memory eduList;\r\n\t\t\teduList = mResumeModels[accountId].educations;\r\n\r\n\t\t\tfor(uint i=0; i < eduList.length; i++) {\r\n\t\t\t\tEducation memory edu = eduList[i];\r\n\t\t\t\temit educationEvent(edu.eduStartDate, edu.eduEndDate, edu.institute, edu.degree, edu.faculty, edu.major, edu.gpa, eduList.length, i);\r\n\t\t\t}\r\n\t\t}\r\n\t}\r\n\t\r\n\tfunction triggerGetExperienceByEvent(address accountId) public {\r\n\t\tif(mResumeModels[accountId].isNotEmpty) {\r\n\t\t\tExperience[] memory expList;\r\n\t\t\texpList = mResumeModels[accountId].experiences;\r\n\r\n\t\t\tfor(uint i=0; i < expList.length; i++) {\r\n\t\t\t\tExperience memory exp = expList[i];\r\n\t\t\t\temit experienceEvent(exp.expStartDate, exp.expEndDate, exp.companyName, exp.position, expList.length, i);\r\n\t\t\t}\r\n\t\t}\r\n\t}\r\n\r\n\tfunction triggerGetSkillByEvent(address accountId) public {\r\n\t\tif(mResumeModels[accountId].isNotEmpty) {\r\n\t\t\tSkill[] memory skillList;\r\n\t\t\tskillList = mResumeModels[accountId].skills;\r\n\r\n\t\t\tfor(uint i=0; i < skillList.length; i++) {\r\n\t\t\t\tSkill memory skill = skillList[i];\r\n\t\t\t\temit skillEvent(skill.skillName, skill.level, skill.date, skillList.length, i);\r\n\t\t\t}\r\n\t\t}\r\n\t}\r\n}",
  "sourcePath": "C:\\Users\\davej\\Desktop\\workspace\\TestCapstone\\contracts\\ResumeContract.sol",
  "compiler": {
    "name": "solc",
    "version": "0.8.13+commit.abaa5c0e.Emscripten.clang"
  },
  "schemaVersion": "3.4.7",
  "updatedAt": "2022-05-13T09:01:42.313Z",
  "networkType": "ethereum",
  "devdoc": {
    "kind": "dev",
    "methods": {},
    "version": 1
  },
  "userdoc": {
    "kind": "user",
    "methods": {},
    "version": 1
  }
}