{
  "contractName": "ResumeContract",
  "abi": [
    {
      "inputs": [],
      "stateMutability": "nonpayable",
      "type": "constructor"
    },
    {
      "inputs": [
        {
          "internalType": "uint256",
          "name": "",
          "type": "uint256"
        }
      ],
      "name": "registeredArray",
      "outputs": [
        {
          "internalType": "address",
          "name": "",
          "type": "address"
        }
      ],
      "stateMutability": "view",
      "type": "function",
      "constant": true
    },
    {
      "inputs": [],
      "name": "resumeCount",
      "outputs": [
        {
          "internalType": "uint256",
          "name": "",
          "type": "uint256"
        }
      ],
      "stateMutability": "view",
      "type": "function",
      "constant": true
    },
    {
      "inputs": [],
      "name": "getUsers",
      "outputs": [
        {
          "internalType": "address[]",
          "name": "",
          "type": "address[]"
        }
      ],
      "stateMutability": "view",
      "type": "function",
      "constant": true
    },
    {
      "inputs": [
        {
          "components": [
            {
              "internalType": "bytes32",
              "name": "picUrl",
              "type": "bytes32"
            },
            {
              "internalType": "bytes32",
              "name": "name",
              "type": "bytes32"
            },
            {
              "internalType": "bytes32",
              "name": "phone",
              "type": "bytes32"
            },
            {
              "internalType": "bytes32",
              "name": "email",
              "type": "bytes32"
            },
            {
              "internalType": "bytes32",
              "name": "dateOfBirth",
              "type": "bytes32"
            },
            {
              "internalType": "bytes32",
              "name": "socialUrl",
              "type": "bytes32"
            },
            {
              "internalType": "bytes32",
              "name": "location",
              "type": "bytes32"
            }
          ],
          "internalType": "struct ResumeContract.PersonalInfo",
          "name": "inf",
          "type": "tuple"
        },
        {
          "components": [
            {
              "internalType": "bytes32",
              "name": "expStartDate",
              "type": "bytes32"
            },
            {
              "internalType": "bytes32",
              "name": "expEndDate",
              "type": "bytes32"
            },
            {
              "internalType": "bytes32",
              "name": "companyName",
              "type": "bytes32"
            },
            {
              "internalType": "bytes32",
              "name": "position",
              "type": "bytes32"
            },
            {
              "internalType": "bool",
              "name": "isNotEmpty",
              "type": "bool"
            }
          ],
          "internalType": "struct ResumeContract.Experience",
          "name": "exp",
          "type": "tuple"
        },
        {
          "components": [
            {
              "internalType": "bytes32",
              "name": "eduStartDate",
              "type": "bytes32"
            },
            {
              "internalType": "bytes32",
              "name": "eduEndDate",
              "type": "bytes32"
            },
            {
              "internalType": "bytes32",
              "name": "institute",
              "type": "bytes32"
            },
            {
              "internalType": "bytes32",
              "name": "degree",
              "type": "bytes32"
            },
            {
              "internalType": "bytes32",
              "name": "faculty",
              "type": "bytes32"
            },
            {
              "internalType": "bytes32",
              "name": "major",
              "type": "bytes32"
            },
            {
              "internalType": "bytes32",
              "name": "gpa",
              "type": "bytes32"
            },
            {
              "internalType": "bool",
              "name": "isNotEmpty",
              "type": "bool"
            }
          ],
          "internalType": "struct ResumeContract.Education",
          "name": "edu",
          "type": "tuple"
        },
        {
          "components": [
            {
              "internalType": "bytes32",
              "name": "skillName",
              "type": "bytes32"
            },
            {
              "internalType": "bytes32",
              "name": "level",
              "type": "bytes32"
            },
            {
              "internalType": "bytes32",
              "name": "date",
              "type": "bytes32"
            },
            {
              "internalType": "bytes32",
              "name": "resumeTitle",
              "type": "bytes32"
            },
            {
              "internalType": "bytes32",
              "name": "summary",
              "type": "bytes32"
            },
            {
              "internalType": "bytes32",
              "name": "motive",
              "type": "bytes32"
            },
            {
              "internalType": "bool",
              "name": "isNotEmpty",
              "type": "bool"
            }
          ],
          "internalType": "struct ResumeContract.Skill",
          "name": "ski",
          "type": "tuple"
        }
      ],
      "name": "add",
      "outputs": [
        {
          "internalType": "bool",
          "name": "",
          "type": "bool"
        }
      ],
      "stateMutability": "nonpayable",
      "type": "function"
    },
    {
      "inputs": [
        {
          "components": [
            {
              "internalType": "bytes32",
              "name": "picUrl",
              "type": "bytes32"
            },
            {
              "internalType": "bytes32",
              "name": "name",
              "type": "bytes32"
            },
            {
              "internalType": "bytes32",
              "name": "phone",
              "type": "bytes32"
            },
            {
              "internalType": "bytes32",
              "name": "email",
              "type": "bytes32"
            },
            {
              "internalType": "bytes32",
              "name": "dateOfBirth",
              "type": "bytes32"
            },
            {
              "internalType": "bytes32",
              "name": "socialUrl",
              "type": "bytes32"
            },
            {
              "internalType": "bytes32",
              "name": "location",
              "type": "bytes32"
            }
          ],
          "internalType": "struct ResumeContract.PersonalInfo",
          "name": "inf",
          "type": "tuple"
        },
        {
          "components": [
            {
              "internalType": "bytes32",
              "name": "expStartDate",
              "type": "bytes32"
            },
            {
              "internalType": "bytes32",
              "name": "expEndDate",
              "type": "bytes32"
            },
            {
              "internalType": "bytes32",
              "name": "companyName",
              "type": "bytes32"
            },
            {
              "internalType": "bytes32",
              "name": "position",
              "type": "bytes32"
            },
            {
              "internalType": "bool",
              "name": "isNotEmpty",
              "type": "bool"
            }
          ],
          "internalType": "struct ResumeContract.Experience",
          "name": "exp",
          "type": "tuple"
        },
        {
          "components": [
            {
              "internalType": "bytes32",
              "name": "eduStartDate",
              "type": "bytes32"
            },
            {
              "internalType": "bytes32",
              "name": "eduEndDate",
              "type": "bytes32"
            },
            {
              "internalType": "bytes32",
              "name": "institute",
              "type": "bytes32"
            },
            {
              "internalType": "bytes32",
              "name": "degree",
              "type": "bytes32"
            },
            {
              "internalType": "bytes32",
              "name": "faculty",
              "type": "bytes32"
            },
            {
              "internalType": "bytes32",
              "name": "major",
              "type": "bytes32"
            },
            {
              "internalType": "bytes32",
              "name": "gpa",
              "type": "bytes32"
            },
            {
              "internalType": "bool",
              "name": "isNotEmpty",
              "type": "bool"
            }
          ],
          "internalType": "struct ResumeContract.Education",
          "name": "edu",
          "type": "tuple"
        },
        {
          "components": [
            {
              "internalType": "bytes32",
              "name": "skillName",
              "type": "bytes32"
            },
            {
              "internalType": "bytes32",
              "name": "level",
              "type": "bytes32"
            },
            {
              "internalType": "bytes32",
              "name": "date",
              "type": "bytes32"
            },
            {
              "internalType": "bytes32",
              "name": "resumeTitle",
              "type": "bytes32"
            },
            {
              "internalType": "bytes32",
              "name": "summary",
              "type": "bytes32"
            },
            {
              "internalType": "bytes32",
              "name": "motive",
              "type": "bytes32"
            },
            {
              "internalType": "bool",
              "name": "isNotEmpty",
              "type": "bool"
            }
          ],
          "internalType": "struct ResumeContract.Skill",
          "name": "ski",
          "type": "tuple"
        },
        {
          "internalType": "uint256",
          "name": "index",
          "type": "uint256"
        }
      ],
      "name": "update",
      "outputs": [
        {
          "internalType": "bool",
          "name": "",
          "type": "bool"
        }
      ],
      "stateMutability": "nonpayable",
      "type": "function"
    },
    {
      "inputs": [
        {
          "internalType": "bytes32",
          "name": "picUrl",
          "type": "bytes32"
        },
        {
          "internalType": "bytes32",
          "name": "name",
          "type": "bytes32"
        },
        {
          "internalType": "bytes32",
          "name": "phone",
          "type": "bytes32"
        },
        {
          "internalType": "bytes32",
          "name": "email",
          "type": "bytes32"
        },
        {
          "internalType": "bytes32",
          "name": "dateOfBirth",
          "type": "bytes32"
        },
        {
          "internalType": "bytes32",
          "name": "socialUrl",
          "type": "bytes32"
        },
        {
          "internalType": "bytes32",
          "name": "location",
          "type": "bytes32"
        },
        {
          "internalType": "uint256",
          "name": "index",
          "type": "uint256"
        }
      ],
      "name": "updatePersonalInfo",
      "outputs": [
        {
          "internalType": "bool",
          "name": "",
          "type": "bool"
        }
      ],
      "stateMutability": "nonpayable",
      "type": "function"
    },
    {
      "inputs": [
        {
          "internalType": "bytes32",
          "name": "startDate",
          "type": "bytes32"
        },
        {
          "internalType": "bytes32",
          "name": "endDate",
          "type": "bytes32"
        },
        {
          "internalType": "bytes32",
          "name": "institute",
          "type": "bytes32"
        },
        {
          "internalType": "bytes32",
          "name": "degree",
          "type": "bytes32"
        },
        {
          "internalType": "bytes32",
          "name": "faculty",
          "type": "bytes32"
        },
        {
          "internalType": "bytes32",
          "name": "major",
          "type": "bytes32"
        },
        {
          "internalType": "bytes32",
          "name": "gpa",
          "type": "bytes32"
        },
        {
          "internalType": "uint256",
          "name": "index",
          "type": "uint256"
        }
      ],
      "name": "updateEducation",
      "outputs": [
        {
          "internalType": "bool",
          "name": "",
          "type": "bool"
        }
      ],
      "stateMutability": "nonpayable",
      "type": "function"
    },
    {
      "inputs": [
        {
          "internalType": "bytes32",
          "name": "startDate",
          "type": "bytes32"
        },
        {
          "internalType": "bytes32",
          "name": "endDate",
          "type": "bytes32"
        },
        {
          "internalType": "bytes32",
          "name": "companyName",
          "type": "bytes32"
        },
        {
          "internalType": "bytes32",
          "name": "position",
          "type": "bytes32"
        },
        {
          "internalType": "uint256",
          "name": "index",
          "type": "uint256"
        }
      ],
      "name": "updateExperience",
      "outputs": [
        {
          "internalType": "bool",
          "name": "",
          "type": "bool"
        }
      ],
      "stateMutability": "nonpayable",
      "type": "function"
    },
    {
      "inputs": [
        {
          "internalType": "bytes32",
          "name": "skill",
          "type": "bytes32"
        },
        {
          "internalType": "bytes32",
          "name": "level",
          "type": "bytes32"
        },
        {
          "internalType": "bytes32",
          "name": "date",
          "type": "bytes32"
        },
        {
          "internalType": "uint256",
          "name": "index",
          "type": "uint256"
        },
        {
          "internalType": "bytes32",
          "name": "resumeTitle",
          "type": "bytes32"
        },
        {
          "internalType": "bytes32",
          "name": "summary",
          "type": "bytes32"
        },
        {
          "internalType": "bytes32",
          "name": "motive",
          "type": "bytes32"
        }
      ],
      "name": "updateSkill",
      "outputs": [
        {
          "internalType": "bool",
          "name": "",
          "type": "bool"
        }
      ],
      "stateMutability": "nonpayable",
      "type": "function"
    },
    {
      "inputs": [],
      "name": "getPersonalInfo",
      "outputs": [
        {
          "components": [
            {
              "internalType": "bytes32",
              "name": "picUrl",
              "type": "bytes32"
            },
            {
              "internalType": "bytes32",
              "name": "name",
              "type": "bytes32"
            },
            {
              "internalType": "bytes32",
              "name": "phone",
              "type": "bytes32"
            },
            {
              "internalType": "bytes32",
              "name": "email",
              "type": "bytes32"
            },
            {
              "internalType": "bytes32",
              "name": "dateOfBirth",
              "type": "bytes32"
            },
            {
              "internalType": "bytes32",
              "name": "socialUrl",
              "type": "bytes32"
            },
            {
              "internalType": "bytes32",
              "name": "location",
              "type": "bytes32"
            }
          ],
          "internalType": "struct ResumeContract.PersonalInfo[]",
          "name": "",
          "type": "tuple[]"
        }
      ],
      "stateMutability": "view",
      "type": "function",
      "constant": true
    },
    {
      "inputs": [],
      "name": "getEducation",
      "outputs": [
        {
          "components": [
            {
              "internalType": "bytes32",
              "name": "eduStartDate",
              "type": "bytes32"
            },
            {
              "internalType": "bytes32",
              "name": "eduEndDate",
              "type": "bytes32"
            },
            {
              "internalType": "bytes32",
              "name": "institute",
              "type": "bytes32"
            },
            {
              "internalType": "bytes32",
              "name": "degree",
              "type": "bytes32"
            },
            {
              "internalType": "bytes32",
              "name": "faculty",
              "type": "bytes32"
            },
            {
              "internalType": "bytes32",
              "name": "major",
              "type": "bytes32"
            },
            {
              "internalType": "bytes32",
              "name": "gpa",
              "type": "bytes32"
            },
            {
              "internalType": "bool",
              "name": "isNotEmpty",
              "type": "bool"
            }
          ],
          "internalType": "struct ResumeContract.Education[]",
          "name": "",
          "type": "tuple[]"
        }
      ],
      "stateMutability": "view",
      "type": "function",
      "constant": true
    },
    {
      "inputs": [],
      "name": "getExperience",
      "outputs": [
        {
          "components": [
            {
              "internalType": "bytes32",
              "name": "expStartDate",
              "type": "bytes32"
            },
            {
              "internalType": "bytes32",
              "name": "expEndDate",
              "type": "bytes32"
            },
            {
              "internalType": "bytes32",
              "name": "companyName",
              "type": "bytes32"
            },
            {
              "internalType": "bytes32",
              "name": "position",
              "type": "bytes32"
            },
            {
              "internalType": "bool",
              "name": "isNotEmpty",
              "type": "bool"
            }
          ],
          "internalType": "struct ResumeContract.Experience[]",
          "name": "",
          "type": "tuple[]"
        }
      ],
      "stateMutability": "view",
      "type": "function",
      "constant": true
    },
    {
      "inputs": [],
      "name": "getSkill",
      "outputs": [
        {
          "components": [
            {
              "internalType": "bytes32",
              "name": "skillName",
              "type": "bytes32"
            },
            {
              "internalType": "bytes32",
              "name": "level",
              "type": "bytes32"
            },
            {
              "internalType": "bytes32",
              "name": "date",
              "type": "bytes32"
            },
            {
              "internalType": "bytes32",
              "name": "resumeTitle",
              "type": "bytes32"
            },
            {
              "internalType": "bytes32",
              "name": "summary",
              "type": "bytes32"
            },
            {
              "internalType": "bytes32",
              "name": "motive",
              "type": "bytes32"
            },
            {
              "internalType": "bool",
              "name": "isNotEmpty",
              "type": "bool"
            }
          ],
          "internalType": "struct ResumeContract.Skill[]",
          "name": "",
          "type": "tuple[]"
        }
      ],
      "stateMutability": "view",
      "type": "function",
      "constant": true
    },
    {
      "inputs": [],
      "name": "getAllPersonalInfo",
      "outputs": [
        {
          "components": [
            {
              "internalType": "bytes32",
              "name": "picUrl",
              "type": "bytes32"
            },
            {
              "internalType": "bytes32",
              "name": "name",
              "type": "bytes32"
            },
            {
              "internalType": "bytes32",
              "name": "phone",
              "type": "bytes32"
            },
            {
              "internalType": "bytes32",
              "name": "email",
              "type": "bytes32"
            },
            {
              "internalType": "bytes32",
              "name": "dateOfBirth",
              "type": "bytes32"
            },
            {
              "internalType": "bytes32",
              "name": "socialUrl",
              "type": "bytes32"
            },
            {
              "internalType": "bytes32",
              "name": "location",
              "type": "bytes32"
            }
          ],
          "internalType": "struct ResumeContract.PersonalInfo[][]",
          "name": "",
          "type": "tuple[][]"
        }
      ],
      "stateMutability": "view",
      "type": "function",
      "constant": true
    },
    {
      "inputs": [],
      "name": "getAllEducation",
      "outputs": [
        {
          "components": [
            {
              "internalType": "bytes32",
              "name": "eduStartDate",
              "type": "bytes32"
            },
            {
              "internalType": "bytes32",
              "name": "eduEndDate",
              "type": "bytes32"
            },
            {
              "internalType": "bytes32",
              "name": "institute",
              "type": "bytes32"
            },
            {
              "internalType": "bytes32",
              "name": "degree",
              "type": "bytes32"
            },
            {
              "internalType": "bytes32",
              "name": "faculty",
              "type": "bytes32"
            },
            {
              "internalType": "bytes32",
              "name": "major",
              "type": "bytes32"
            },
            {
              "internalType": "bytes32",
              "name": "gpa",
              "type": "bytes32"
            },
            {
              "internalType": "bool",
              "name": "isNotEmpty",
              "type": "bool"
            }
          ],
          "internalType": "struct ResumeContract.Education[][]",
          "name": "",
          "type": "tuple[][]"
        }
      ],
      "stateMutability": "view",
      "type": "function",
      "constant": true
    },
    {
      "inputs": [],
      "name": "getAllExperience",
      "outputs": [
        {
          "components": [
            {
              "internalType": "bytes32",
              "name": "expStartDate",
              "type": "bytes32"
            },
            {
              "internalType": "bytes32",
              "name": "expEndDate",
              "type": "bytes32"
            },
            {
              "internalType": "bytes32",
              "name": "companyName",
              "type": "bytes32"
            },
            {
              "internalType": "bytes32",
              "name": "position",
              "type": "bytes32"
            },
            {
              "internalType": "bool",
              "name": "isNotEmpty",
              "type": "bool"
            }
          ],
          "internalType": "struct ResumeContract.Experience[][]",
          "name": "",
          "type": "tuple[][]"
        }
      ],
      "stateMutability": "view",
      "type": "function",
      "constant": true
    },
    {
      "inputs": [],
      "name": "getAllSkill",
      "outputs": [
        {
          "components": [
            {
              "internalType": "bytes32",
              "name": "skillName",
              "type": "bytes32"
            },
            {
              "internalType": "bytes32",
              "name": "level",
              "type": "bytes32"
            },
            {
              "internalType": "bytes32",
              "name": "date",
              "type": "bytes32"
            },
            {
              "internalType": "bytes32",
              "name": "resumeTitle",
              "type": "bytes32"
            },
            {
              "internalType": "bytes32",
              "name": "summary",
              "type": "bytes32"
            },
            {
              "internalType": "bytes32",
              "name": "motive",
              "type": "bytes32"
            },
            {
              "internalType": "bool",
              "name": "isNotEmpty",
              "type": "bool"
            }
          ],
          "internalType": "struct ResumeContract.Skill[][]",
          "name": "",
          "type": "tuple[][]"
        }
      ],
      "stateMutability": "view",
      "type": "function",
      "constant": true
    },
    {
      "inputs": [
        {
          "internalType": "uint256",
          "name": "index",
          "type": "uint256"
        }
      ],
      "name": "remove",
      "outputs": [
        {
          "internalType": "bool",
          "name": "",
          "type": "bool"
        }
      ],
      "stateMutability": "nonpayable",
      "type": "function"
    }
  ],
  "bytecode": "0x6080604052600060045534801561001557600080fd5b50336000806101000a81548173ffffffffffffffffffffffffffffffffffffffff021916908373ffffffffffffffffffffffffffffffffffffffff1602179055506139da806100656000396000f3fe608060405234801561001057600080fd5b50600436106101155760003560e01c8063a6a5245c116100a2578063d31025d211610071578063d31025d2146102fa578063d40afcb11461032a578063d4e4fffd1461035a578063f317868514610378578063f40cf84d146103a857610115565b8063a6a5245c1461025e578063b07817651461028e578063b08026ea146102be578063cdb986cc146102dc57610115565b80631c41e2db116100e95780631c41e2db146101b657806330b759dd146101d457806347865a08146101f25780634cc822151461021057806381f539ff1461024057610115565b8062ce8e3e1461011a578063162c97cd14610138578063189e659e146101685780631914cb0d14610186575b600080fd5b6101226103c6565b60405161012f91906125bc565b60405180910390f35b610152600480360381019061014d9190612659565b610454565b60405161015f919061272a565b60405180910390f35b6101706105cb565b60405161017d91906128a0565b60405180910390f35b6101a0600480360381019061019b9190612c3d565b6106c1565b6040516101ad919061272a565b60405180910390f35b6101be610b50565b6040516101cb9190612df9565b60405180910390f35b6101dc610c51565b6040516101e99190612e2a565b60405180910390f35b6101fa610c57565b6040516102079190613044565b60405180910390f35b61022a60048036038101906102259190613066565b610dbf565b604051610237919061272a565b60405180910390f35b610248611616565b6040516102559190613102565b60405180910390f35b61027860048036038101906102739190613124565b6116fb565b604051610285919061272a565b60405180910390f35b6102a860048036038101906102a391906131c6565b611860565b6040516102b5919061272a565b60405180910390f35b6102c6611cb9565b6040516102d39190613376565b60405180910390f35b6102e4611e32565b6040516102f191906134af565b60405180910390f35b610314600480360381019061030f91906134d1565b611f14565b604051610321919061272a565b60405180910390f35b610344600480360381019061033f9190613066565b612057565b604051610351919061355b565b60405180910390f35b610362612096565b60405161036f91906136a7565b60405180910390f35b610392600480360381019061038d9190612659565b61221a565b60405161039f919061272a565b60405180910390f35b6103b0612367565b6040516103bd91906137fa565b60405180910390f35b6060600380548060200260200160405190810160405280929190818152602001828054801561044a57602002820191906000526020600020905b8160009054906101000a900473ffffffffffffffffffffffffffffffffffffffff1673ffffffffffffffffffffffffffffffffffffffff1681526020019060010190808311610400575b5050505050905090565b600081600160003373ffffffffffffffffffffffffffffffffffffffff1673ffffffffffffffffffffffffffffffffffffffff1681526020019081526020016000206002018054905011156105ba5760006040518061010001604052808b81526020018a815260200189815260200188815260200187815260200186815260200185815260200160011515815250905080600160003373ffffffffffffffffffffffffffffffffffffffff1673ffffffffffffffffffffffffffffffffffffffff16815260200190815260200160002060020184815481106105395761053861381c565b5b9060005260206000209060080201600082015181600001556020820151816001015560408201518160020155606082015181600301556080820151816004015560a0820151816005015560c0820151816006015560e08201518160070160006101000a81548160ff02191690831515021790555090505060019150506105bf565b600090505b98975050505050505050565b6060600160003373ffffffffffffffffffffffffffffffffffffffff1673ffffffffffffffffffffffffffffffffffffffff168152602001908152602001600020600301805480602002602001604051908101604052809291908181526020016000905b828210156106b857838290600052602060002090600702016040518060e00160405290816000820154815260200160018201548152602001600282015481526020016003820154815260200160048201548152602001600582015481526020016006820160009054906101000a900460ff1615151515815250508152602001906001019061062f565b50505050905090565b600080859050600085905060008590506000859050600160003373ffffffffffffffffffffffffffffffffffffffff1673ffffffffffffffffffffffffffffffffffffffff168152602001908152602001600020600001849080600181540180825580915050600190039060005260206000209060070201600090919091909150600082015181600001556020820151816001015560408201518160020155606082015181600301556080820151816004015560a0820151816005015560c082015181600601555050600160003373ffffffffffffffffffffffffffffffffffffffff1673ffffffffffffffffffffffffffffffffffffffff1681526020019081526020016000206001018390806001815401808255809150506001900390600052602060002090600502016000909190919091506000820151816000015560208201518160010155604082015181600201556060820151816003015560808201518160040160006101000a81548160ff0219169083151502179055505050600160003373ffffffffffffffffffffffffffffffffffffffff1673ffffffffffffffffffffffffffffffffffffffff168152602001908152602001600020600201829080600181540180825580915050600190039060005260206000209060080201600090919091909150600082015181600001556020820151816001015560408201518160020155606082015181600301556080820151816004015560a0820151816005015560c0820151816006015560e08201518160070160006101000a81548160ff0219169083151502179055505050600160003373ffffffffffffffffffffffffffffffffffffffff1673ffffffffffffffffffffffffffffffffffffffff168152602001908152602001600020600301819080600181540180825580915050600190039060005260206000209060070201600090919091909150600082015181600001556020820151816001015560408201518160020155606082015181600301556080820151816004015560a0820151816005015560c08201518160060160006101000a81548160ff021916908315150217905550505060018060003373ffffffffffffffffffffffffffffffffffffffff1673ffffffffffffffffffffffffffffffffffffffff16815260200190815260200160002060040160006101000a81548160ff0219169083151502179055506001600260003373ffffffffffffffffffffffffffffffffffffffff1673ffffffffffffffffffffffffffffffffffffffff1681526020019081526020016000205414610b28576001600260003373ffffffffffffffffffffffffffffffffffffffff1673ffffffffffffffffffffffffffffffffffffffff168152602001908152602001600020819055506003339080600181540180825580915050600190039060005260206000200160009091909190916101000a81548173ffffffffffffffffffffffffffffffffffffffff021916908373ffffffffffffffffffffffffffffffffffffffff1602179055505b60046000815480929190610b3b9061387a565b91905055506001945050505050949350505050565b6060600160003373ffffffffffffffffffffffffffffffffffffffff1673ffffffffffffffffffffffffffffffffffffffff168152602001908152602001600020600201805480602002602001604051908101604052809291908181526020016000905b82821015610c48578382906000526020600020906008020160405180610100016040529081600082015481526020016001820154815260200160028201548152602001600382015481526020016004820154815260200160058201548152602001600682015481526020016007820160009054906101000a900460ff16151515158152505081526020019060010190610bb4565b50505050905090565b60045481565b60608060005b600380549050811015610db7576001600060038381548110610c8257610c8161381c565b5b9060005260206000200160009054906101000a900473ffffffffffffffffffffffffffffffffffffffff1673ffffffffffffffffffffffffffffffffffffffff1673ffffffffffffffffffffffffffffffffffffffff168152602001908152602001600020600001805480602002602001604051908101604052809291908181526020016000905b82821015610d8257838290600052602060002090600702016040518060e001604052908160008201548152602001600182015481526020016002820154815260200160038201548152602001600482015481526020016005820154815260200160068201548152505081526020019060010190610d0a565b50505050828281518110610d9957610d9861381c565b5b60200260200101819052508080610daf9061387a565b915050610c5d565b508091505090565b600081600160003373ffffffffffffffffffffffffffffffffffffffff1673ffffffffffffffffffffffffffffffffffffffff16815260200190815260200160002060000180549050111561160c5760008290505b60018060003373ffffffffffffffffffffffffffffffffffffffff1673ffffffffffffffffffffffffffffffffffffffff16815260200190815260200160002060000180549050610e6591906138c2565b81101561134257600160003373ffffffffffffffffffffffffffffffffffffffff1673ffffffffffffffffffffffffffffffffffffffff168152602001908152602001600020600001600182610ebb91906138f6565b81548110610ecc57610ecb61381c565b5b9060005260206000209060070201600160003373ffffffffffffffffffffffffffffffffffffffff1673ffffffffffffffffffffffffffffffffffffffff1681526020019081526020016000206000018281548110610f2e57610f2d61381c565b5b906000526020600020906007020160008201548160000155600182015481600101556002820154816002015560038201548160030155600482015481600401556005820154816005015560068201548160060155905050600160003373ffffffffffffffffffffffffffffffffffffffff1673ffffffffffffffffffffffffffffffffffffffff168152602001908152602001600020600201600182610fd491906138f6565b81548110610fe557610fe461381c565b5b9060005260206000209060080201600160003373ffffffffffffffffffffffffffffffffffffffff1673ffffffffffffffffffffffffffffffffffffffff16815260200190815260200160002060020182815481106110475761104661381c565b5b9060005260206000209060080201600082015481600001556001820154816001015560028201548160020155600382015481600301556004820154816004015560058201548160050155600682015481600601556007820160009054906101000a900460ff168160070160006101000a81548160ff021916908315150217905550905050600160003373ffffffffffffffffffffffffffffffffffffffff1673ffffffffffffffffffffffffffffffffffffffff16815260200190815260200160002060010160018261111a91906138f6565b8154811061112b5761112a61381c565b5b9060005260206000209060050201600160003373ffffffffffffffffffffffffffffffffffffffff1673ffffffffffffffffffffffffffffffffffffffff168152602001908152602001600020600101828154811061118d5761118c61381c565b5b9060005260206000209060050201600082015481600001556001820154816001015560028201548160020155600382015481600301556004820160009054906101000a900460ff168160040160006101000a81548160ff021916908315150217905550905050600160003373ffffffffffffffffffffffffffffffffffffffff1673ffffffffffffffffffffffffffffffffffffffff16815260200190815260200160002060030160018261124291906138f6565b815481106112535761125261381c565b5b9060005260206000209060070201600160003373ffffffffffffffffffffffffffffffffffffffff1673ffffffffffffffffffffffffffffffffffffffff16815260200190815260200160002060030182815481106112b5576112b461381c565b5b90600052602060002090600702016000820154816000015560018201548160010155600282015481600201556003820154816003015560048201548160040155600582015481600501556006820160009054906101000a900460ff168160060160006101000a81548160ff021916908315150217905550905050808061133a9061387a565b915050610e14565b50600160003373ffffffffffffffffffffffffffffffffffffffff1673ffffffffffffffffffffffffffffffffffffffff1681526020019081526020016000206000018054806113955761139461394c565b5b600190038181906000526020600020906007020160008082016000905560018201600090556002820160009055600382016000905560048201600090556005820160009055600682016000905550509055600160003373ffffffffffffffffffffffffffffffffffffffff1673ffffffffffffffffffffffffffffffffffffffff1681526020019081526020016000206002018054806114385761143761394c565b5b60019003818190600052602060002090600802016000808201600090556001820160009055600282016000905560038201600090556004820160009055600582016000905560068201600090556007820160006101000a81549060ff021916905550509055600160003373ffffffffffffffffffffffffffffffffffffffff1673ffffffffffffffffffffffffffffffffffffffff1681526020019081526020016000206001018054806114ef576114ee61394c565b5b60019003818190600052602060002090600502016000808201600090556001820160009055600282016000905560038201600090556004820160006101000a81549060ff021916905550509055600160003373ffffffffffffffffffffffffffffffffffffffff1673ffffffffffffffffffffffffffffffffffffffff16815260200190815260200160002060030180548061158e5761158d61394c565b5b6001900381819060005260206000209060070201600080820160009055600182016000905560028201600090556003820160009055600482016000905560058201600090556006820160006101000a81549060ff021916905550509055600460008154809291906115fe9061397b565b919050555060019050611611565b600090505b919050565b6060600160003373ffffffffffffffffffffffffffffffffffffffff1673ffffffffffffffffffffffffffffffffffffffff168152602001908152602001600020600001805480602002602001604051908101604052809291908181526020016000905b828210156116f257838290600052602060002090600702016040518060e00160405290816000820154815260200160018201548152602001600282015481526020016003820154815260200160048201548152602001600582015481526020016006820154815250508152602001906001019061167a565b50505050905090565b600084600160003373ffffffffffffffffffffffffffffffffffffffff1673ffffffffffffffffffffffffffffffffffffffff1681526020019081526020016000206003018054905011156118505760006040518060e001604052808a815260200189815260200188815260200186815260200185815260200184815260200160011515815250905080600160003373ffffffffffffffffffffffffffffffffffffffff1673ffffffffffffffffffffffffffffffffffffffff16815260200190815260200160002060030187815481106117d9576117d861381c565b5b9060005260206000209060070201600082015181600001556020820151816001015560408201518160020155606082015181600301556080820151816004015560a0820151816005015560c08201518160060160006101000a81548160ff0219169083151502179055509050506001915050611855565b600090505b979650505050505050565b60008086905060008690506000869050600086905085600160003373ffffffffffffffffffffffffffffffffffffffff1673ffffffffffffffffffffffffffffffffffffffff1681526020019081526020016000206000018054905011801561190d575085600160003373ffffffffffffffffffffffffffffffffffffffff1673ffffffffffffffffffffffffffffffffffffffff16815260200190815260200160002060020180549050115b801561195d575085600160003373ffffffffffffffffffffffffffffffffffffffff1673ffffffffffffffffffffffffffffffffffffffff16815260200190815260200160002060010180549050115b80156119ad575085600160003373ffffffffffffffffffffffffffffffffffffffff1673ffffffffffffffffffffffffffffffffffffffff16815260200190815260200160002060030180549050115b15611ca75783600160003373ffffffffffffffffffffffffffffffffffffffff1673ffffffffffffffffffffffffffffffffffffffff1681526020019081526020016000206000018781548110611a0757611a0661381c565b5b9060005260206000209060070201600082015181600001556020820151816001015560408201518160020155606082015181600301556080820151816004015560a0820151816005015560c0820151816006015590505081600160003373ffffffffffffffffffffffffffffffffffffffff1673ffffffffffffffffffffffffffffffffffffffff1681526020019081526020016000206002018781548110611ab357611ab261381c565b5b9060005260206000209060080201600082015181600001556020820151816001015560408201518160020155606082015181600301556080820151816004015560a0820151816005015560c0820151816006015560e08201518160070160006101000a81548160ff02191690831515021790555090505082600160003373ffffffffffffffffffffffffffffffffffffffff1673ffffffffffffffffffffffffffffffffffffffff1681526020019081526020016000206001018781548110611b7f57611b7e61381c565b5b90600052602060002090600502016000820151816000015560208201518160010155604082015181600201556060820151816003015560808201518160040160006101000a81548160ff02191690831515021790555090505080600160003373ffffffffffffffffffffffffffffffffffffffff1673ffffffffffffffffffffffffffffffffffffffff1681526020019081526020016000206003018781548110611c2d57611c2c61381c565b5b9060005260206000209060070201600082015181600001556020820151816001015560408201518160020155606082015181600301556080820151816004015560a0820151816005015560c08201518160060160006101000a81548160ff0219169083151502179055509050506001945050505050611cb0565b60009450505050505b95945050505050565b60608060005b600380549050811015611e2a576001600060038381548110611ce457611ce361381c565b5b9060005260206000200160009054906101000a900473ffffffffffffffffffffffffffffffffffffffff1673ffffffffffffffffffffffffffffffffffffffff1673ffffffffffffffffffffffffffffffffffffffff168152602001908152602001600020600301805480602002602001604051908101604052809291908181526020016000905b82821015611df557838290600052602060002090600702016040518060e00160405290816000820154815260200160018201548152602001600282015481526020016003820154815260200160048201548152602001600582015481526020016006820160009054906101000a900460ff16151515158152505081526020019060010190611d6c565b50505050828281518110611e0c57611e0b61381c565b5b60200260200101819052508080611e229061387a565b915050611cbf565b508091505090565b6060600160003373ffffffffffffffffffffffffffffffffffffffff1673ffffffffffffffffffffffffffffffffffffffff168152602001908152602001600020600101805480602002602001604051908101604052809291908181526020016000905b82821015611f0b57838290600052602060002090600502016040518060a0016040529081600082015481526020016001820154815260200160028201548152602001600382015481526020016004820160009054906101000a900460ff16151515158152505081526020019060010190611e96565b50505050905090565b600081600160003373ffffffffffffffffffffffffffffffffffffffff1673ffffffffffffffffffffffffffffffffffffffff1681526020019081526020016000206001018054905011156120495760006040518060a0016040528088815260200187815260200186815260200185815260200160011515815250905080600160003373ffffffffffffffffffffffffffffffffffffffff1673ffffffffffffffffffffffffffffffffffffffff1681526020019081526020016000206001018481548110611fe657611fe561381c565b5b90600052602060002090600502016000820151816000015560208201518160010155604082015181600201556060820151816003015560808201518160040160006101000a81548160ff021916908315150217905550905050600191505061204e565b600090505b95945050505050565b6003818154811061206757600080fd5b906000526020600020016000915054906101000a900473ffffffffffffffffffffffffffffffffffffffff1681565b60608060005b6003805490508110156122125760016000600383815481106120c1576120c061381c565b5b9060005260206000200160009054906101000a900473ffffffffffffffffffffffffffffffffffffffff1673ffffffffffffffffffffffffffffffffffffffff1673ffffffffffffffffffffffffffffffffffffffff168152602001908152602001600020600201805480602002602001604051908101604052809291908181526020016000905b828210156121dd578382906000526020600020906008020160405180610100016040529081600082015481526020016001820154815260200160028201548152602001600382015481526020016004820154815260200160058201548152602001600682015481526020016007820160009054906101000a900460ff16151515158152505081526020019060010190612149565b505050508282815181106121f4576121f361381c565b5b6020026020010181905250808061220a9061387a565b91505061209c565b508091505090565b600081600160003373ffffffffffffffffffffffffffffffffffffffff1673ffffffffffffffffffffffffffffffffffffffff1681526020019081526020016000206000018054905011156123565760006040518060e001604052808b81526020018a815260200189815260200188815260200187815260200186815260200185815250905080600160003373ffffffffffffffffffffffffffffffffffffffff1673ffffffffffffffffffffffffffffffffffffffff16815260200190815260200160002060000184815481106122f5576122f461381c565b5b9060005260206000209060070201600082015181600001556020820151816001015560408201518160020155606082015181600301556080820151816004015560a0820151816005015560c08201518160060155905050600191505061235b565b600090505b98975050505050505050565b60608060005b6003805490508110156124c45760016000600383815481106123925761239161381c565b5b9060005260206000200160009054906101000a900473ffffffffffffffffffffffffffffffffffffffff1673ffffffffffffffffffffffffffffffffffffffff1673ffffffffffffffffffffffffffffffffffffffff168152602001908152602001600020600101805480602002602001604051908101604052809291908181526020016000905b8282101561248f57838290600052602060002090600502016040518060a0016040529081600082015481526020016001820154815260200160028201548152602001600382015481526020016004820160009054906101000a900460ff1615151515815250508152602001906001019061241a565b505050508282815181106124a6576124a561381c565b5b602002602001018190525080806124bc9061387a565b91505061236d565b508091505090565b600081519050919050565b600082825260208201905092915050565b6000819050602082019050919050565b600073ffffffffffffffffffffffffffffffffffffffff82169050919050565b6000612523826124f8565b9050919050565b61253381612518565b82525050565b6000612545838361252a565b60208301905092915050565b6000602082019050919050565b6000612569826124cc565b61257381856124d7565b935061257e836124e8565b8060005b838110156125af5781516125968882612539565b97506125a183612551565b925050600181019050612582565b5085935050505092915050565b600060208201905081810360008301526125d6818461255e565b905092915050565b6000604051905090565b600080fd5b6000819050919050565b612600816125ed565b811461260b57600080fd5b50565b60008135905061261d816125f7565b92915050565b6000819050919050565b61263681612623565b811461264157600080fd5b50565b6000813590506126538161262d565b92915050565b600080600080600080600080610100898b03121561267a576126796125e8565b5b60006126888b828c0161260e565b98505060206126998b828c0161260e565b97505060406126aa8b828c0161260e565b96505060606126bb8b828c0161260e565b95505060806126cc8b828c0161260e565b94505060a06126dd8b828c0161260e565b93505060c06126ee8b828c0161260e565b92505060e06126ff8b828c01612644565b9150509295985092959890939650565b60008115159050919050565b6127248161270f565b82525050565b600060208201905061273f600083018461271b565b92915050565b600081519050919050565b600082825260208201905092915050565b6000819050602082019050919050565b61277a816125ed565b82525050565b6127898161270f565b82525050565b60e0820160008201516127a56000850182612771565b5060208201516127b86020850182612771565b5060408201516127cb6040850182612771565b5060608201516127de6060850182612771565b5060808201516127f16080850182612771565b5060a082015161280460a0850182612771565b5060c082015161281760c0850182612780565b50505050565b6000612829838361278f565b60e08301905092915050565b6000602082019050919050565b600061284d82612745565b6128578185612750565b935061286283612761565b8060005b8381101561289357815161287a888261281d565b975061288583612835565b925050600181019050612866565b5085935050505092915050565b600060208201905081810360008301526128ba8184612842565b905092915050565b600080fd5b6000601f19601f8301169050919050565b7f4e487b7100000000000000000000000000000000000000000000000000000000600052604160045260246000fd5b612910826128c7565b810181811067ffffffffffffffff8211171561292f5761292e6128d8565b5b80604052505050565b60006129426125de565b905061294e8282612907565b919050565b600060e08284031215612969576129686128c2565b5b61297360e0612938565b905060006129838482850161260e565b60008301525060206129978482850161260e565b60208301525060406129ab8482850161260e565b60408301525060606129bf8482850161260e565b60608301525060806129d38482850161260e565b60808301525060a06129e78482850161260e565b60a08301525060c06129fb8482850161260e565b60c08301525092915050565b612a108161270f565b8114612a1b57600080fd5b50565b600081359050612a2d81612a07565b92915050565b600060a08284031215612a4957612a486128c2565b5b612a5360a0612938565b90506000612a638482850161260e565b6000830152506020612a778482850161260e565b6020830152506040612a8b8482850161260e565b6040830152506060612a9f8482850161260e565b6060830152506080612ab384828501612a1e565b60808301525092915050565b60006101008284031215612ad657612ad56128c2565b5b612ae1610100612938565b90506000612af18482850161260e565b6000830152506020612b058482850161260e565b6020830152506040612b198482850161260e565b6040830152506060612b2d8482850161260e565b6060830152506080612b418482850161260e565b60808301525060a0612b558482850161260e565b60a08301525060c0612b698482850161260e565b60c08301525060e0612b7d84828501612a1e565b60e08301525092915050565b600060e08284031215612b9f57612b9e6128c2565b5b612ba960e0612938565b90506000612bb98482850161260e565b6000830152506020612bcd8482850161260e565b6020830152506040612be18482850161260e565b6040830152506060612bf58482850161260e565b6060830152506080612c098482850161260e565b60808301525060a0612c1d8482850161260e565b60a08301525060c0612c3184828501612a1e565b60c08301525092915050565b6000806000806103608587031215612c5857612c576125e8565b5b6000612c6687828801612953565b94505060e0612c7787828801612a33565b935050610180612c8987828801612abf565b925050610280612c9b87828801612b89565b91505092959194509250565b600081519050919050565b600082825260208201905092915050565b6000819050602082019050919050565b61010082016000820151612cea6000850182612771565b506020820151612cfd6020850182612771565b506040820151612d106040850182612771565b506060820151612d236060850182612771565b506080820151612d366080850182612771565b5060a0820151612d4960a0850182612771565b5060c0820151612d5c60c0850182612771565b5060e0820151612d6f60e0850182612780565b50505050565b6000612d818383612cd3565b6101008301905092915050565b6000602082019050919050565b6000612da682612ca7565b612db08185612cb2565b9350612dbb83612cc3565b8060005b83811015612dec578151612dd38882612d75565b9750612dde83612d8e565b925050600181019050612dbf565b5085935050505092915050565b60006020820190508181036000830152612e138184612d9b565b905092915050565b612e2481612623565b82525050565b6000602082019050612e3f6000830184612e1b565b92915050565b600081519050919050565b600082825260208201905092915050565b6000819050602082019050919050565b600081519050919050565b600082825260208201905092915050565b6000819050602082019050919050565b60e082016000820151612eb36000850182612771565b506020820151612ec66020850182612771565b506040820151612ed96040850182612771565b506060820151612eec6060850182612771565b506080820151612eff6080850182612771565b5060a0820151612f1260a0850182612771565b5060c0820151612f2560c0850182612771565b50505050565b6000612f378383612e9d565b60e08301905092915050565b6000602082019050919050565b6000612f5b82612e71565b612f658185612e7c565b9350612f7083612e8d565b8060005b83811015612fa1578151612f888882612f2b565b9750612f9383612f43565b925050600181019050612f74565b5085935050505092915050565b6000612fba8383612f50565b905092915050565b6000602082019050919050565b6000612fda82612e45565b612fe48185612e50565b935083602082028501612ff685612e61565b8060005b8581101561303257848403895281516130138582612fae565b945061301e83612fc2565b925060208a01995050600181019050612ffa565b50829750879550505050505092915050565b6000602082019050818103600083015261305e8184612fcf565b905092915050565b60006020828403121561307c5761307b6125e8565b5b600061308a84828501612644565b91505092915050565b600082825260208201905092915050565b60006130af82612e71565b6130b98185613093565b93506130c483612e8d565b8060005b838110156130f55781516130dc8882612f2b565b97506130e783612f43565b9250506001810190506130c8565b5085935050505092915050565b6000602082019050818103600083015261311c81846130a4565b905092915050565b600080600080600080600060e0888a031215613143576131426125e8565b5b60006131518a828b0161260e565b97505060206131628a828b0161260e565b96505060406131738a828b0161260e565b95505060606131848a828b01612644565b94505060806131958a828b0161260e565b93505060a06131a68a828b0161260e565b92505060c06131b78a828b0161260e565b91505092959891949750929550565b600080600080600061038086880312156131e3576131e26125e8565b5b60006131f188828901612953565b95505060e061320288828901612a33565b94505061018061321488828901612abf565b93505061028061322688828901612b89565b92505061036061323888828901612644565b9150509295509295909350565b600081519050919050565b600082825260208201905092915050565b6000819050602082019050919050565b600082825260208201905092915050565b600061328d82612745565b6132978185613271565b93506132a283612761565b8060005b838110156132d35781516132ba888261281d565b97506132c583612835565b9250506001810190506132a6565b5085935050505092915050565b60006132ec8383613282565b905092915050565b6000602082019050919050565b600061330c82613245565b6133168185613250565b93508360208202850161332885613261565b8060005b85811015613364578484038952815161334585826132e0565b9450613350836132f4565b925060208a0199505060018101905061332c565b50829750879550505050505092915050565b600060208201905081810360008301526133908184613301565b905092915050565b600081519050919050565b600082825260208201905092915050565b6000819050602082019050919050565b60a0820160008201516133da6000850182612771565b5060208201516133ed6020850182612771565b5060408201516134006040850182612771565b5060608201516134136060850182612771565b5060808201516134266080850182612780565b50505050565b600061343883836133c4565b60a08301905092915050565b6000602082019050919050565b600061345c82613398565b61346681856133a3565b9350613471836133b4565b8060005b838110156134a2578151613489888261342c565b975061349483613444565b925050600181019050613475565b5085935050505092915050565b600060208201905081810360008301526134c98184613451565b905092915050565b600080600080600060a086880312156134ed576134ec6125e8565b5b60006134fb8882890161260e565b955050602061350c8882890161260e565b945050604061351d8882890161260e565b935050606061352e8882890161260e565b925050608061353f88828901612644565b9150509295509295909350565b61355581612518565b82525050565b6000602082019050613570600083018461354c565b92915050565b600081519050919050565b600082825260208201905092915050565b6000819050602082019050919050565b600082825260208201905092915050565b60006135be82612ca7565b6135c881856135a2565b93506135d383612cc3565b8060005b838110156136045781516135eb8882612d75565b97506135f683612d8e565b9250506001810190506135d7565b5085935050505092915050565b600061361d83836135b3565b905092915050565b6000602082019050919050565b600061363d82613576565b6136478185613581565b93508360208202850161365985613592565b8060005b8581101561369557848403895281516136768582613611565b945061368183613625565b925060208a0199505060018101905061365d565b50829750879550505050505092915050565b600060208201905081810360008301526136c18184613632565b905092915050565b600081519050919050565b600082825260208201905092915050565b6000819050602082019050919050565b600082825260208201905092915050565b600061371182613398565b61371b81856136f5565b9350613726836133b4565b8060005b8381101561375757815161373e888261342c565b975061374983613444565b92505060018101905061372a565b5085935050505092915050565b60006137708383613706565b905092915050565b6000602082019050919050565b6000613790826136c9565b61379a81856136d4565b9350836020820285016137ac856136e5565b8060005b858110156137e857848403895281516137c98582613764565b94506137d483613778565b925060208a019950506001810190506137b0565b50829750879550505050505092915050565b600060208201905081810360008301526138148184613785565b905092915050565b7f4e487b7100000000000000000000000000000000000000000000000000000000600052603260045260246000fd5b7f4e487b7100000000000000000000000000000000000000000000000000000000600052601160045260246000fd5b600061388582612623565b91507fffffffffffffffffffffffffffffffffffffffffffffffffffffffffffffffff82036138b7576138b661384b565b5b600182019050919050565b60006138cd82612623565b91506138d883612623565b9250828210156138eb576138ea61384b565b5b828203905092915050565b600061390182612623565b915061390c83612623565b9250827fffffffffffffffffffffffffffffffffffffffffffffffffffffffffffffffff038211156139415761394061384b565b5b828201905092915050565b7f4e487b7100000000000000000000000000000000000000000000000000000000600052603160045260246000fd5b600061398682612623565b9150600082036139995761399861384b565b5b60018203905091905056fea26469706673582212208f3791eecd634ae59dcc0c0aeda2055f4557bfd9a8be4e4e7442c08838ac2ca464736f6c634300080d0033",
  "immutableReferences": {},
  "source": "// SPDX-License-Identifier: MIT\r\n\r\npragma solidity ^0.8.13;\r\n\r\nimport \"./Ownable.sol\";\r\n\r\ncontract ResumeContract is Ownable {\r\n\r\n\t// Constructor\r\n\tconstructor() {}\r\n\r\n\t//  \r\n\tstruct PersonalInfo {\r\n\t\tbytes32 picUrl; // \r\n\t\tbytes32 name; // \r\n\t\tbytes32 phone; // \r\n\t\tbytes32 email; // \r\n\t\tbytes32 dateOfBirth; // \r\n\t\tbytes32 socialUrl; //  ,    Url\r\n\t\tbytes32 location; // \r\n\t}\r\n\r\n\t//    \r\n\tstruct Education {\r\n\t\tbytes32 eduStartDate; //  \r\n\t\tbytes32 eduEndDate; //  \r\n\t\tbytes32 institute; //  \r\n\t\tbytes32 degree; // \r\n\t\tbytes32 faculty; // \r\n\t\tbytes32 major; // \r\n\t\tbytes32 gpa; // \r\n\t\tbool isNotEmpty;\r\n\t}\r\n\r\n\tstruct Experience {\r\n\t\tbytes32 expStartDate; //  \r\n\t\tbytes32 expEndDate; //  \r\n\t\tbytes32 companyName; // \r\n\t\tbytes32 position; // \r\n\t\tbool isNotEmpty;\r\n\t}\r\n\r\n\t//     \r\n\tstruct Skill {\r\n\t\tbytes32 skillName; // , \r\n\t\tbytes32 level; //   ,  \r\n\t\tbytes32 date; //  \r\n\t\tbytes32 resumeTitle; //  \r\n\t\tbytes32 summary; //  \r\n\t\tbytes32 motive; //  \r\n\t\tbool isNotEmpty;\r\n\t}\r\n\r\n\r\n\tstruct ResumeModel {\r\n\t\tPersonalInfo[] personalInfos;\r\n\t\tExperience[] experiences;\r\n\t\tEducation[] educations;\r\n\t\tSkill[] skills;\r\n\t\tbool isNotEmpty;\r\n\t}\r\n\r\n\tmapping (address => ResumeModel) mResumeModels;\r\n\r\n\tmapping (address => uint) registerd;\r\n\taddress[] public registeredArray;\r\n\tuint public resumeCount = 0;\r\n\r\n\t//   \r\n\tfunction getUsers() public view returns (address[] memory){\r\n\t\treturn registeredArray;\r\n\t}\r\n\r\n\tfunction add(PersonalInfo memory inf, Experience memory exp, Education memory edu, Skill memory ski) public returns (bool) {\r\n\t\tPersonalInfo memory info = inf;\r\n\t\tExperience memory expr = exp;\r\n\t\tEducation memory educ = edu;\r\n\t\tSkill memory skil = ski;\r\n\t\t\r\n\t\tmResumeModels[msg.sender].personalInfos.push(info);\r\n\t\tmResumeModels[msg.sender].experiences.push(expr);\r\n\t\tmResumeModels[msg.sender].educations.push(educ);\r\n\t\tmResumeModels[msg.sender].skills.push(skil);\r\n\r\n\t\tmResumeModels[msg.sender].isNotEmpty = true;\r\n\r\n    \tif(registerd[msg.sender] != 1) {\r\n        \tregisterd[msg.sender] = 1;\r\n        \tregisteredArray.push(msg.sender); // push to the array\r\n\t\t}\r\n\t\tresumeCount++;\r\n\r\n\t\treturn true;\r\n\t}\r\n\r\n\t//   \r\n\tfunction update(PersonalInfo memory inf, Experience memory exp, Education memory edu, Skill memory ski, uint index) public returns (bool){\r\n\t\tPersonalInfo memory info = inf;\r\n\t\tExperience memory expr = exp;\r\n\t\tEducation memory educ = edu;\r\n\t\tSkill memory skil = ski;\r\n\t\tif(mResumeModels[msg.sender].personalInfos.length > index && mResumeModels[msg.sender].educations.length > index && mResumeModels[msg.sender].experiences.length > index && mResumeModels[msg.sender].skills.length > index) {\r\n\t\t\tmResumeModels[msg.sender].personalInfos[index] = info;\r\n\t\t\tmResumeModels[msg.sender].educations[index] = educ;\r\n\t\t\tmResumeModels[msg.sender].experiences[index] = expr;\r\n\t\t\tmResumeModels[msg.sender].skills[index] = skil;\r\n\t\t\treturn true;\r\n\t\t}\t\t\r\n\t\treturn false;\r\n\t}\r\n\tfunction updatePersonalInfo(bytes32 picUrl, bytes32 name, bytes32 phone, bytes32 email, bytes32 dateOfBirth, bytes32 socialUrl, bytes32 location, uint index) public returns (bool) {\r\n\t\tif(mResumeModels[msg.sender].personalInfos.length > index) {\r\n\t\t\tPersonalInfo memory info = PersonalInfo(picUrl, name, phone, email, dateOfBirth, socialUrl, location);\r\n\t\t\tmResumeModels[msg.sender].personalInfos[index] = info;\r\n\t\t\treturn true;\r\n\t\t}\r\n\t\treturn false;\r\n\t}\r\n\tfunction updateEducation(bytes32 startDate, bytes32 endDate, bytes32 institute, bytes32 degree, bytes32 faculty, bytes32 major, bytes32 gpa, uint index) public returns (bool) {\r\n\t\tif(mResumeModels[msg.sender].educations.length > index) {\r\n\t\t\tEducation memory edu = Education(startDate, endDate, institute, degree, faculty, major, gpa, true);\r\n\t\t\tmResumeModels[msg.sender].educations[index] = edu;\r\n\t\t\treturn true;\r\n\t\t}\r\n\t\treturn false;\r\n\t}\r\n\t\r\n\tfunction updateExperience(bytes32 startDate, bytes32 endDate, bytes32 companyName, bytes32 position, uint index) public returns (bool) {\r\n\t\tif(mResumeModels[msg.sender].experiences.length > index) {\r\n\t\t\tExperience memory exp = Experience(startDate, endDate, companyName, position, true);\r\n\t\t\tmResumeModels[msg.sender].experiences[index] = exp;\r\n\t\t\treturn true;\r\n\t\t}\r\n\t\treturn false;\r\n\t}\r\n\tfunction updateSkill(bytes32 skill, bytes32 level, bytes32 date, uint index, bytes32 resumeTitle, bytes32 summary, bytes32 motive) public returns (bool) {\r\n\t\tif(mResumeModels[msg.sender].skills.length > index) {\r\n\t\t\tSkill memory skillStruct = Skill(skill, level, date, resumeTitle, summary, motive, true);\r\n\t\t\tmResumeModels[msg.sender].skills[index] = skillStruct;\r\n\t\t\treturn true;\r\n\t\t}\r\n\t\treturn false;\r\n\t}\r\n\r\n\t//   \r\n\tfunction getPersonalInfo() external view returns (PersonalInfo[] memory) {\r\n\t\treturn mResumeModels[msg.sender].personalInfos;\r\n\t}\r\n\tfunction getEducation() public view returns (Education[] memory) {\r\n\t\treturn mResumeModels[msg.sender].educations;\r\n\t}\r\n\tfunction getExperience() public view returns (Experience[] memory) {\r\n\t\treturn mResumeModels[msg.sender].experiences;\r\n\t}\r\n\tfunction getSkill() public view returns (Skill[] memory) {\r\n\t\treturn mResumeModels[msg.sender].skills;\r\n\t}\r\n\r\n\t//   \r\n\tfunction getAllPersonalInfo()  external view returns (PersonalInfo[][] memory) {\r\n\t\tPersonalInfo[][] memory allPersonalInfos;\r\n\t\tfor(uint i = 0; i < registeredArray.length; i++) {\r\n\t\t\tallPersonalInfos[i] = mResumeModels[registeredArray[i]].personalInfos;\r\n\t\t}\r\n\t\treturn allPersonalInfos;\r\n\t}\r\n\tfunction getAllEducation()  external view returns (Education[][] memory) {\r\n\t\tEducation[][] memory allEducations;\r\n\t\tfor(uint i = 0; i < registeredArray.length; i++) {\r\n\t\t\tallEducations[i] = mResumeModels[registeredArray[i]].educations;\r\n\t\t}\r\n\t\treturn allEducations;\r\n\t}\r\n\tfunction getAllExperience()  external view returns (Experience[][] memory) {\r\n\t\tExperience[][] memory allExperiences;\r\n\t\tfor(uint i = 0; i < registeredArray.length; i++) {\r\n\t\t\tallExperiences[i] = mResumeModels[registeredArray[i]].experiences;\r\n\t\t}\r\n\t\treturn allExperiences;\r\n\t}\r\n\tfunction getAllSkill()  external view returns (Skill[][] memory) {\r\n\t\tSkill[][] memory allSkills;\r\n\t\tfor(uint i = 0; i < registeredArray.length; i++) {\r\n\t\t\tallSkills[i] = mResumeModels[registeredArray[i]].skills;\r\n\t\t}\r\n\t\treturn allSkills;\r\n\t}\r\n\r\n\t//   \r\n\tfunction remove(uint index) public returns (bool) {\r\n\t\tif(mResumeModels[msg.sender].personalInfos.length > index) {\r\n\t\t\tfor(uint i = index; i < mResumeModels[msg.sender].personalInfos.length-1; i++) {\r\n\t\t\t\tmResumeModels[msg.sender].personalInfos[i] = mResumeModels[msg.sender].personalInfos[i+1];\r\n\t\t\t\tmResumeModels[msg.sender].educations[i] = mResumeModels[msg.sender].educations[i+1];\r\n\t\t\t\tmResumeModels[msg.sender].experiences[i] = mResumeModels[msg.sender].experiences[i+1];\r\n\t\t\t\tmResumeModels[msg.sender].skills[i] = mResumeModels[msg.sender].skills[i+1];\r\n\t\t\t}\r\n\r\n\t\t\tmResumeModels[msg.sender].personalInfos.pop();\r\n\t\t\tmResumeModels[msg.sender].educations.pop();\r\n\t\t\tmResumeModels[msg.sender].experiences.pop();\r\n\t\t\tmResumeModels[msg.sender].skills.pop();\r\n\t\t\tresumeCount--;\r\n\r\n\t\t\treturn true;\r\n\t\t}\r\n\t\treturn false;\r\n\t}\r\n}",
  "sourcePath": "C:\\Users\\davej\\Desktop\\workspace\\TestCapstone\\contracts\\ResumeContract.sol",
  "compiler": {
    "name": "solc",
    "version": "0.8.13+commit.abaa5c0e.Emscripten.clang"
  },
  "schemaVersion": "3.4.7",
  "updatedAt": "2022-05-21T11:21:46.398Z",
  "networkType": "ethereum",
  "devdoc": {
    "kind": "dev",
    "methods": {},
    "version": 1
  },
  "userdoc": {
    "kind": "user",
    "methods": {},
    "version": 1
  }
}