{
  "contractName": "ResumeContract",
  "abi": [
    {
      "inputs": [],
      "stateMutability": "nonpayable",
      "type": "constructor"
    },
    {
      "inputs": [
        {
          "internalType": "uint256",
          "name": "",
          "type": "uint256"
        }
      ],
      "name": "registeredArray",
      "outputs": [
        {
          "internalType": "address",
          "name": "",
          "type": "address"
        }
      ],
      "stateMutability": "view",
      "type": "function",
      "constant": true
    },
    {
      "inputs": [
        {
          "internalType": "address",
          "name": "_address",
          "type": "address"
        }
      ],
      "name": "checkUser",
      "outputs": [],
      "stateMutability": "nonpayable",
      "type": "function"
    },
    {
      "inputs": [
        {
          "components": [
            {
              "internalType": "bytes32",
              "name": "picUrl",
              "type": "bytes32"
            },
            {
              "internalType": "bytes32",
              "name": "name",
              "type": "bytes32"
            },
            {
              "internalType": "bytes32",
              "name": "phone",
              "type": "bytes32"
            },
            {
              "internalType": "bytes32",
              "name": "email",
              "type": "bytes32"
            },
            {
              "internalType": "bytes32",
              "name": "dateOfBirth",
              "type": "bytes32"
            },
            {
              "internalType": "bytes32",
              "name": "socialUrl",
              "type": "bytes32"
            },
            {
              "internalType": "bytes32",
              "name": "location",
              "type": "bytes32"
            }
          ],
          "internalType": "struct ResumeContract.PersonalInfo",
          "name": "inf",
          "type": "tuple"
        },
        {
          "components": [
            {
              "internalType": "bytes32",
              "name": "expStartDate",
              "type": "bytes32"
            },
            {
              "internalType": "bytes32",
              "name": "expEndDate",
              "type": "bytes32"
            },
            {
              "internalType": "bytes32",
              "name": "companyName",
              "type": "bytes32"
            },
            {
              "internalType": "bytes32",
              "name": "position",
              "type": "bytes32"
            },
            {
              "internalType": "bool",
              "name": "isNotEmpty",
              "type": "bool"
            }
          ],
          "internalType": "struct ResumeContract.Experience",
          "name": "exp",
          "type": "tuple"
        },
        {
          "components": [
            {
              "internalType": "bytes32",
              "name": "eduStartDate",
              "type": "bytes32"
            },
            {
              "internalType": "bytes32",
              "name": "eduEndDate",
              "type": "bytes32"
            },
            {
              "internalType": "bytes32",
              "name": "institute",
              "type": "bytes32"
            },
            {
              "internalType": "bytes32",
              "name": "degree",
              "type": "bytes32"
            },
            {
              "internalType": "bytes32",
              "name": "faculty",
              "type": "bytes32"
            },
            {
              "internalType": "bytes32",
              "name": "major",
              "type": "bytes32"
            },
            {
              "internalType": "bytes32",
              "name": "gpa",
              "type": "bytes32"
            },
            {
              "internalType": "bool",
              "name": "isNotEmpty",
              "type": "bool"
            }
          ],
          "internalType": "struct ResumeContract.Education",
          "name": "edu",
          "type": "tuple"
        },
        {
          "components": [
            {
              "internalType": "bytes32",
              "name": "skillName",
              "type": "bytes32"
            },
            {
              "internalType": "bytes32",
              "name": "level",
              "type": "bytes32"
            },
            {
              "internalType": "bytes32",
              "name": "date",
              "type": "bytes32"
            },
            {
              "internalType": "bytes32",
              "name": "resumeTitle",
              "type": "bytes32"
            },
            {
              "internalType": "bytes32",
              "name": "summary",
              "type": "bytes32"
            },
            {
              "internalType": "bytes32",
              "name": "motive",
              "type": "bytes32"
            },
            {
              "internalType": "bool",
              "name": "isNotEmpty",
              "type": "bool"
            }
          ],
          "internalType": "struct ResumeContract.Skill",
          "name": "ski",
          "type": "tuple"
        }
      ],
      "name": "add",
      "outputs": [
        {
          "internalType": "bool",
          "name": "",
          "type": "bool"
        }
      ],
      "stateMutability": "nonpayable",
      "type": "function"
    },
    {
      "inputs": [
        {
          "internalType": "bytes32",
          "name": "picUrl",
          "type": "bytes32"
        },
        {
          "internalType": "bytes32",
          "name": "name",
          "type": "bytes32"
        },
        {
          "internalType": "bytes32",
          "name": "phone",
          "type": "bytes32"
        },
        {
          "internalType": "bytes32",
          "name": "email",
          "type": "bytes32"
        },
        {
          "internalType": "bytes32",
          "name": "dateOfBirth",
          "type": "bytes32"
        },
        {
          "internalType": "bytes32",
          "name": "socialUrl",
          "type": "bytes32"
        },
        {
          "internalType": "bytes32",
          "name": "location",
          "type": "bytes32"
        },
        {
          "internalType": "uint256",
          "name": "index",
          "type": "uint256"
        }
      ],
      "name": "updatePersonalInfo",
      "outputs": [
        {
          "internalType": "bool",
          "name": "",
          "type": "bool"
        }
      ],
      "stateMutability": "nonpayable",
      "type": "function"
    },
    {
      "inputs": [
        {
          "internalType": "bytes32",
          "name": "startDate",
          "type": "bytes32"
        },
        {
          "internalType": "bytes32",
          "name": "endDate",
          "type": "bytes32"
        },
        {
          "internalType": "bytes32",
          "name": "institute",
          "type": "bytes32"
        },
        {
          "internalType": "bytes32",
          "name": "degree",
          "type": "bytes32"
        },
        {
          "internalType": "bytes32",
          "name": "faculty",
          "type": "bytes32"
        },
        {
          "internalType": "bytes32",
          "name": "major",
          "type": "bytes32"
        },
        {
          "internalType": "bytes32",
          "name": "gpa",
          "type": "bytes32"
        },
        {
          "internalType": "uint256",
          "name": "index",
          "type": "uint256"
        }
      ],
      "name": "updateEducation",
      "outputs": [
        {
          "internalType": "bool",
          "name": "",
          "type": "bool"
        }
      ],
      "stateMutability": "nonpayable",
      "type": "function"
    },
    {
      "inputs": [
        {
          "internalType": "bytes32",
          "name": "startDate",
          "type": "bytes32"
        },
        {
          "internalType": "bytes32",
          "name": "endDate",
          "type": "bytes32"
        },
        {
          "internalType": "bytes32",
          "name": "companyName",
          "type": "bytes32"
        },
        {
          "internalType": "bytes32",
          "name": "position",
          "type": "bytes32"
        },
        {
          "internalType": "uint256",
          "name": "index",
          "type": "uint256"
        }
      ],
      "name": "updateExperience",
      "outputs": [
        {
          "internalType": "bool",
          "name": "",
          "type": "bool"
        }
      ],
      "stateMutability": "nonpayable",
      "type": "function"
    },
    {
      "inputs": [
        {
          "internalType": "bytes32",
          "name": "skill",
          "type": "bytes32"
        },
        {
          "internalType": "bytes32",
          "name": "level",
          "type": "bytes32"
        },
        {
          "internalType": "bytes32",
          "name": "date",
          "type": "bytes32"
        },
        {
          "internalType": "uint256",
          "name": "index",
          "type": "uint256"
        },
        {
          "internalType": "bytes32",
          "name": "resumeTitle",
          "type": "bytes32"
        },
        {
          "internalType": "bytes32",
          "name": "summary",
          "type": "bytes32"
        },
        {
          "internalType": "bytes32",
          "name": "motive",
          "type": "bytes32"
        }
      ],
      "name": "updateSkill",
      "outputs": [
        {
          "internalType": "bool",
          "name": "",
          "type": "bool"
        }
      ],
      "stateMutability": "nonpayable",
      "type": "function"
    },
    {
      "inputs": [],
      "name": "getPersonalInfo",
      "outputs": [
        {
          "components": [
            {
              "internalType": "bytes32",
              "name": "picUrl",
              "type": "bytes32"
            },
            {
              "internalType": "bytes32",
              "name": "name",
              "type": "bytes32"
            },
            {
              "internalType": "bytes32",
              "name": "phone",
              "type": "bytes32"
            },
            {
              "internalType": "bytes32",
              "name": "email",
              "type": "bytes32"
            },
            {
              "internalType": "bytes32",
              "name": "dateOfBirth",
              "type": "bytes32"
            },
            {
              "internalType": "bytes32",
              "name": "socialUrl",
              "type": "bytes32"
            },
            {
              "internalType": "bytes32",
              "name": "location",
              "type": "bytes32"
            }
          ],
          "internalType": "struct ResumeContract.PersonalInfo[]",
          "name": "",
          "type": "tuple[]"
        }
      ],
      "stateMutability": "view",
      "type": "function",
      "constant": true
    },
    {
      "inputs": [],
      "name": "getEducation",
      "outputs": [
        {
          "components": [
            {
              "internalType": "bytes32",
              "name": "eduStartDate",
              "type": "bytes32"
            },
            {
              "internalType": "bytes32",
              "name": "eduEndDate",
              "type": "bytes32"
            },
            {
              "internalType": "bytes32",
              "name": "institute",
              "type": "bytes32"
            },
            {
              "internalType": "bytes32",
              "name": "degree",
              "type": "bytes32"
            },
            {
              "internalType": "bytes32",
              "name": "faculty",
              "type": "bytes32"
            },
            {
              "internalType": "bytes32",
              "name": "major",
              "type": "bytes32"
            },
            {
              "internalType": "bytes32",
              "name": "gpa",
              "type": "bytes32"
            },
            {
              "internalType": "bool",
              "name": "isNotEmpty",
              "type": "bool"
            }
          ],
          "internalType": "struct ResumeContract.Education[]",
          "name": "",
          "type": "tuple[]"
        }
      ],
      "stateMutability": "view",
      "type": "function",
      "constant": true
    },
    {
      "inputs": [],
      "name": "getExperience",
      "outputs": [
        {
          "components": [
            {
              "internalType": "bytes32",
              "name": "expStartDate",
              "type": "bytes32"
            },
            {
              "internalType": "bytes32",
              "name": "expEndDate",
              "type": "bytes32"
            },
            {
              "internalType": "bytes32",
              "name": "companyName",
              "type": "bytes32"
            },
            {
              "internalType": "bytes32",
              "name": "position",
              "type": "bytes32"
            },
            {
              "internalType": "bool",
              "name": "isNotEmpty",
              "type": "bool"
            }
          ],
          "internalType": "struct ResumeContract.Experience[]",
          "name": "",
          "type": "tuple[]"
        }
      ],
      "stateMutability": "view",
      "type": "function",
      "constant": true
    },
    {
      "inputs": [],
      "name": "getSkill",
      "outputs": [
        {
          "components": [
            {
              "internalType": "bytes32",
              "name": "skillName",
              "type": "bytes32"
            },
            {
              "internalType": "bytes32",
              "name": "level",
              "type": "bytes32"
            },
            {
              "internalType": "bytes32",
              "name": "date",
              "type": "bytes32"
            },
            {
              "internalType": "bytes32",
              "name": "resumeTitle",
              "type": "bytes32"
            },
            {
              "internalType": "bytes32",
              "name": "summary",
              "type": "bytes32"
            },
            {
              "internalType": "bytes32",
              "name": "motive",
              "type": "bytes32"
            },
            {
              "internalType": "bool",
              "name": "isNotEmpty",
              "type": "bool"
            }
          ],
          "internalType": "struct ResumeContract.Skill[]",
          "name": "",
          "type": "tuple[]"
        }
      ],
      "stateMutability": "view",
      "type": "function",
      "constant": true
    },
    {
      "inputs": [],
      "name": "getAllPersonalInfo",
      "outputs": [
        {
          "components": [
            {
              "internalType": "bytes32",
              "name": "picUrl",
              "type": "bytes32"
            },
            {
              "internalType": "bytes32",
              "name": "name",
              "type": "bytes32"
            },
            {
              "internalType": "bytes32",
              "name": "phone",
              "type": "bytes32"
            },
            {
              "internalType": "bytes32",
              "name": "email",
              "type": "bytes32"
            },
            {
              "internalType": "bytes32",
              "name": "dateOfBirth",
              "type": "bytes32"
            },
            {
              "internalType": "bytes32",
              "name": "socialUrl",
              "type": "bytes32"
            },
            {
              "internalType": "bytes32",
              "name": "location",
              "type": "bytes32"
            }
          ],
          "internalType": "struct ResumeContract.PersonalInfo[][]",
          "name": "",
          "type": "tuple[][]"
        }
      ],
      "stateMutability": "view",
      "type": "function",
      "constant": true
    },
    {
      "inputs": [],
      "name": "getAllEducation",
      "outputs": [
        {
          "components": [
            {
              "internalType": "bytes32",
              "name": "eduStartDate",
              "type": "bytes32"
            },
            {
              "internalType": "bytes32",
              "name": "eduEndDate",
              "type": "bytes32"
            },
            {
              "internalType": "bytes32",
              "name": "institute",
              "type": "bytes32"
            },
            {
              "internalType": "bytes32",
              "name": "degree",
              "type": "bytes32"
            },
            {
              "internalType": "bytes32",
              "name": "faculty",
              "type": "bytes32"
            },
            {
              "internalType": "bytes32",
              "name": "major",
              "type": "bytes32"
            },
            {
              "internalType": "bytes32",
              "name": "gpa",
              "type": "bytes32"
            },
            {
              "internalType": "bool",
              "name": "isNotEmpty",
              "type": "bool"
            }
          ],
          "internalType": "struct ResumeContract.Education[][]",
          "name": "",
          "type": "tuple[][]"
        }
      ],
      "stateMutability": "view",
      "type": "function",
      "constant": true
    },
    {
      "inputs": [],
      "name": "getAllExperience",
      "outputs": [
        {
          "components": [
            {
              "internalType": "bytes32",
              "name": "expStartDate",
              "type": "bytes32"
            },
            {
              "internalType": "bytes32",
              "name": "expEndDate",
              "type": "bytes32"
            },
            {
              "internalType": "bytes32",
              "name": "companyName",
              "type": "bytes32"
            },
            {
              "internalType": "bytes32",
              "name": "position",
              "type": "bytes32"
            },
            {
              "internalType": "bool",
              "name": "isNotEmpty",
              "type": "bool"
            }
          ],
          "internalType": "struct ResumeContract.Experience[][]",
          "name": "",
          "type": "tuple[][]"
        }
      ],
      "stateMutability": "view",
      "type": "function",
      "constant": true
    },
    {
      "inputs": [],
      "name": "getAllSkill",
      "outputs": [
        {
          "components": [
            {
              "internalType": "bytes32",
              "name": "skillName",
              "type": "bytes32"
            },
            {
              "internalType": "bytes32",
              "name": "level",
              "type": "bytes32"
            },
            {
              "internalType": "bytes32",
              "name": "date",
              "type": "bytes32"
            },
            {
              "internalType": "bytes32",
              "name": "resumeTitle",
              "type": "bytes32"
            },
            {
              "internalType": "bytes32",
              "name": "summary",
              "type": "bytes32"
            },
            {
              "internalType": "bytes32",
              "name": "motive",
              "type": "bytes32"
            },
            {
              "internalType": "bool",
              "name": "isNotEmpty",
              "type": "bool"
            }
          ],
          "internalType": "struct ResumeContract.Skill[][]",
          "name": "",
          "type": "tuple[][]"
        }
      ],
      "stateMutability": "view",
      "type": "function",
      "constant": true
    },
    {
      "inputs": [
        {
          "internalType": "uint256",
          "name": "index",
          "type": "uint256"
        }
      ],
      "name": "remove",
      "outputs": [
        {
          "internalType": "bool",
          "name": "",
          "type": "bool"
        }
      ],
      "stateMutability": "nonpayable",
      "type": "function"
    }
  ],
  "bytecode": "0x608060405234801561001057600080fd5b50336000806101000a81548173ffffffffffffffffffffffffffffffffffffffff021916908373ffffffffffffffffffffffffffffffffffffffff160217905550613328806100606000396000f3fe608060405234801561001057600080fd5b50600436106101005760003560e01c8063a6a5245c11610097578063d40afcb111610066578063d40afcb1146102c5578063d4e4fffd146102f5578063f317868514610313578063f40cf84d1461034357610100565b8063a6a5245c14610229578063b08026ea14610259578063cdb986cc14610277578063d31025d21461029557610100565b80631e9d48cf116100d35780631e9d48cf146101a157806347865a08146101bd5780634cc82215146101db57806381f539ff1461020b57610100565b8063162c97cd14610105578063189e659e146101355780631914cb0d146101535780631c41e2db14610183575b600080fd5b61011f600480360381019061011a9190611fee565b610361565b60405161012c91906120bf565b60405180910390f35b61013d6104d8565b60405161014a9190612235565b60405180910390f35b61016d600480360381019061016891906125d2565b6105ce565b60405161017a91906120bf565b60405180910390f35b61018b61095e565b604051610198919061278e565b60405180910390f35b6101bb60048036038101906101b6919061280e565b610a5f565b005b6101c5610b6f565b6040516101d29190612a3a565b60405180910390f35b6101f560048036038101906101f09190612a5c565b610cd7565b60405161020291906120bf565b60405180910390f35b610213611516565b6040516102209190612af8565b60405180910390f35b610243600480360381019061023e9190612b1a565b6115fb565b60405161025091906120bf565b60405180910390f35b610261611760565b60405161026e9190612ced565b60405180910390f35b61027f6118d9565b60405161028c9190612e26565b60405180910390f35b6102af60048036038101906102aa9190612e48565b6119bb565b6040516102bc91906120bf565b60405180910390f35b6102df60048036038101906102da9190612a5c565b611afe565b6040516102ec9190612ed2565b60405180910390f35b6102fd611b3d565b60405161030a919061301e565b60405180910390f35b61032d60048036038101906103289190611fee565b611cc1565b60405161033a91906120bf565b60405180910390f35b61034b611e0e565b6040516103589190613171565b60405180910390f35b600081600160003373ffffffffffffffffffffffffffffffffffffffff1673ffffffffffffffffffffffffffffffffffffffff1681526020019081526020016000206002018054905011156104c75760006040518061010001604052808b81526020018a815260200189815260200188815260200187815260200186815260200185815260200160011515815250905080600160003373ffffffffffffffffffffffffffffffffffffffff1673ffffffffffffffffffffffffffffffffffffffff168152602001908152602001600020600201848154811061044657610445613193565b5b9060005260206000209060080201600082015181600001556020820151816001015560408201518160020155606082015181600301556080820151816004015560a0820151816005015560c0820151816006015560e08201518160070160006101000a81548160ff02191690831515021790555090505060019150506104cc565b600090505b98975050505050505050565b6060600160003373ffffffffffffffffffffffffffffffffffffffff1673ffffffffffffffffffffffffffffffffffffffff168152602001908152602001600020600301805480602002602001604051908101604052809291908181526020016000905b828210156105c557838290600052602060002090600702016040518060e00160405290816000820154815260200160018201548152602001600282015481526020016003820154815260200160048201548152602001600582015481526020016006820160009054906101000a900460ff1615151515815250508152602001906001019061053c565b50505050905090565b600080859050600085905060008590506000859050600160003373ffffffffffffffffffffffffffffffffffffffff1673ffffffffffffffffffffffffffffffffffffffff168152602001908152602001600020600001849080600181540180825580915050600190039060005260206000209060070201600090919091909150600082015181600001556020820151816001015560408201518160020155606082015181600301556080820151816004015560a0820151816005015560c082015181600601555050600160003373ffffffffffffffffffffffffffffffffffffffff1673ffffffffffffffffffffffffffffffffffffffff1681526020019081526020016000206001018390806001815401808255809150506001900390600052602060002090600502016000909190919091506000820151816000015560208201518160010155604082015181600201556060820151816003015560808201518160040160006101000a81548160ff0219169083151502179055505050600160003373ffffffffffffffffffffffffffffffffffffffff1673ffffffffffffffffffffffffffffffffffffffff168152602001908152602001600020600201829080600181540180825580915050600190039060005260206000209060080201600090919091909150600082015181600001556020820151816001015560408201518160020155606082015181600301556080820151816004015560a0820151816005015560c0820151816006015560e08201518160070160006101000a81548160ff0219169083151502179055505050600160003373ffffffffffffffffffffffffffffffffffffffff1673ffffffffffffffffffffffffffffffffffffffff168152602001908152602001600020600301819080600181540180825580915050600190039060005260206000209060070201600090919091909150600082015181600001556020820151816001015560408201518160020155606082015181600301556080820151816004015560a0820151816005015560c08201518160060160006101000a81548160ff021916908315150217905550505060018060003373ffffffffffffffffffffffffffffffffffffffff1673ffffffffffffffffffffffffffffffffffffffff16815260200190815260200160002060040160006101000a81548160ff02191690831515021790555061094e33610a5f565b6001945050505050949350505050565b6060600160003373ffffffffffffffffffffffffffffffffffffffff1673ffffffffffffffffffffffffffffffffffffffff168152602001908152602001600020600201805480602002602001604051908101604052809291908181526020016000905b82821015610a56578382906000526020600020906008020160405180610100016040529081600082015481526020016001820154815260200160028201548152602001600382015481526020016004820154815260200160058201548152602001600682015481526020016007820160009054906101000a900460ff161515151581525050815260200190600101906109c2565b50505050905090565b600260008273ffffffffffffffffffffffffffffffffffffffff1673ffffffffffffffffffffffffffffffffffffffff16815260200190815260200160002060009054906101000a900460ff16610b6c576001600260008373ffffffffffffffffffffffffffffffffffffffff1673ffffffffffffffffffffffffffffffffffffffff16815260200190815260200160002060006101000a81548160ff0219169083151502179055506003819080600181540180825580915050600190039060005260206000200160009091909190916101000a81548173ffffffffffffffffffffffffffffffffffffffff021916908373ffffffffffffffffffffffffffffffffffffffff1602179055505b50565b60608060005b600380549050811015610ccf576001600060038381548110610b9a57610b99613193565b5b9060005260206000200160009054906101000a900473ffffffffffffffffffffffffffffffffffffffff1673ffffffffffffffffffffffffffffffffffffffff1673ffffffffffffffffffffffffffffffffffffffff168152602001908152602001600020600001805480602002602001604051908101604052809291908181526020016000905b82821015610c9a57838290600052602060002090600702016040518060e001604052908160008201548152602001600182015481526020016002820154815260200160038201548152602001600482015481526020016005820154815260200160068201548152505081526020019060010190610c22565b50505050828281518110610cb157610cb0613193565b5b60200260200101819052508080610cc7906131f1565b915050610b75565b508091505090565b600081600160003373ffffffffffffffffffffffffffffffffffffffff1673ffffffffffffffffffffffffffffffffffffffff16815260200190815260200160002060000180549050111561150c5760008290505b60018060003373ffffffffffffffffffffffffffffffffffffffff1673ffffffffffffffffffffffffffffffffffffffff16815260200190815260200160002060000180549050610d7d9190613239565b81101561125a57600160003373ffffffffffffffffffffffffffffffffffffffff1673ffffffffffffffffffffffffffffffffffffffff168152602001908152602001600020600001600182610dd3919061326d565b81548110610de457610de3613193565b5b9060005260206000209060070201600160003373ffffffffffffffffffffffffffffffffffffffff1673ffffffffffffffffffffffffffffffffffffffff1681526020019081526020016000206000018281548110610e4657610e45613193565b5b906000526020600020906007020160008201548160000155600182015481600101556002820154816002015560038201548160030155600482015481600401556005820154816005015560068201548160060155905050600160003373ffffffffffffffffffffffffffffffffffffffff1673ffffffffffffffffffffffffffffffffffffffff168152602001908152602001600020600201600182610eec919061326d565b81548110610efd57610efc613193565b5b9060005260206000209060080201600160003373ffffffffffffffffffffffffffffffffffffffff1673ffffffffffffffffffffffffffffffffffffffff1681526020019081526020016000206002018281548110610f5f57610f5e613193565b5b9060005260206000209060080201600082015481600001556001820154816001015560028201548160020155600382015481600301556004820154816004015560058201548160050155600682015481600601556007820160009054906101000a900460ff168160070160006101000a81548160ff021916908315150217905550905050600160003373ffffffffffffffffffffffffffffffffffffffff1673ffffffffffffffffffffffffffffffffffffffff168152602001908152602001600020600101600182611032919061326d565b8154811061104357611042613193565b5b9060005260206000209060050201600160003373ffffffffffffffffffffffffffffffffffffffff1673ffffffffffffffffffffffffffffffffffffffff16815260200190815260200160002060010182815481106110a5576110a4613193565b5b9060005260206000209060050201600082015481600001556001820154816001015560028201548160020155600382015481600301556004820160009054906101000a900460ff168160040160006101000a81548160ff021916908315150217905550905050600160003373ffffffffffffffffffffffffffffffffffffffff1673ffffffffffffffffffffffffffffffffffffffff16815260200190815260200160002060030160018261115a919061326d565b8154811061116b5761116a613193565b5b9060005260206000209060070201600160003373ffffffffffffffffffffffffffffffffffffffff1673ffffffffffffffffffffffffffffffffffffffff16815260200190815260200160002060030182815481106111cd576111cc613193565b5b90600052602060002090600702016000820154816000015560018201548160010155600282015481600201556003820154816003015560048201548160040155600582015481600501556006820160009054906101000a900460ff168160060160006101000a81548160ff0219169083151502179055509050508080611252906131f1565b915050610d2c565b50600160003373ffffffffffffffffffffffffffffffffffffffff1673ffffffffffffffffffffffffffffffffffffffff1681526020019081526020016000206000018054806112ad576112ac6132c3565b5b600190038181906000526020600020906007020160008082016000905560018201600090556002820160009055600382016000905560048201600090556005820160009055600682016000905550509055600160003373ffffffffffffffffffffffffffffffffffffffff1673ffffffffffffffffffffffffffffffffffffffff1681526020019081526020016000206002018054806113505761134f6132c3565b5b60019003818190600052602060002090600802016000808201600090556001820160009055600282016000905560038201600090556004820160009055600582016000905560068201600090556007820160006101000a81549060ff021916905550509055600160003373ffffffffffffffffffffffffffffffffffffffff1673ffffffffffffffffffffffffffffffffffffffff168152602001908152602001600020600101805480611407576114066132c3565b5b60019003818190600052602060002090600502016000808201600090556001820160009055600282016000905560038201600090556004820160006101000a81549060ff021916905550509055600160003373ffffffffffffffffffffffffffffffffffffffff1673ffffffffffffffffffffffffffffffffffffffff1681526020019081526020016000206003018054806114a6576114a56132c3565b5b6001900381819060005260206000209060070201600080820160009055600182016000905560028201600090556003820160009055600482016000905560058201600090556006820160006101000a81549060ff02191690555050905560019050611511565b600090505b919050565b6060600160003373ffffffffffffffffffffffffffffffffffffffff1673ffffffffffffffffffffffffffffffffffffffff168152602001908152602001600020600001805480602002602001604051908101604052809291908181526020016000905b828210156115f257838290600052602060002090600702016040518060e00160405290816000820154815260200160018201548152602001600282015481526020016003820154815260200160048201548152602001600582015481526020016006820154815250508152602001906001019061157a565b50505050905090565b600084600160003373ffffffffffffffffffffffffffffffffffffffff1673ffffffffffffffffffffffffffffffffffffffff1681526020019081526020016000206003018054905011156117505760006040518060e001604052808a815260200189815260200188815260200186815260200185815260200184815260200160011515815250905080600160003373ffffffffffffffffffffffffffffffffffffffff1673ffffffffffffffffffffffffffffffffffffffff16815260200190815260200160002060030187815481106116d9576116d8613193565b5b9060005260206000209060070201600082015181600001556020820151816001015560408201518160020155606082015181600301556080820151816004015560a0820151816005015560c08201518160060160006101000a81548160ff0219169083151502179055509050506001915050611755565b600090505b979650505050505050565b60608060005b6003805490508110156118d157600160006003838154811061178b5761178a613193565b5b9060005260206000200160009054906101000a900473ffffffffffffffffffffffffffffffffffffffff1673ffffffffffffffffffffffffffffffffffffffff1673ffffffffffffffffffffffffffffffffffffffff168152602001908152602001600020600301805480602002602001604051908101604052809291908181526020016000905b8282101561189c57838290600052602060002090600702016040518060e00160405290816000820154815260200160018201548152602001600282015481526020016003820154815260200160048201548152602001600582015481526020016006820160009054906101000a900460ff16151515158152505081526020019060010190611813565b505050508282815181106118b3576118b2613193565b5b602002602001018190525080806118c9906131f1565b915050611766565b508091505090565b6060600160003373ffffffffffffffffffffffffffffffffffffffff1673ffffffffffffffffffffffffffffffffffffffff168152602001908152602001600020600101805480602002602001604051908101604052809291908181526020016000905b828210156119b257838290600052602060002090600502016040518060a0016040529081600082015481526020016001820154815260200160028201548152602001600382015481526020016004820160009054906101000a900460ff1615151515815250508152602001906001019061193d565b50505050905090565b600081600160003373ffffffffffffffffffffffffffffffffffffffff1673ffffffffffffffffffffffffffffffffffffffff168152602001908152602001600020600101805490501115611af05760006040518060a0016040528088815260200187815260200186815260200185815260200160011515815250905080600160003373ffffffffffffffffffffffffffffffffffffffff1673ffffffffffffffffffffffffffffffffffffffff1681526020019081526020016000206001018481548110611a8d57611a8c613193565b5b90600052602060002090600502016000820151816000015560208201518160010155604082015181600201556060820151816003015560808201518160040160006101000a81548160ff0219169083151502179055509050506001915050611af5565b600090505b95945050505050565b60038181548110611b0e57600080fd5b906000526020600020016000915054906101000a900473ffffffffffffffffffffffffffffffffffffffff1681565b60608060005b600380549050811015611cb9576001600060038381548110611b6857611b67613193565b5b9060005260206000200160009054906101000a900473ffffffffffffffffffffffffffffffffffffffff1673ffffffffffffffffffffffffffffffffffffffff1673ffffffffffffffffffffffffffffffffffffffff168152602001908152602001600020600201805480602002602001604051908101604052809291908181526020016000905b82821015611c84578382906000526020600020906008020160405180610100016040529081600082015481526020016001820154815260200160028201548152602001600382015481526020016004820154815260200160058201548152602001600682015481526020016007820160009054906101000a900460ff16151515158152505081526020019060010190611bf0565b50505050828281518110611c9b57611c9a613193565b5b60200260200101819052508080611cb1906131f1565b915050611b43565b508091505090565b600081600160003373ffffffffffffffffffffffffffffffffffffffff1673ffffffffffffffffffffffffffffffffffffffff168152602001908152602001600020600001805490501115611dfd5760006040518060e001604052808b81526020018a815260200189815260200188815260200187815260200186815260200185815250905080600160003373ffffffffffffffffffffffffffffffffffffffff1673ffffffffffffffffffffffffffffffffffffffff1681526020019081526020016000206000018481548110611d9c57611d9b613193565b5b9060005260206000209060070201600082015181600001556020820151816001015560408201518160020155606082015181600301556080820151816004015560a0820151816005015560c082015181600601559050506001915050611e02565b600090505b98975050505050505050565b60608060005b600380549050811015611f6b576001600060038381548110611e3957611e38613193565b5b9060005260206000200160009054906101000a900473ffffffffffffffffffffffffffffffffffffffff1673ffffffffffffffffffffffffffffffffffffffff1673ffffffffffffffffffffffffffffffffffffffff168152602001908152602001600020600101805480602002602001604051908101604052809291908181526020016000905b82821015611f3657838290600052602060002090600502016040518060a0016040529081600082015481526020016001820154815260200160028201548152602001600382015481526020016004820160009054906101000a900460ff16151515158152505081526020019060010190611ec1565b50505050828281518110611f4d57611f4c613193565b5b60200260200101819052508080611f63906131f1565b915050611e14565b508091505090565b6000604051905090565b600080fd5b6000819050919050565b611f9581611f82565b8114611fa057600080fd5b50565b600081359050611fb281611f8c565b92915050565b6000819050919050565b611fcb81611fb8565b8114611fd657600080fd5b50565b600081359050611fe881611fc2565b92915050565b600080600080600080600080610100898b03121561200f5761200e611f7d565b5b600061201d8b828c01611fa3565b985050602061202e8b828c01611fa3565b975050604061203f8b828c01611fa3565b96505060606120508b828c01611fa3565b95505060806120618b828c01611fa3565b94505060a06120728b828c01611fa3565b93505060c06120838b828c01611fa3565b92505060e06120948b828c01611fd9565b9150509295985092959890939650565b60008115159050919050565b6120b9816120a4565b82525050565b60006020820190506120d460008301846120b0565b92915050565b600081519050919050565b600082825260208201905092915050565b6000819050602082019050919050565b61210f81611f82565b82525050565b61211e816120a4565b82525050565b60e08201600082015161213a6000850182612106565b50602082015161214d6020850182612106565b5060408201516121606040850182612106565b5060608201516121736060850182612106565b5060808201516121866080850182612106565b5060a082015161219960a0850182612106565b5060c08201516121ac60c0850182612115565b50505050565b60006121be8383612124565b60e08301905092915050565b6000602082019050919050565b60006121e2826120da565b6121ec81856120e5565b93506121f7836120f6565b8060005b8381101561222857815161220f88826121b2565b975061221a836121ca565b9250506001810190506121fb565b5085935050505092915050565b6000602082019050818103600083015261224f81846121d7565b905092915050565b600080fd5b6000601f19601f8301169050919050565b7f4e487b7100000000000000000000000000000000000000000000000000000000600052604160045260246000fd5b6122a58261225c565b810181811067ffffffffffffffff821117156122c4576122c361226d565b5b80604052505050565b60006122d7611f73565b90506122e3828261229c565b919050565b600060e082840312156122fe576122fd612257565b5b61230860e06122cd565b9050600061231884828501611fa3565b600083015250602061232c84828501611fa3565b602083015250604061234084828501611fa3565b604083015250606061235484828501611fa3565b606083015250608061236884828501611fa3565b60808301525060a061237c84828501611fa3565b60a08301525060c061239084828501611fa3565b60c08301525092915050565b6123a5816120a4565b81146123b057600080fd5b50565b6000813590506123c28161239c565b92915050565b600060a082840312156123de576123dd612257565b5b6123e860a06122cd565b905060006123f884828501611fa3565b600083015250602061240c84828501611fa3565b602083015250604061242084828501611fa3565b604083015250606061243484828501611fa3565b6060830152506080612448848285016123b3565b60808301525092915050565b6000610100828403121561246b5761246a612257565b5b6124766101006122cd565b9050600061248684828501611fa3565b600083015250602061249a84828501611fa3565b60208301525060406124ae84828501611fa3565b60408301525060606124c284828501611fa3565b60608301525060806124d684828501611fa3565b60808301525060a06124ea84828501611fa3565b60a08301525060c06124fe84828501611fa3565b60c08301525060e0612512848285016123b3565b60e08301525092915050565b600060e0828403121561253457612533612257565b5b61253e60e06122cd565b9050600061254e84828501611fa3565b600083015250602061256284828501611fa3565b602083015250604061257684828501611fa3565b604083015250606061258a84828501611fa3565b606083015250608061259e84828501611fa3565b60808301525060a06125b284828501611fa3565b60a08301525060c06125c6848285016123b3565b60c08301525092915050565b60008060008061036085870312156125ed576125ec611f7d565b5b60006125fb878288016122e8565b94505060e061260c878288016123c8565b93505061018061261e87828801612454565b9250506102806126308782880161251e565b91505092959194509250565b600081519050919050565b600082825260208201905092915050565b6000819050602082019050919050565b6101008201600082015161267f6000850182612106565b5060208201516126926020850182612106565b5060408201516126a56040850182612106565b5060608201516126b86060850182612106565b5060808201516126cb6080850182612106565b5060a08201516126de60a0850182612106565b5060c08201516126f160c0850182612106565b5060e082015161270460e0850182612115565b50505050565b60006127168383612668565b6101008301905092915050565b6000602082019050919050565b600061273b8261263c565b6127458185612647565b935061275083612658565b8060005b83811015612781578151612768888261270a565b975061277383612723565b925050600181019050612754565b5085935050505092915050565b600060208201905081810360008301526127a88184612730565b905092915050565b600073ffffffffffffffffffffffffffffffffffffffff82169050919050565b60006127db826127b0565b9050919050565b6127eb816127d0565b81146127f657600080fd5b50565b600081359050612808816127e2565b92915050565b60006020828403121561282457612823611f7d565b5b6000612832848285016127f9565b91505092915050565b600081519050919050565b600082825260208201905092915050565b6000819050602082019050919050565b600081519050919050565b600082825260208201905092915050565b6000819050602082019050919050565b60e0820160008201516128a96000850182612106565b5060208201516128bc6020850182612106565b5060408201516128cf6040850182612106565b5060608201516128e26060850182612106565b5060808201516128f56080850182612106565b5060a082015161290860a0850182612106565b5060c082015161291b60c0850182612106565b50505050565b600061292d8383612893565b60e08301905092915050565b6000602082019050919050565b600061295182612867565b61295b8185612872565b935061296683612883565b8060005b8381101561299757815161297e8882612921565b975061298983612939565b92505060018101905061296a565b5085935050505092915050565b60006129b08383612946565b905092915050565b6000602082019050919050565b60006129d08261283b565b6129da8185612846565b9350836020820285016129ec85612857565b8060005b85811015612a285784840389528151612a0985826129a4565b9450612a14836129b8565b925060208a019950506001810190506129f0565b50829750879550505050505092915050565b60006020820190508181036000830152612a5481846129c5565b905092915050565b600060208284031215612a7257612a71611f7d565b5b6000612a8084828501611fd9565b91505092915050565b600082825260208201905092915050565b6000612aa582612867565b612aaf8185612a89565b9350612aba83612883565b8060005b83811015612aeb578151612ad28882612921565b9750612add83612939565b925050600181019050612abe565b5085935050505092915050565b60006020820190508181036000830152612b128184612a9a565b905092915050565b600080600080600080600060e0888a031215612b3957612b38611f7d565b5b6000612b478a828b01611fa3565b9750506020612b588a828b01611fa3565b9650506040612b698a828b01611fa3565b9550506060612b7a8a828b01611fd9565b9450506080612b8b8a828b01611fa3565b93505060a0612b9c8a828b01611fa3565b92505060c0612bad8a828b01611fa3565b91505092959891949750929550565b600081519050919050565b600082825260208201905092915050565b6000819050602082019050919050565b600082825260208201905092915050565b6000612c04826120da565b612c0e8185612be8565b9350612c19836120f6565b8060005b83811015612c4a578151612c3188826121b2565b9750612c3c836121ca565b925050600181019050612c1d565b5085935050505092915050565b6000612c638383612bf9565b905092915050565b6000602082019050919050565b6000612c8382612bbc565b612c8d8185612bc7565b935083602082028501612c9f85612bd8565b8060005b85811015612cdb5784840389528151612cbc8582612c57565b9450612cc783612c6b565b925060208a01995050600181019050612ca3565b50829750879550505050505092915050565b60006020820190508181036000830152612d078184612c78565b905092915050565b600081519050919050565b600082825260208201905092915050565b6000819050602082019050919050565b60a082016000820151612d516000850182612106565b506020820151612d646020850182612106565b506040820151612d776040850182612106565b506060820151612d8a6060850182612106565b506080820151612d9d6080850182612115565b50505050565b6000612daf8383612d3b565b60a08301905092915050565b6000602082019050919050565b6000612dd382612d0f565b612ddd8185612d1a565b9350612de883612d2b565b8060005b83811015612e19578151612e008882612da3565b9750612e0b83612dbb565b925050600181019050612dec565b5085935050505092915050565b60006020820190508181036000830152612e408184612dc8565b905092915050565b600080600080600060a08688031215612e6457612e63611f7d565b5b6000612e7288828901611fa3565b9550506020612e8388828901611fa3565b9450506040612e9488828901611fa3565b9350506060612ea588828901611fa3565b9250506080612eb688828901611fd9565b9150509295509295909350565b612ecc816127d0565b82525050565b6000602082019050612ee76000830184612ec3565b92915050565b600081519050919050565b600082825260208201905092915050565b6000819050602082019050919050565b600082825260208201905092915050565b6000612f358261263c565b612f3f8185612f19565b9350612f4a83612658565b8060005b83811015612f7b578151612f62888261270a565b9750612f6d83612723565b925050600181019050612f4e565b5085935050505092915050565b6000612f948383612f2a565b905092915050565b6000602082019050919050565b6000612fb482612eed565b612fbe8185612ef8565b935083602082028501612fd085612f09565b8060005b8581101561300c5784840389528151612fed8582612f88565b9450612ff883612f9c565b925060208a01995050600181019050612fd4565b50829750879550505050505092915050565b600060208201905081810360008301526130388184612fa9565b905092915050565b600081519050919050565b600082825260208201905092915050565b6000819050602082019050919050565b600082825260208201905092915050565b600061308882612d0f565b613092818561306c565b935061309d83612d2b565b8060005b838110156130ce5781516130b58882612da3565b97506130c083612dbb565b9250506001810190506130a1565b5085935050505092915050565b60006130e7838361307d565b905092915050565b6000602082019050919050565b600061310782613040565b613111818561304b565b9350836020820285016131238561305c565b8060005b8581101561315f578484038952815161314085826130db565b945061314b836130ef565b925060208a01995050600181019050613127565b50829750879550505050505092915050565b6000602082019050818103600083015261318b81846130fc565b905092915050565b7f4e487b7100000000000000000000000000000000000000000000000000000000600052603260045260246000fd5b7f4e487b7100000000000000000000000000000000000000000000000000000000600052601160045260246000fd5b60006131fc82611fb8565b91507fffffffffffffffffffffffffffffffffffffffffffffffffffffffffffffffff820361322e5761322d6131c2565b5b600182019050919050565b600061324482611fb8565b915061324f83611fb8565b925082821015613262576132616131c2565b5b828203905092915050565b600061327882611fb8565b915061328383611fb8565b9250827fffffffffffffffffffffffffffffffffffffffffffffffffffffffffffffffff038211156132b8576132b76131c2565b5b828201905092915050565b7f4e487b7100000000000000000000000000000000000000000000000000000000600052603160045260246000fdfea2646970667358221220b07c2df27a8d29f45107e5fc84c0e30de284bd4fab0bc166fd56d887b0197e7564736f6c634300080d0033",
  "immutableReferences": {},
  "source": "// SPDX-License-Identifier: MIT\r\n\r\npragma solidity ^0.8.13;\r\n\r\nimport \"./Ownable.sol\";\r\n\r\ncontract ResumeContract is Ownable {\r\n\r\n\t// Constructor\r\n\tconstructor() {}\r\n\r\n\t//  \r\n\tstruct PersonalInfo {\r\n\t\tbytes32 picUrl; // \r\n\t\tbytes32 name; // \r\n\t\tbytes32 phone; // \r\n\t\tbytes32 email; // \r\n\t\tbytes32 dateOfBirth; // \r\n\t\tbytes32 socialUrl; //  ,    Url\r\n\t\tbytes32 location; // \r\n\t}\r\n\r\n\t//    \r\n\tstruct Education {\r\n\t\tbytes32 eduStartDate; //  \r\n\t\tbytes32 eduEndDate; //  \r\n\t\tbytes32 institute; //  \r\n\t\tbytes32 degree; // \r\n\t\tbytes32 faculty; // \r\n\t\tbytes32 major; // \r\n\t\tbytes32 gpa; // \r\n\t\tbool isNotEmpty;\r\n\t}\r\n\r\n\tstruct Experience {\r\n\t\tbytes32 expStartDate; //  \r\n\t\tbytes32 expEndDate; //  \r\n\t\tbytes32 companyName; // \r\n\t\tbytes32 position; // \r\n\t\tbool isNotEmpty;\r\n\t}\r\n\r\n\t//     \r\n\tstruct Skill {\r\n\t\tbytes32 skillName; // , \r\n\t\tbytes32 level; //   ,  \r\n\t\tbytes32 date; //  \r\n\t\tbytes32 resumeTitle; //  \r\n\t\tbytes32 summary; //  \r\n\t\tbytes32 motive; //  \r\n\t\tbool isNotEmpty;\r\n\t}\r\n\r\n\r\n\tstruct ResumeModel {\r\n\t\tPersonalInfo[] personalInfos;\r\n\t\tExperience[] experiences;\r\n\t\tEducation[] educations;\r\n\t\tSkill[] skills;\r\n\t\tbool isNotEmpty;\r\n\t}\r\n\r\n\tmapping (address => ResumeModel) mResumeModels;\r\n\r\n\tmapping (address => bool) registered;\r\n\taddress[] public registeredArray;\r\n\r\n\t//   \r\n\tfunction checkUser(address _address) public {\r\n\t\tif(!registered[_address]) {\r\n\t\t\tregistered[_address] = true;\r\n\t\t\tregisteredArray.push(_address);\r\n\t\t}\r\n\t}\r\n\r\n\tfunction add(PersonalInfo memory inf, Experience memory exp, Education memory edu, Skill memory ski) public returns (bool) {\r\n\t\tPersonalInfo memory info = inf;\r\n\t\tExperience memory expr = exp;\r\n\t\tEducation memory educ = edu;\r\n\t\tSkill memory skil = ski;\r\n\t\t\r\n\t\tmResumeModels[msg.sender].personalInfos.push(info);\r\n\t\tmResumeModels[msg.sender].experiences.push(expr);\r\n\t\tmResumeModels[msg.sender].educations.push(educ);\r\n\t\tmResumeModels[msg.sender].skills.push(skil);\r\n\r\n\t\tmResumeModels[msg.sender].isNotEmpty = true;\r\n\r\n\t\tcheckUser(msg.sender);\r\n\r\n\t\treturn true;\r\n\t}\r\n\r\n\t//   \r\n\tfunction updatePersonalInfo(bytes32 picUrl, bytes32 name, bytes32 phone, bytes32 email, bytes32 dateOfBirth, bytes32 socialUrl, bytes32 location, uint index) public returns (bool) {\r\n\t\tif(mResumeModels[msg.sender].personalInfos.length > index) {\r\n\t\t\tPersonalInfo memory info = PersonalInfo(picUrl, name, phone, email, dateOfBirth, socialUrl, location);\r\n\t\t\tmResumeModels[msg.sender].personalInfos[index] = info;\r\n\t\t\treturn true;\r\n\t\t}\r\n\t\treturn false;\r\n\t}\r\n\tfunction updateEducation(bytes32 startDate, bytes32 endDate, bytes32 institute, bytes32 degree, bytes32 faculty, bytes32 major, bytes32 gpa, uint index) public returns (bool) {\r\n\t\tif(mResumeModels[msg.sender].educations.length > index) {\r\n\t\t\tEducation memory edu = Education(startDate, endDate, institute, degree, faculty, major, gpa, true);\r\n\t\t\tmResumeModels[msg.sender].educations[index] = edu;\r\n\t\t\treturn true;\r\n\t\t}\r\n\t\treturn false;\r\n\t}\r\n\t\r\n\tfunction updateExperience(bytes32 startDate, bytes32 endDate, bytes32 companyName, bytes32 position, uint index) public returns (bool) {\r\n\t\tif(mResumeModels[msg.sender].experiences.length > index) {\r\n\t\t\tExperience memory exp = Experience(startDate, endDate, companyName, position, true);\r\n\t\t\tmResumeModels[msg.sender].experiences[index] = exp;\r\n\t\t\treturn true;\r\n\t\t}\r\n\t\treturn false;\r\n\t}\r\n\tfunction updateSkill(bytes32 skill, bytes32 level, bytes32 date, uint index, bytes32 resumeTitle, bytes32 summary, bytes32 motive) public returns (bool) {\r\n\t\tif(mResumeModels[msg.sender].skills.length > index) {\r\n\t\t\tSkill memory skillStruct = Skill(skill, level, date, resumeTitle, summary, motive, true);\r\n\t\t\tmResumeModels[msg.sender].skills[index] = skillStruct;\r\n\t\t\treturn true;\r\n\t\t}\r\n\t\treturn false;\r\n\t}\r\n\r\n\t//   \r\n\tfunction getPersonalInfo() external view returns (PersonalInfo[] memory) {\r\n\t\treturn mResumeModels[msg.sender].personalInfos;\r\n\t}\r\n\tfunction getEducation() public view returns (Education[] memory) {\r\n\t\treturn mResumeModels[msg.sender].educations;\r\n\t}\r\n\tfunction getExperience() public view returns (Experience[] memory) {\r\n\t\treturn mResumeModels[msg.sender].experiences;\r\n\t}\r\n\tfunction getSkill() public view returns (Skill[] memory) {\r\n\t\treturn mResumeModels[msg.sender].skills;\r\n\t}\r\n\r\n\t//   \r\n\tfunction getAllPersonalInfo()  external view returns (PersonalInfo[][] memory) {\r\n\t\tPersonalInfo[][] memory allPersonalInfos;\r\n\t\tfor(uint i = 0; i < registeredArray.length; i++) {\r\n\t\t\tallPersonalInfos[i] = mResumeModels[registeredArray[i]].personalInfos;\r\n\t\t}\r\n\t\treturn allPersonalInfos;\r\n\t}\r\n\tfunction getAllEducation()  external view returns (Education[][] memory) {\r\n\t\tEducation[][] memory allEducations;\r\n\t\tfor(uint i = 0; i < registeredArray.length; i++) {\r\n\t\t\tallEducations[i] = mResumeModels[registeredArray[i]].educations;\r\n\t\t}\r\n\t\treturn allEducations;\r\n\t}\r\n\tfunction getAllExperience()  external view returns (Experience[][] memory) {\r\n\t\tExperience[][] memory allExperiences;\r\n\t\tfor(uint i = 0; i < registeredArray.length; i++) {\r\n\t\t\tallExperiences[i] = mResumeModels[registeredArray[i]].experiences;\r\n\t\t}\r\n\t\treturn allExperiences;\r\n\t}\r\n\tfunction getAllSkill()  external view returns (Skill[][] memory) {\r\n\t\tSkill[][] memory allSkills;\r\n\t\tfor(uint i = 0; i < registeredArray.length; i++) {\r\n\t\t\tallSkills[i] = mResumeModels[registeredArray[i]].skills;\r\n\t\t}\r\n\t\treturn allSkills;\r\n\t}\r\n\r\n\t//   \r\n\tfunction remove(uint index) public returns (bool) {\r\n\t\tif(mResumeModels[msg.sender].personalInfos.length > index) {\r\n\t\t\tfor(uint i = index; i < mResumeModels[msg.sender].personalInfos.length-1; i++) {\r\n\t\t\t\tmResumeModels[msg.sender].personalInfos[i] = mResumeModels[msg.sender].personalInfos[i+1];\r\n\t\t\t\tmResumeModels[msg.sender].educations[i] = mResumeModels[msg.sender].educations[i+1];\r\n\t\t\t\tmResumeModels[msg.sender].experiences[i] = mResumeModels[msg.sender].experiences[i+1];\r\n\t\t\t\tmResumeModels[msg.sender].skills[i] = mResumeModels[msg.sender].skills[i+1];\r\n\t\t\t}\r\n\r\n\t\t\tmResumeModels[msg.sender].personalInfos.pop();\r\n\t\t\tmResumeModels[msg.sender].educations.pop();\r\n\t\t\tmResumeModels[msg.sender].experiences.pop();\r\n\t\t\tmResumeModels[msg.sender].skills.pop();\r\n\t\r\n\t\t\treturn true;\r\n\t\t}\r\n\t\treturn false;\r\n\t}\r\n}",
  "sourcePath": "C:\\Users\\davej\\Desktop\\workspace\\123\\web3-test\\contracts\\ResumeContract.sol",
  "compiler": {
    "name": "solc",
    "version": "0.8.13+commit.abaa5c0e.Emscripten.clang"
  },
  "schemaVersion": "3.4.3",
  "updatedAt": "2022-05-20T13:27:53.302Z",
  "networkType": "ethereum",
  "devdoc": {
    "kind": "dev",
    "methods": {},
    "version": 1
  },
  "userdoc": {
    "kind": "user",
    "methods": {},
    "version": 1
  }
}