{
  "contractName": "ResumeContract",
  "abi": [
    {
      "inputs": [],
      "stateMutability": "nonpayable",
      "type": "constructor"
    },
    {
      "anonymous": false,
      "inputs": [
        {
          "indexed": false,
          "internalType": "bytes32",
          "name": "startDate",
          "type": "bytes32"
        },
        {
          "indexed": false,
          "internalType": "bytes32",
          "name": "endDate",
          "type": "bytes32"
        },
        {
          "indexed": false,
          "internalType": "bytes32",
          "name": "institute",
          "type": "bytes32"
        },
        {
          "indexed": false,
          "internalType": "bytes32",
          "name": "degree",
          "type": "bytes32"
        },
        {
          "indexed": false,
          "internalType": "bytes32",
          "name": "faculty",
          "type": "bytes32"
        },
        {
          "indexed": false,
          "internalType": "bytes32",
          "name": "major",
          "type": "bytes32"
        },
        {
          "indexed": false,
          "internalType": "bytes32",
          "name": "gpa",
          "type": "bytes32"
        },
        {
          "indexed": false,
          "internalType": "uint256",
          "name": "count",
          "type": "uint256"
        },
        {
          "indexed": false,
          "internalType": "uint256",
          "name": "index",
          "type": "uint256"
        }
      ],
      "name": "educationEvent",
      "type": "event"
    },
    {
      "anonymous": false,
      "inputs": [
        {
          "indexed": false,
          "internalType": "bytes32",
          "name": "startDate",
          "type": "bytes32"
        },
        {
          "indexed": false,
          "internalType": "bytes32",
          "name": "endDate",
          "type": "bytes32"
        },
        {
          "indexed": false,
          "internalType": "bytes32",
          "name": "companyName",
          "type": "bytes32"
        },
        {
          "indexed": false,
          "internalType": "bytes32",
          "name": "position",
          "type": "bytes32"
        },
        {
          "indexed": false,
          "internalType": "uint256",
          "name": "count",
          "type": "uint256"
        },
        {
          "indexed": false,
          "internalType": "uint256",
          "name": "index",
          "type": "uint256"
        }
      ],
      "name": "experienceEvent",
      "type": "event"
    },
    {
      "anonymous": false,
      "inputs": [
        {
          "indexed": false,
          "internalType": "bytes32",
          "name": "picUrl",
          "type": "bytes32"
        },
        {
          "indexed": false,
          "internalType": "bytes32",
          "name": "name",
          "type": "bytes32"
        },
        {
          "indexed": false,
          "internalType": "bytes32",
          "name": "phone",
          "type": "bytes32"
        },
        {
          "indexed": false,
          "internalType": "bytes32",
          "name": "email",
          "type": "bytes32"
        },
        {
          "indexed": false,
          "internalType": "bytes32",
          "name": "dateOfBirth",
          "type": "bytes32"
        },
        {
          "indexed": false,
          "internalType": "bytes32",
          "name": "socialUrl",
          "type": "bytes32"
        },
        {
          "indexed": false,
          "internalType": "bytes32",
          "name": "location",
          "type": "bytes32"
        }
      ],
      "name": "personalInfoEvent",
      "type": "event"
    },
    {
      "anonymous": false,
      "inputs": [],
      "name": "resumeEmptyEvent",
      "type": "event"
    },
    {
      "anonymous": false,
      "inputs": [
        {
          "indexed": false,
          "internalType": "bytes32",
          "name": "skillName",
          "type": "bytes32"
        },
        {
          "indexed": false,
          "internalType": "bytes32",
          "name": "level",
          "type": "bytes32"
        },
        {
          "indexed": false,
          "internalType": "bytes32",
          "name": "date",
          "type": "bytes32"
        },
        {
          "indexed": false,
          "internalType": "uint256",
          "name": "count",
          "type": "uint256"
        },
        {
          "indexed": false,
          "internalType": "uint256",
          "name": "index",
          "type": "uint256"
        }
      ],
      "name": "skillEvent",
      "type": "event"
    },
    {
      "inputs": [
        {
          "internalType": "bytes32",
          "name": "picUrl",
          "type": "bytes32"
        },
        {
          "internalType": "bytes32",
          "name": "name",
          "type": "bytes32"
        },
        {
          "internalType": "bytes32",
          "name": "phone",
          "type": "bytes32"
        },
        {
          "internalType": "bytes32",
          "name": "email",
          "type": "bytes32"
        },
        {
          "internalType": "bytes32",
          "name": "dateOfBirth",
          "type": "bytes32"
        },
        {
          "internalType": "bytes32",
          "name": "socialUrl",
          "type": "bytes32"
        },
        {
          "internalType": "bytes32",
          "name": "location",
          "type": "bytes32"
        }
      ],
      "name": "addPersonalInfo",
      "outputs": [
        {
          "internalType": "bool",
          "name": "",
          "type": "bool"
        }
      ],
      "stateMutability": "nonpayable",
      "type": "function"
    },
    {
      "inputs": [
        {
          "internalType": "bytes32",
          "name": "startDate",
          "type": "bytes32"
        },
        {
          "internalType": "bytes32",
          "name": "endDate",
          "type": "bytes32"
        },
        {
          "internalType": "bytes32",
          "name": "institute",
          "type": "bytes32"
        },
        {
          "internalType": "bytes32",
          "name": "degree",
          "type": "bytes32"
        },
        {
          "internalType": "bytes32",
          "name": "faculty",
          "type": "bytes32"
        },
        {
          "internalType": "bytes32",
          "name": "major",
          "type": "bytes32"
        },
        {
          "internalType": "bytes32",
          "name": "gpa",
          "type": "bytes32"
        }
      ],
      "name": "addEducation",
      "outputs": [
        {
          "internalType": "bool",
          "name": "",
          "type": "bool"
        }
      ],
      "stateMutability": "nonpayable",
      "type": "function"
    },
    {
      "inputs": [
        {
          "internalType": "bytes32",
          "name": "startDate",
          "type": "bytes32"
        },
        {
          "internalType": "bytes32",
          "name": "endDate",
          "type": "bytes32"
        },
        {
          "internalType": "bytes32",
          "name": "companyName",
          "type": "bytes32"
        },
        {
          "internalType": "bytes32",
          "name": "position",
          "type": "bytes32"
        }
      ],
      "name": "addExperience",
      "outputs": [
        {
          "internalType": "bool",
          "name": "",
          "type": "bool"
        }
      ],
      "stateMutability": "nonpayable",
      "type": "function"
    },
    {
      "inputs": [
        {
          "internalType": "bytes32",
          "name": "skill",
          "type": "bytes32"
        },
        {
          "internalType": "bytes32",
          "name": "level",
          "type": "bytes32"
        },
        {
          "internalType": "bytes32",
          "name": "date",
          "type": "bytes32"
        }
      ],
      "name": "addSkill",
      "outputs": [
        {
          "internalType": "bool",
          "name": "",
          "type": "bool"
        }
      ],
      "stateMutability": "nonpayable",
      "type": "function"
    },
    {
      "inputs": [
        {
          "internalType": "bytes32",
          "name": "startDate",
          "type": "bytes32"
        },
        {
          "internalType": "bytes32",
          "name": "endDate",
          "type": "bytes32"
        },
        {
          "internalType": "bytes32",
          "name": "institute",
          "type": "bytes32"
        },
        {
          "internalType": "bytes32",
          "name": "degree",
          "type": "bytes32"
        },
        {
          "internalType": "bytes32",
          "name": "faculty",
          "type": "bytes32"
        },
        {
          "internalType": "bytes32",
          "name": "major",
          "type": "bytes32"
        },
        {
          "internalType": "bytes32",
          "name": "gpa",
          "type": "bytes32"
        },
        {
          "internalType": "uint256",
          "name": "index",
          "type": "uint256"
        }
      ],
      "name": "updateEducation",
      "outputs": [
        {
          "internalType": "bool",
          "name": "",
          "type": "bool"
        }
      ],
      "stateMutability": "nonpayable",
      "type": "function"
    },
    {
      "inputs": [
        {
          "internalType": "bytes32",
          "name": "startDate",
          "type": "bytes32"
        },
        {
          "internalType": "bytes32",
          "name": "endDate",
          "type": "bytes32"
        },
        {
          "internalType": "bytes32",
          "name": "companyName",
          "type": "bytes32"
        },
        {
          "internalType": "bytes32",
          "name": "position",
          "type": "bytes32"
        },
        {
          "internalType": "uint256",
          "name": "index",
          "type": "uint256"
        }
      ],
      "name": "updateExperience",
      "outputs": [
        {
          "internalType": "bool",
          "name": "",
          "type": "bool"
        }
      ],
      "stateMutability": "nonpayable",
      "type": "function"
    },
    {
      "inputs": [
        {
          "internalType": "bytes32",
          "name": "skill",
          "type": "bytes32"
        },
        {
          "internalType": "bytes32",
          "name": "level",
          "type": "bytes32"
        },
        {
          "internalType": "bytes32",
          "name": "date",
          "type": "bytes32"
        },
        {
          "internalType": "uint256",
          "name": "index",
          "type": "uint256"
        }
      ],
      "name": "updateSkill",
      "outputs": [
        {
          "internalType": "bool",
          "name": "",
          "type": "bool"
        }
      ],
      "stateMutability": "nonpayable",
      "type": "function"
    },
    {
      "inputs": [],
      "name": "getPersonalInfo",
      "outputs": [
        {
          "components": [
            {
              "internalType": "bytes32",
              "name": "picUrl",
              "type": "bytes32"
            },
            {
              "internalType": "bytes32",
              "name": "name",
              "type": "bytes32"
            },
            {
              "internalType": "bytes32",
              "name": "phone",
              "type": "bytes32"
            },
            {
              "internalType": "bytes32",
              "name": "email",
              "type": "bytes32"
            },
            {
              "internalType": "bytes32",
              "name": "dateOfBirth",
              "type": "bytes32"
            },
            {
              "internalType": "bytes32",
              "name": "socialUrl",
              "type": "bytes32"
            },
            {
              "internalType": "bytes32",
              "name": "location",
              "type": "bytes32"
            }
          ],
          "internalType": "struct ResumeContract.PersonalInfo[]",
          "name": "",
          "type": "tuple[]"
        }
      ],
      "stateMutability": "view",
      "type": "function",
      "constant": true
    },
    {
      "inputs": [],
      "name": "getEducation",
      "outputs": [
        {
          "components": [
            {
              "internalType": "bytes32",
              "name": "startDate",
              "type": "bytes32"
            },
            {
              "internalType": "bytes32",
              "name": "endDate",
              "type": "bytes32"
            },
            {
              "internalType": "bytes32",
              "name": "institute",
              "type": "bytes32"
            },
            {
              "internalType": "bytes32",
              "name": "degree",
              "type": "bytes32"
            },
            {
              "internalType": "bytes32",
              "name": "faculty",
              "type": "bytes32"
            },
            {
              "internalType": "bytes32",
              "name": "major",
              "type": "bytes32"
            },
            {
              "internalType": "bytes32",
              "name": "gpa",
              "type": "bytes32"
            },
            {
              "internalType": "bool",
              "name": "isNotEmpty",
              "type": "bool"
            }
          ],
          "internalType": "struct ResumeContract.Education[]",
          "name": "",
          "type": "tuple[]"
        }
      ],
      "stateMutability": "view",
      "type": "function",
      "constant": true
    },
    {
      "inputs": [],
      "name": "getExperience",
      "outputs": [
        {
          "components": [
            {
              "internalType": "bytes32",
              "name": "startDate",
              "type": "bytes32"
            },
            {
              "internalType": "bytes32",
              "name": "endDate",
              "type": "bytes32"
            },
            {
              "internalType": "bytes32",
              "name": "companyName",
              "type": "bytes32"
            },
            {
              "internalType": "bytes32",
              "name": "position",
              "type": "bytes32"
            },
            {
              "internalType": "bool",
              "name": "isNotEmpty",
              "type": "bool"
            }
          ],
          "internalType": "struct ResumeContract.Experience[]",
          "name": "",
          "type": "tuple[]"
        }
      ],
      "stateMutability": "view",
      "type": "function",
      "constant": true
    },
    {
      "inputs": [],
      "name": "getSkill",
      "outputs": [
        {
          "components": [
            {
              "internalType": "bytes32",
              "name": "skillName",
              "type": "bytes32"
            },
            {
              "internalType": "bytes32",
              "name": "level",
              "type": "bytes32"
            },
            {
              "internalType": "bytes32",
              "name": "date",
              "type": "bytes32"
            },
            {
              "internalType": "bool",
              "name": "isNotEmpty",
              "type": "bool"
            }
          ],
          "internalType": "struct ResumeContract.Skill[]",
          "name": "",
          "type": "tuple[]"
        }
      ],
      "stateMutability": "view",
      "type": "function",
      "constant": true
    },
    {
      "inputs": [
        {
          "internalType": "address",
          "name": "accountId",
          "type": "address"
        }
      ],
      "name": "triggerGetResumeByEvent",
      "outputs": [],
      "stateMutability": "nonpayable",
      "type": "function"
    },
    {
      "inputs": [
        {
          "internalType": "address",
          "name": "accountId",
          "type": "address"
        }
      ],
      "name": "triggerGetPersonalInfoByEvent",
      "outputs": [],
      "stateMutability": "nonpayable",
      "type": "function"
    },
    {
      "inputs": [
        {
          "internalType": "address",
          "name": "accountId",
          "type": "address"
        }
      ],
      "name": "triggerGetExperienceByEvent",
      "outputs": [],
      "stateMutability": "nonpayable",
      "type": "function"
    },
    {
      "inputs": [
        {
          "internalType": "address",
          "name": "accountId",
          "type": "address"
        }
      ],
      "name": "triggerGetEducationByEvent",
      "outputs": [],
      "stateMutability": "nonpayable",
      "type": "function"
    },
    {
      "inputs": [
        {
          "internalType": "address",
          "name": "accountId",
          "type": "address"
        }
      ],
      "name": "triggerGetSkillByEvent",
      "outputs": [],
      "stateMutability": "nonpayable",
      "type": "function"
    }
  ],
  "bytecode": "0x608060405234801561001057600080fd5b50336000806101000a81548173ffffffffffffffffffffffffffffffffffffffff021916908373ffffffffffffffffffffffffffffffffffffffff16021790555061246d806100606000396000f3fe608060405234801561001057600080fd5b50600436106101005760003560e01c806381f539ff11610097578063cdb986cc11610066578063cdb986cc146102bf578063d2e02076146102dd578063d31025d21461030d578063eb5462561461033d57610100565b806381f539ff146102255780639ea215f014610243578063bbafa40614610273578063c829c4a2146102a357610100565b806337ff8b7e116100d357806337ff8b7e1461018d5780633cdc64c0146101a95780635b99b708146101d957806372b91240146101f557610100565b8063162c97cd14610105578063189e659e146101355780631c41e2db14610153578063275e78e814610171575b600080fd5b61011f600480360381019061011a91906118be565b610359565b60405161012c919061198f565b60405180910390f35b61013d6104d0565b60405161014a9190611acc565b60405180910390f35b61015b6105a8565b6040516101689190611c40565b60405180910390f35b61018b60048036038101906101869190611cc0565b6106a9565b005b6101a760048036038101906101a29190611cc0565b6108a5565b005b6101c360048036038101906101be9190611ced565b610a70565b6040516101d0919061198f565b60405180910390f35b6101f360048036038101906101ee9190611cc0565b610bf0565b005b61020f600480360381019061020a9190611d8f565b610c9e565b60405161021c919061198f565b60405180910390f35b61022d610dd9565b60405161023a9190611f1f565b60405180910390f35b61025d60048036038101906102589190611f41565b610ebe565b60405161026a919061198f565b60405180910390f35b61028d60048036038101906102889190611ced565b610ff0565b60405161029a919061198f565b60405180910390f35b6102bd60048036038101906102b89190611cc0565b611146565b005b6102c7611321565b6040516102d491906120bf565b60405180910390f35b6102f760048036038101906102f291906120e1565b611403565b604051610304919061198f565b60405180910390f35b61032760048036038101906103229190612148565b61154f565b604051610334919061198f565b60405180910390f35b61035760048036038101906103529190611cc0565b611692565b005b600081600160003373ffffffffffffffffffffffffffffffffffffffff1673ffffffffffffffffffffffffffffffffffffffff1681526020019081526020016000206002018054905011156104bf5760006040518061010001604052808b81526020018a815260200189815260200188815260200187815260200186815260200185815260200160011515815250905080600160003373ffffffffffffffffffffffffffffffffffffffff1673ffffffffffffffffffffffffffffffffffffffff168152602001908152602001600020600201848154811061043e5761043d6121c3565b5b9060005260206000209060080201600082015181600001556020820151816001015560408201518160020155606082015181600301556080820151816004015560a0820151816005015560c0820151816006015560e08201518160070160006101000a81548160ff02191690831515021790555090505060019150506104c4565b600090505b98975050505050505050565b6060600160003373ffffffffffffffffffffffffffffffffffffffff1673ffffffffffffffffffffffffffffffffffffffff168152602001908152602001600020600301805480602002602001604051908101604052809291908181526020016000905b8282101561059f57838290600052602060002090600402016040518060800160405290816000820154815260200160018201548152602001600282015481526020016003820160009054906101000a900460ff16151515158152505081526020019060010190610534565b50505050905090565b6060600160003373ffffffffffffffffffffffffffffffffffffffff1673ffffffffffffffffffffffffffffffffffffffff168152602001908152602001600020600201805480602002602001604051908101604052809291908181526020016000905b828210156106a0578382906000526020600020906008020160405180610100016040529081600082015481526020016001820154815260200160028201548152602001600382015481526020016004820154815260200160058201548152602001600682015481526020016007820160009054906101000a900460ff1615151515815250508152602001906001019061060c565b50505050905090565b600160008273ffffffffffffffffffffffffffffffffffffffff1673ffffffffffffffffffffffffffffffffffffffff16815260200190815260200160002060040160009054906101000a900460ff16156108a2576060600160008373ffffffffffffffffffffffffffffffffffffffff1673ffffffffffffffffffffffffffffffffffffffff168152602001908152602001600020600201805480602002602001604051908101604052809291908181526020016000905b828210156107f6578382906000526020600020906008020160405180610100016040529081600082015481526020016001820154815260200160028201548152602001600382015481526020016004820154815260200160058201548152602001600682015481526020016007820160009054906101000a900460ff16151515158152505081526020019060010190610762565b50505050905060005b815181101561089f57600082828151811061081d5761081c6121c3565b5b602002602001015190507f338a627e22e948a94ec73f04e46ede6a2e12e8a4100246916dbd5c98af353e28816000015182602001518360400151846060015185608001518660a001518760c001518a518a60405161088399989796959493929190612210565b60405180910390a1508080610897906122cc565b9150506107ff565b50505b50565b600160008273ffffffffffffffffffffffffffffffffffffffff1673ffffffffffffffffffffffffffffffffffffffff16815260200190815260200160002060040160009054906101000a900460ff1615610a6d576060600160008373ffffffffffffffffffffffffffffffffffffffff1673ffffffffffffffffffffffffffffffffffffffff168152602001908152602001600020600101805480602002602001604051908101604052809291908181526020016000905b828210156109d357838290600052602060002090600502016040518060a0016040529081600082015481526020016001820154815260200160028201548152602001600382015481526020016004820160009054906101000a900460ff1615151515815250508152602001906001019061095e565b50505050905060005b8151811015610a6a5760008282815181106109fa576109f96121c3565b5b602002602001015190507f7c333290d4ba954c8326540cf42b538ae005c4c02699071cfb7eb3e1ba2c90048160000151826020015183604001518460600151875187604051610a4e96959493929190612314565b60405180910390a1508080610a62906122cc565b9150506109dc565b50505b50565b6000806040518061010001604052808a8152602001898152602001888152602001878152602001868152602001858152602001848152602001600115158152509050600160003373ffffffffffffffffffffffffffffffffffffffff1673ffffffffffffffffffffffffffffffffffffffff168152602001908152602001600020600201819080600181540180825580915050600190039060005260206000209060080201600090919091909150600082015181600001556020820151816001015560408201518160020155606082015181600301556080820151816004015560a0820151816005015560c0820151816006015560e08201518160070160006101000a81548160ff021916908315150217905550505060018060003373ffffffffffffffffffffffffffffffffffffffff1673ffffffffffffffffffffffffffffffffffffffff16815260200190815260200160002060040160006101000a81548160ff0219169083151502179055506001915050979650505050505050565b600160008273ffffffffffffffffffffffffffffffffffffffff1673ffffffffffffffffffffffffffffffffffffffff16815260200190815260200160002060040160009054906101000a900460ff1615610c6e57610c4e81611146565b610c57816108a5565b610c60816106a9565b610c6981611692565b610c9b565b7fdb46d9c9185746ac04f85600280bf31e2ec54c2a10450a61818359dcbdd9c24260405160405180910390a15b50565b6000806040518060800160405280868152602001858152602001848152602001600115158152509050600160003373ffffffffffffffffffffffffffffffffffffffff1673ffffffffffffffffffffffffffffffffffffffff16815260200190815260200160002060030181908060018154018082558091505060019003906000526020600020906004020160009091909190915060008201518160000155602082015181600101556040820151816002015560608201518160030160006101000a81548160ff021916908315150217905550505060018060003373ffffffffffffffffffffffffffffffffffffffff1673ffffffffffffffffffffffffffffffffffffffff16815260200190815260200160002060040160006101000a81548160ff02191690831515021790555060019150509392505050565b6060600160003373ffffffffffffffffffffffffffffffffffffffff1673ffffffffffffffffffffffffffffffffffffffff168152602001908152602001600020600001805480602002602001604051908101604052809291908181526020016000905b82821015610eb557838290600052602060002090600702016040518060e001604052908160008201548152602001600182015481526020016002820154815260200160038201548152602001600482015481526020016005820154815260200160068201548152505081526020019060010190610e3d565b50505050905090565b600081600160003373ffffffffffffffffffffffffffffffffffffffff1673ffffffffffffffffffffffffffffffffffffffff168152602001908152602001600020600301805490501115610fe3576000604051806080016040528087815260200186815260200185815260200160011515815250905080600160003373ffffffffffffffffffffffffffffffffffffffff1673ffffffffffffffffffffffffffffffffffffffff1681526020019081526020016000206003018481548110610f8a57610f896121c3565b5b906000526020600020906004020160008201518160000155602082015181600101556040820151816002015560608201518160030160006101000a81548160ff0219169083151502179055509050506001915050610fe8565b600090505b949350505050565b6000806040518060e001604052808a8152602001898152602001888152602001878152602001868152602001858152602001848152509050600160003373ffffffffffffffffffffffffffffffffffffffff1673ffffffffffffffffffffffffffffffffffffffff168152602001908152602001600020600001819080600181540180825580915050600190039060005260206000209060070201600090919091909150600082015181600001556020820151816001015560408201518160020155606082015181600301556080820151816004015560a0820151816005015560c08201518160060155505060018060003373ffffffffffffffffffffffffffffffffffffffff1673ffffffffffffffffffffffffffffffffffffffff16815260200190815260200160002060040160006101000a81548160ff0219169083151502179055506001915050979650505050505050565b600160008273ffffffffffffffffffffffffffffffffffffffff1673ffffffffffffffffffffffffffffffffffffffff16815260200190815260200160002060040160009054906101000a900460ff161561131e576060600160008373ffffffffffffffffffffffffffffffffffffffff1673ffffffffffffffffffffffffffffffffffffffff168152602001908152602001600020600001805480602002602001604051908101604052809291908181526020016000905b8282101561127757838290600052602060002090600702016040518060e0016040529081600082015481526020016001820154815260200160028201548152602001600382015481526020016004820154815260200160058201548152602001600682015481525050815260200190600101906111ff565b50505050905060005b815181101561131b57600082828151811061129e5761129d6121c3565b5b602002602001015190507f08f654f1ad069805f797f3582c65cfa29cdaa444fa4fdf69a1d6a8f954fdd806816000015182602001518360400151846060015185608001518660a001518760c001516040516112ff9796959493929190612375565b60405180910390a1508080611313906122cc565b915050611280565b50505b50565b6060600160003373ffffffffffffffffffffffffffffffffffffffff1673ffffffffffffffffffffffffffffffffffffffff168152602001908152602001600020600101805480602002602001604051908101604052809291908181526020016000905b828210156113fa57838290600052602060002090600502016040518060a0016040529081600082015481526020016001820154815260200160028201548152602001600382015481526020016004820160009054906101000a900460ff16151515158152505081526020019060010190611385565b50505050905090565b6000806040518060a00160405280878152602001868152602001858152602001848152602001600115158152509050600160003373ffffffffffffffffffffffffffffffffffffffff1673ffffffffffffffffffffffffffffffffffffffff1681526020019081526020016000206001018190806001815401808255809150506001900390600052602060002090600502016000909190919091506000820151816000015560208201518160010155604082015181600201556060820151816003015560808201518160040160006101000a81548160ff021916908315150217905550505060018060003373ffffffffffffffffffffffffffffffffffffffff1673ffffffffffffffffffffffffffffffffffffffff16815260200190815260200160002060040160006101000a81548160ff0219169083151502179055506001915050949350505050565b600081600160003373ffffffffffffffffffffffffffffffffffffffff1673ffffffffffffffffffffffffffffffffffffffff1681526020019081526020016000206001018054905011156116845760006040518060a0016040528088815260200187815260200186815260200185815260200160011515815250905080600160003373ffffffffffffffffffffffffffffffffffffffff1673ffffffffffffffffffffffffffffffffffffffff1681526020019081526020016000206001018481548110611621576116206121c3565b5b90600052602060002090600502016000820151816000015560208201518160010155604082015181600201556060820151816003015560808201518160040160006101000a81548160ff0219169083151502179055509050506001915050611689565b600090505b95945050505050565b600160008273ffffffffffffffffffffffffffffffffffffffff1673ffffffffffffffffffffffffffffffffffffffff16815260200190815260200160002060040160009054906101000a900460ff161561184a576060600160008373ffffffffffffffffffffffffffffffffffffffff1673ffffffffffffffffffffffffffffffffffffffff168152602001908152602001600020600301805480602002602001604051908101604052809291908181526020016000905b828210156117b657838290600052602060002090600402016040518060800160405290816000820154815260200160018201548152602001600282015481526020016003820160009054906101000a900460ff1615151515815250508152602001906001019061174b565b50505050905060005b81518110156118475760008282815181106117dd576117dc6121c3565b5b602002602001015190507f14bf0b25d5177ec42547af690f214c8b0249bb27a6d7cfde835d114fd39a56e981600001518260200151836040015186518660405161182b9594939291906123e4565b60405180910390a150808061183f906122cc565b9150506117bf565b50505b50565b600080fd5b6000819050919050565b61186581611852565b811461187057600080fd5b50565b6000813590506118828161185c565b92915050565b6000819050919050565b61189b81611888565b81146118a657600080fd5b50565b6000813590506118b881611892565b92915050565b600080600080600080600080610100898b0312156118df576118de61184d565b5b60006118ed8b828c01611873565b98505060206118fe8b828c01611873565b975050604061190f8b828c01611873565b96505060606119208b828c01611873565b95505060806119318b828c01611873565b94505060a06119428b828c01611873565b93505060c06119538b828c01611873565b92505060e06119648b828c016118a9565b9150509295985092959890939650565b60008115159050919050565b61198981611974565b82525050565b60006020820190506119a46000830184611980565b92915050565b600081519050919050565b600082825260208201905092915050565b6000819050602082019050919050565b6119df81611852565b82525050565b6119ee81611974565b82525050565b608082016000820151611a0a60008501826119d6565b506020820151611a1d60208501826119d6565b506040820151611a3060408501826119d6565b506060820151611a4360608501826119e5565b50505050565b6000611a5583836119f4565b60808301905092915050565b6000602082019050919050565b6000611a79826119aa565b611a8381856119b5565b9350611a8e836119c6565b8060005b83811015611abf578151611aa68882611a49565b9750611ab183611a61565b925050600181019050611a92565b5085935050505092915050565b60006020820190508181036000830152611ae68184611a6e565b905092915050565b600081519050919050565b600082825260208201905092915050565b6000819050602082019050919050565b61010082016000820151611b3160008501826119d6565b506020820151611b4460208501826119d6565b506040820151611b5760408501826119d6565b506060820151611b6a60608501826119d6565b506080820151611b7d60808501826119d6565b5060a0820151611b9060a08501826119d6565b5060c0820151611ba360c08501826119d6565b5060e0820151611bb660e08501826119e5565b50505050565b6000611bc88383611b1a565b6101008301905092915050565b6000602082019050919050565b6000611bed82611aee565b611bf78185611af9565b9350611c0283611b0a565b8060005b83811015611c33578151611c1a8882611bbc565b9750611c2583611bd5565b925050600181019050611c06565b5085935050505092915050565b60006020820190508181036000830152611c5a8184611be2565b905092915050565b600073ffffffffffffffffffffffffffffffffffffffff82169050919050565b6000611c8d82611c62565b9050919050565b611c9d81611c82565b8114611ca857600080fd5b50565b600081359050611cba81611c94565b92915050565b600060208284031215611cd657611cd561184d565b5b6000611ce484828501611cab565b91505092915050565b600080600080600080600060e0888a031215611d0c57611d0b61184d565b5b6000611d1a8a828b01611873565b9750506020611d2b8a828b01611873565b9650506040611d3c8a828b01611873565b9550506060611d4d8a828b01611873565b9450506080611d5e8a828b01611873565b93505060a0611d6f8a828b01611873565b92505060c0611d808a828b01611873565b91505092959891949750929550565b600080600060608486031215611da857611da761184d565b5b6000611db686828701611873565b9350506020611dc786828701611873565b9250506040611dd886828701611873565b9150509250925092565b600081519050919050565b600082825260208201905092915050565b6000819050602082019050919050565b60e082016000820151611e2460008501826119d6565b506020820151611e3760208501826119d6565b506040820151611e4a60408501826119d6565b506060820151611e5d60608501826119d6565b506080820151611e7060808501826119d6565b5060a0820151611e8360a08501826119d6565b5060c0820151611e9660c08501826119d6565b50505050565b6000611ea88383611e0e565b60e08301905092915050565b6000602082019050919050565b6000611ecc82611de2565b611ed68185611ded565b9350611ee183611dfe565b8060005b83811015611f12578151611ef98882611e9c565b9750611f0483611eb4565b925050600181019050611ee5565b5085935050505092915050565b60006020820190508181036000830152611f398184611ec1565b905092915050565b60008060008060808587031215611f5b57611f5a61184d565b5b6000611f6987828801611873565b9450506020611f7a87828801611873565b9350506040611f8b87828801611873565b9250506060611f9c878288016118a9565b91505092959194509250565b600081519050919050565b600082825260208201905092915050565b6000819050602082019050919050565b60a082016000820151611fea60008501826119d6565b506020820151611ffd60208501826119d6565b50604082015161201060408501826119d6565b50606082015161202360608501826119d6565b50608082015161203660808501826119e5565b50505050565b60006120488383611fd4565b60a08301905092915050565b6000602082019050919050565b600061206c82611fa8565b6120768185611fb3565b935061208183611fc4565b8060005b838110156120b2578151612099888261203c565b97506120a483612054565b925050600181019050612085565b5085935050505092915050565b600060208201905081810360008301526120d98184612061565b905092915050565b600080600080608085870312156120fb576120fa61184d565b5b600061210987828801611873565b945050602061211a87828801611873565b935050604061212b87828801611873565b925050606061213c87828801611873565b91505092959194509250565b600080600080600060a086880312156121645761216361184d565b5b600061217288828901611873565b955050602061218388828901611873565b945050604061219488828901611873565b93505060606121a588828901611873565b92505060806121b6888289016118a9565b9150509295509295909350565b7f4e487b7100000000000000000000000000000000000000000000000000000000600052603260045260246000fd5b6121fb81611852565b82525050565b61220a81611888565b82525050565b600061012082019050612226600083018c6121f2565b612233602083018b6121f2565b612240604083018a6121f2565b61224d60608301896121f2565b61225a60808301886121f2565b61226760a08301876121f2565b61227460c08301866121f2565b61228160e0830185612201565b61228f610100830184612201565b9a9950505050505050505050565b7f4e487b7100000000000000000000000000000000000000000000000000000000600052601160045260246000fd5b60006122d782611888565b91507fffffffffffffffffffffffffffffffffffffffffffffffffffffffffffffffff82036123095761230861229d565b5b600182019050919050565b600060c08201905061232960008301896121f2565b61233660208301886121f2565b61234360408301876121f2565b61235060608301866121f2565b61235d6080830185612201565b61236a60a0830184612201565b979650505050505050565b600060e08201905061238a600083018a6121f2565b61239760208301896121f2565b6123a460408301886121f2565b6123b160608301876121f2565b6123be60808301866121f2565b6123cb60a08301856121f2565b6123d860c08301846121f2565b98975050505050505050565b600060a0820190506123f960008301886121f2565b61240660208301876121f2565b61241360408301866121f2565b6124206060830185612201565b61242d6080830184612201565b969550505050505056fea26469706673582212209a35438466cf94733bf594040d21fd5eae0796811af6659074beb7ca5d7429d564736f6c634300080d0033",
  "immutableReferences": {},
  "source": "// SPDX-License-Identifier: MIT\r\npragma solidity ^0.8.13;\r\n\r\nimport \"./Ownable.sol\";\r\n\r\ncontract ResumeContract is Ownable {\r\n\r\n\t// Constructor\r\n\tconstructor() {}\r\n\r\n\t//  \r\n\tstruct PersonalInfo {\r\n\t\tbytes32 picUrl; // \r\n\t\tbytes32 name; // \r\n\t\tbytes32 phone; // \r\n\t\tbytes32 email; // \r\n\t\tbytes32 dateOfBirth; // \r\n\t\tbytes32 socialUrl; //  ,    Url\r\n\t\tbytes32 location; // \r\n\t}\r\n\r\n\t//    \r\n\tstruct Education {\r\n\t\tbytes32 startDate; //  \r\n\t\tbytes32 endDate; //  \r\n\t\tbytes32 institute; //  \r\n\t\tbytes32 degree; // \r\n\t\tbytes32 faculty; // \r\n\t\tbytes32 major; // \r\n\t\tbytes32 gpa; // \r\n\t\tbool isNotEmpty;\r\n\t}\r\n\r\n\tstruct Experience {\r\n\t\tbytes32 startDate; //  \r\n\t\tbytes32 endDate; //  \r\n\t\tbytes32 companyName; // \r\n\t\tbytes32 position; // \r\n\t\tbool isNotEmpty;\r\n\t}\r\n\r\n\t//     \r\n\tstruct Skill {\r\n\t\tbytes32 skillName; // , \r\n\t\tbytes32 level; //   ,  \r\n\t\tbytes32 date; //  \r\n\t\tbool isNotEmpty;\r\n\t}\r\n\r\n\r\n\tstruct ResumeModel {\r\n\t\tPersonalInfo[] personalInfos;\r\n\t\tExperience[] experiences;\r\n\t\tEducation[] educations;\r\n\t\tSkill[] skills;\r\n\t\tbool isNotEmpty;\r\n\t}\r\n\r\n\tmapping (address => ResumeModel) mResumeModels;\r\n\r\n\t//   \r\n\tfunction addPersonalInfo(bytes32 picUrl, bytes32 name, bytes32 phone, bytes32 email, bytes32 dateOfBirth, bytes32 socialUrl, bytes32 location) public returns (bool) {\r\n\t\tPersonalInfo memory info = PersonalInfo(picUrl, name, phone, email, dateOfBirth, socialUrl, location);\r\n\t\tmResumeModels[msg.sender].personalInfos.push(info);\r\n\t\tmResumeModels[msg.sender].isNotEmpty = true;\r\n\t\treturn true;\r\n\t}\r\n\r\n\tfunction addEducation(bytes32 startDate, bytes32 endDate, bytes32 institute, bytes32 degree, bytes32 faculty, bytes32 major, bytes32 gpa) public returns (bool) {\r\n\t\tEducation memory edu = Education(startDate, endDate, institute, degree, faculty, major, gpa, true);\r\n\t\tmResumeModels[msg.sender].educations.push(edu);\r\n\t\tmResumeModels[msg.sender].isNotEmpty = true;\r\n\t\treturn true;\r\n\t}\r\n\r\n\tfunction addExperience(bytes32 startDate, bytes32 endDate, bytes32 companyName, bytes32 position) public returns (bool) {\r\n\t\tExperience memory exp = Experience(startDate, endDate, companyName, position, true);\r\n\t\tmResumeModels[msg.sender].experiences.push(exp);\r\n\t\tmResumeModels[msg.sender].isNotEmpty = true;\r\n\t\treturn true;\r\n\t}\r\n\r\n\tfunction addSkill(bytes32 skill, bytes32 level, bytes32 date) public returns (bool) {\r\n\t\tSkill memory skillStruct = Skill(skill, level, date, true);\r\n\t\tmResumeModels[msg.sender].skills.push(skillStruct);\r\n\t\tmResumeModels[msg.sender].isNotEmpty = true;\r\n\t\treturn true;\r\n\t}\r\n\r\n\t//   \r\n\tfunction updateEducation(bytes32 startDate, bytes32 endDate, bytes32 institute, bytes32 degree, bytes32 faculty, bytes32 major, bytes32 gpa, uint index) public returns (bool) {\r\n\t\tif(mResumeModels[msg.sender].educations.length > index) {\r\n\t\t\tEducation memory edu = Education(startDate, endDate, institute, degree, faculty, major, gpa, true);\r\n\t\t\tmResumeModels[msg.sender].educations[index] = edu;\r\n\t\t\treturn true;\r\n\t\t}\r\n\t\treturn false;\r\n\t}\r\n\t\r\n\tfunction updateExperience(bytes32 startDate, bytes32 endDate, bytes32 companyName, bytes32 position, uint index) public returns(bool) {\r\n\t\tif(mResumeModels[msg.sender].experiences.length > index) {\r\n\t\t\tExperience memory exp = Experience(startDate, endDate, companyName, position, true);\r\n\t\t\tmResumeModels[msg.sender].experiences[index] = exp;\r\n\t\t\treturn true;\r\n\t\t}\r\n\t\treturn false;\r\n\t}\r\n\r\n\tfunction updateSkill(bytes32 skill, bytes32 level, bytes32 date, uint index) public returns (bool) {\r\n\t\tif(mResumeModels[msg.sender].skills.length > index) {\r\n\t\t\tSkill memory skillStruct = Skill(skill, level, date, true);\r\n\t\t\tmResumeModels[msg.sender].skills[index] = skillStruct;\r\n\t\t\treturn true;\r\n\t\t}\r\n\t\treturn false;\r\n\t}\r\n\t\r\n\t//   \r\n\tfunction getPersonalInfo() external view returns(PersonalInfo[] memory) {\r\n\t\treturn mResumeModels[msg.sender].personalInfos;\r\n\t}\r\n\r\n\tfunction getEducation() public view returns (Education[] memory) {\r\n\t\treturn mResumeModels[msg.sender].educations;\r\n\t}\r\n\r\n\tfunction getExperience() public view returns (Experience[] memory) {\r\n\t\treturn  mResumeModels[msg.sender].experiences;\r\n\t}\r\n\r\n\tfunction getSkill() public view returns (Skill[] memory) {\r\n\t\treturn  mResumeModels[msg.sender].skills;\r\n\t}\r\n\r\n\r\n\tevent personalInfoEvent(bytes32 picUrl, bytes32 name, bytes32 phone, bytes32 email, bytes32 dateOfBirth, bytes32 socialUrl, bytes32 location);\r\n\r\n\tevent educationEvent(bytes32 startDate, bytes32 endDate, bytes32 institute, bytes32 degree, bytes32 faculty, bytes32 major, bytes32 gpa, uint count, uint index);\r\n\t\t \r\n\tevent experienceEvent(bytes32 startDate, bytes32 endDate, bytes32 companyName, bytes32 position, uint count, uint index);\r\n\r\n\tevent skillEvent(bytes32 skillName, bytes32 level, bytes32 date, uint count, uint index);\r\n\r\n\tevent resumeEmptyEvent();\r\n\r\n\r\n\tfunction triggerGetResumeByEvent(address accountId) public {\r\n\t\tif(mResumeModels[accountId].isNotEmpty){\r\n\t\t\ttriggerGetPersonalInfoByEvent(accountId);\r\n\t\t\ttriggerGetExperienceByEvent(accountId);\r\n\t\t\ttriggerGetEducationByEvent(accountId);\r\n\t\t\ttriggerGetSkillByEvent(accountId);\r\n\t\t}else{\r\n\t\t\temit resumeEmptyEvent();\r\n\t\t}\r\n\t}\r\n\r\n\tfunction triggerGetPersonalInfoByEvent(address accountId) public {\r\n\t\tif(mResumeModels[accountId].isNotEmpty) {\r\n\t\t\tPersonalInfo[] memory info;\r\n\t\t\tinfo = mResumeModels[accountId].personalInfos;\r\n\r\n\t\t\tfor(uint i=0; i < info.length; i++) {\r\n\t\t\t\tPersonalInfo memory inf = info[i];\r\n\t\t\t\temit personalInfoEvent(inf.picUrl, inf.name, inf.phone, inf.email, inf.dateOfBirth, inf.socialUrl, inf.location);\r\n\t\t\t}\r\n\t\t}\r\n\t}\r\n\r\n\tfunction triggerGetExperienceByEvent(address accountId) public {\r\n\t\tif(mResumeModels[accountId].isNotEmpty) {\r\n\t\t\tExperience[] memory expList;\r\n\t\t\texpList = mResumeModels[accountId].experiences;\r\n\r\n\t\t\tfor(uint i=0; i < expList.length; i++) {\r\n\t\t\t\tExperience memory exp = expList[i];\r\n\t\t\t\temit experienceEvent(exp.startDate, exp.endDate, exp.companyName, exp.position, expList.length, i);\r\n\t\t\t}\r\n\t\t}\r\n\t}\r\n\r\n\tfunction triggerGetEducationByEvent(address accountId) public {\r\n\t\tif(mResumeModels[accountId].isNotEmpty) {\r\n\t\t\tEducation[] memory eduList;\r\n\t\t\teduList = mResumeModels[accountId].educations;\r\n\r\n\t\t\tfor(uint i=0; i < eduList.length; i++) {\r\n\t\t\t\tEducation memory edu = eduList[i];\r\n\t\t\t\temit educationEvent(edu.startDate, edu.endDate, edu.institute, edu.degree, edu.faculty, edu.major, edu.gpa, eduList.length, i);\r\n\t\t\t}\r\n\t\t}\r\n\t}\r\n\r\n\tfunction triggerGetSkillByEvent(address accountId) public {\r\n\t\tif(mResumeModels[accountId].isNotEmpty) {\r\n\t\t\tSkill[] memory skillList;\r\n\t\t\tskillList = mResumeModels[accountId].skills;\r\n\r\n\t\t\tfor(uint i=0; i < skillList.length; i++) {\r\n\t\t\t\tSkill memory skill = skillList[i];\r\n\t\t\t\temit skillEvent(skill.skillName, skill.level, skill.date, skillList.length, i);\r\n\t\t\t}\r\n\t\t}\r\n\t}\r\n}",
  "sourcePath": "C:\\Users\\davej\\Desktop\\workspace\\Capstone\\contracts\\ResumeContract.sol",
  "compiler": {
    "name": "solc",
    "version": "0.8.13+commit.abaa5c0e.Emscripten.clang"
  },
  "schemaVersion": "3.4.7",
  "updatedAt": "2022-05-03T12:39:12.210Z",
  "networkType": "ethereum",
  "devdoc": {
    "kind": "dev",
    "methods": {},
    "version": 1
  },
  "userdoc": {
    "kind": "user",
    "methods": {},
    "version": 1
  }
}