{
  "contractName": "ResumeContract",
  "abi": [
    {
      "inputs": [],
      "stateMutability": "nonpayable",
      "type": "constructor"
    },
    {
      "anonymous": false,
      "inputs": [
        {
          "indexed": false,
          "internalType": "bytes32",
          "name": "eduStartDate",
          "type": "bytes32"
        },
        {
          "indexed": false,
          "internalType": "bytes32",
          "name": "eduEndDate",
          "type": "bytes32"
        },
        {
          "indexed": false,
          "internalType": "bytes32",
          "name": "institute",
          "type": "bytes32"
        },
        {
          "indexed": false,
          "internalType": "bytes32",
          "name": "degree",
          "type": "bytes32"
        },
        {
          "indexed": false,
          "internalType": "bytes32",
          "name": "faculty",
          "type": "bytes32"
        },
        {
          "indexed": false,
          "internalType": "bytes32",
          "name": "major",
          "type": "bytes32"
        },
        {
          "indexed": false,
          "internalType": "bytes32",
          "name": "gpa",
          "type": "bytes32"
        },
        {
          "indexed": false,
          "internalType": "uint256",
          "name": "count",
          "type": "uint256"
        },
        {
          "indexed": false,
          "internalType": "uint256",
          "name": "index",
          "type": "uint256"
        }
      ],
      "name": "educationEvent",
      "type": "event"
    },
    {
      "anonymous": false,
      "inputs": [
        {
          "indexed": false,
          "internalType": "bytes32",
          "name": "expStartDate",
          "type": "bytes32"
        },
        {
          "indexed": false,
          "internalType": "bytes32",
          "name": "expEndDate",
          "type": "bytes32"
        },
        {
          "indexed": false,
          "internalType": "bytes32",
          "name": "companyName",
          "type": "bytes32"
        },
        {
          "indexed": false,
          "internalType": "bytes32",
          "name": "position",
          "type": "bytes32"
        },
        {
          "indexed": false,
          "internalType": "uint256",
          "name": "count",
          "type": "uint256"
        },
        {
          "indexed": false,
          "internalType": "uint256",
          "name": "index",
          "type": "uint256"
        }
      ],
      "name": "experienceEvent",
      "type": "event"
    },
    {
      "anonymous": false,
      "inputs": [
        {
          "indexed": false,
          "internalType": "bytes32",
          "name": "picUrl",
          "type": "bytes32"
        },
        {
          "indexed": false,
          "internalType": "bytes32",
          "name": "name",
          "type": "bytes32"
        },
        {
          "indexed": false,
          "internalType": "bytes32",
          "name": "phone",
          "type": "bytes32"
        },
        {
          "indexed": false,
          "internalType": "bytes32",
          "name": "email",
          "type": "bytes32"
        },
        {
          "indexed": false,
          "internalType": "bytes32",
          "name": "dateOfBirth",
          "type": "bytes32"
        },
        {
          "indexed": false,
          "internalType": "bytes32",
          "name": "socialUrl",
          "type": "bytes32"
        },
        {
          "indexed": false,
          "internalType": "bytes32",
          "name": "location",
          "type": "bytes32"
        }
      ],
      "name": "personalInfoEvent",
      "type": "event"
    },
    {
      "anonymous": false,
      "inputs": [],
      "name": "resumeEmptyEvent",
      "type": "event"
    },
    {
      "anonymous": false,
      "inputs": [
        {
          "indexed": false,
          "internalType": "bytes32",
          "name": "skillName",
          "type": "bytes32"
        },
        {
          "indexed": false,
          "internalType": "bytes32",
          "name": "level",
          "type": "bytes32"
        },
        {
          "indexed": false,
          "internalType": "bytes32",
          "name": "date",
          "type": "bytes32"
        },
        {
          "indexed": false,
          "internalType": "uint256",
          "name": "count",
          "type": "uint256"
        },
        {
          "indexed": false,
          "internalType": "uint256",
          "name": "index",
          "type": "uint256"
        }
      ],
      "name": "skillEvent",
      "type": "event"
    },
    {
      "inputs": [
        {
          "internalType": "uint256",
          "name": "",
          "type": "uint256"
        }
      ],
      "name": "registeredArray",
      "outputs": [
        {
          "internalType": "address",
          "name": "",
          "type": "address"
        }
      ],
      "stateMutability": "view",
      "type": "function",
      "constant": true
    },
    {
      "inputs": [],
      "name": "resumeCount",
      "outputs": [
        {
          "internalType": "uint256",
          "name": "",
          "type": "uint256"
        }
      ],
      "stateMutability": "view",
      "type": "function",
      "constant": true
    },
    {
      "inputs": [],
      "name": "getUsers",
      "outputs": [
        {
          "internalType": "address[]",
          "name": "",
          "type": "address[]"
        }
      ],
      "stateMutability": "view",
      "type": "function",
      "constant": true
    },
    {
      "inputs": [
        {
          "internalType": "bytes32",
          "name": "picUrl",
          "type": "bytes32"
        },
        {
          "internalType": "bytes32",
          "name": "name",
          "type": "bytes32"
        },
        {
          "internalType": "bytes32",
          "name": "phone",
          "type": "bytes32"
        },
        {
          "internalType": "bytes32",
          "name": "email",
          "type": "bytes32"
        },
        {
          "internalType": "bytes32",
          "name": "dateOfBirth",
          "type": "bytes32"
        },
        {
          "internalType": "bytes32",
          "name": "socialUrl",
          "type": "bytes32"
        },
        {
          "internalType": "bytes32",
          "name": "location",
          "type": "bytes32"
        }
      ],
      "name": "addPersonalInfo",
      "outputs": [
        {
          "internalType": "bool",
          "name": "",
          "type": "bool"
        }
      ],
      "stateMutability": "nonpayable",
      "type": "function"
    },
    {
      "inputs": [
        {
          "internalType": "bytes32",
          "name": "startDate",
          "type": "bytes32"
        },
        {
          "internalType": "bytes32",
          "name": "endDate",
          "type": "bytes32"
        },
        {
          "internalType": "bytes32",
          "name": "institute",
          "type": "bytes32"
        },
        {
          "internalType": "bytes32",
          "name": "degree",
          "type": "bytes32"
        },
        {
          "internalType": "bytes32",
          "name": "faculty",
          "type": "bytes32"
        },
        {
          "internalType": "bytes32",
          "name": "major",
          "type": "bytes32"
        },
        {
          "internalType": "bytes32",
          "name": "gpa",
          "type": "bytes32"
        }
      ],
      "name": "addEducation",
      "outputs": [
        {
          "internalType": "bool",
          "name": "",
          "type": "bool"
        }
      ],
      "stateMutability": "nonpayable",
      "type": "function"
    },
    {
      "inputs": [
        {
          "internalType": "bytes32",
          "name": "startDate",
          "type": "bytes32"
        },
        {
          "internalType": "bytes32",
          "name": "endDate",
          "type": "bytes32"
        },
        {
          "internalType": "bytes32",
          "name": "companyName",
          "type": "bytes32"
        },
        {
          "internalType": "bytes32",
          "name": "position",
          "type": "bytes32"
        }
      ],
      "name": "addExperience",
      "outputs": [
        {
          "internalType": "bool",
          "name": "",
          "type": "bool"
        }
      ],
      "stateMutability": "nonpayable",
      "type": "function"
    },
    {
      "inputs": [
        {
          "internalType": "bytes32",
          "name": "skill",
          "type": "bytes32"
        },
        {
          "internalType": "bytes32",
          "name": "level",
          "type": "bytes32"
        },
        {
          "internalType": "bytes32",
          "name": "date",
          "type": "bytes32"
        }
      ],
      "name": "addSkill",
      "outputs": [
        {
          "internalType": "bool",
          "name": "",
          "type": "bool"
        }
      ],
      "stateMutability": "nonpayable",
      "type": "function"
    },
    {
      "inputs": [
        {
          "internalType": "bytes32",
          "name": "picUrl",
          "type": "bytes32"
        },
        {
          "internalType": "bytes32",
          "name": "name",
          "type": "bytes32"
        },
        {
          "internalType": "bytes32",
          "name": "phone",
          "type": "bytes32"
        },
        {
          "internalType": "bytes32",
          "name": "email",
          "type": "bytes32"
        },
        {
          "internalType": "bytes32",
          "name": "dateOfBirth",
          "type": "bytes32"
        },
        {
          "internalType": "bytes32",
          "name": "socialUrl",
          "type": "bytes32"
        },
        {
          "internalType": "bytes32",
          "name": "location",
          "type": "bytes32"
        },
        {
          "internalType": "uint256",
          "name": "index",
          "type": "uint256"
        }
      ],
      "name": "updatePersonalInfo",
      "outputs": [
        {
          "internalType": "bool",
          "name": "",
          "type": "bool"
        }
      ],
      "stateMutability": "nonpayable",
      "type": "function"
    },
    {
      "inputs": [
        {
          "internalType": "bytes32",
          "name": "eduStartDate",
          "type": "bytes32"
        },
        {
          "internalType": "bytes32",
          "name": "eduEndDate",
          "type": "bytes32"
        },
        {
          "internalType": "bytes32",
          "name": "institute",
          "type": "bytes32"
        },
        {
          "internalType": "bytes32",
          "name": "degree",
          "type": "bytes32"
        },
        {
          "internalType": "bytes32",
          "name": "faculty",
          "type": "bytes32"
        },
        {
          "internalType": "bytes32",
          "name": "major",
          "type": "bytes32"
        },
        {
          "internalType": "bytes32",
          "name": "gpa",
          "type": "bytes32"
        },
        {
          "internalType": "uint256",
          "name": "index",
          "type": "uint256"
        }
      ],
      "name": "updateEducation",
      "outputs": [
        {
          "internalType": "bool",
          "name": "",
          "type": "bool"
        }
      ],
      "stateMutability": "nonpayable",
      "type": "function"
    },
    {
      "inputs": [
        {
          "internalType": "bytes32",
          "name": "expStartDate",
          "type": "bytes32"
        },
        {
          "internalType": "bytes32",
          "name": "expEndDate",
          "type": "bytes32"
        },
        {
          "internalType": "bytes32",
          "name": "companyName",
          "type": "bytes32"
        },
        {
          "internalType": "bytes32",
          "name": "position",
          "type": "bytes32"
        },
        {
          "internalType": "uint256",
          "name": "index",
          "type": "uint256"
        }
      ],
      "name": "updateExperience",
      "outputs": [
        {
          "internalType": "bool",
          "name": "",
          "type": "bool"
        }
      ],
      "stateMutability": "nonpayable",
      "type": "function"
    },
    {
      "inputs": [
        {
          "internalType": "bytes32",
          "name": "skill",
          "type": "bytes32"
        },
        {
          "internalType": "bytes32",
          "name": "level",
          "type": "bytes32"
        },
        {
          "internalType": "bytes32",
          "name": "date",
          "type": "bytes32"
        },
        {
          "internalType": "uint256",
          "name": "index",
          "type": "uint256"
        }
      ],
      "name": "updateSkill",
      "outputs": [
        {
          "internalType": "bool",
          "name": "",
          "type": "bool"
        }
      ],
      "stateMutability": "nonpayable",
      "type": "function"
    },
    {
      "inputs": [],
      "name": "getPersonalInfo",
      "outputs": [
        {
          "components": [
            {
              "internalType": "bytes32",
              "name": "picUrl",
              "type": "bytes32"
            },
            {
              "internalType": "bytes32",
              "name": "name",
              "type": "bytes32"
            },
            {
              "internalType": "bytes32",
              "name": "phone",
              "type": "bytes32"
            },
            {
              "internalType": "bytes32",
              "name": "email",
              "type": "bytes32"
            },
            {
              "internalType": "bytes32",
              "name": "dateOfBirth",
              "type": "bytes32"
            },
            {
              "internalType": "bytes32",
              "name": "socialUrl",
              "type": "bytes32"
            },
            {
              "internalType": "bytes32",
              "name": "location",
              "type": "bytes32"
            }
          ],
          "internalType": "struct ResumeContract.PersonalInfo[]",
          "name": "",
          "type": "tuple[]"
        }
      ],
      "stateMutability": "view",
      "type": "function",
      "constant": true
    },
    {
      "inputs": [],
      "name": "getEducation",
      "outputs": [
        {
          "components": [
            {
              "internalType": "bytes32",
              "name": "eduStartDate",
              "type": "bytes32"
            },
            {
              "internalType": "bytes32",
              "name": "eduEndDate",
              "type": "bytes32"
            },
            {
              "internalType": "bytes32",
              "name": "institute",
              "type": "bytes32"
            },
            {
              "internalType": "bytes32",
              "name": "degree",
              "type": "bytes32"
            },
            {
              "internalType": "bytes32",
              "name": "faculty",
              "type": "bytes32"
            },
            {
              "internalType": "bytes32",
              "name": "major",
              "type": "bytes32"
            },
            {
              "internalType": "bytes32",
              "name": "gpa",
              "type": "bytes32"
            },
            {
              "internalType": "bool",
              "name": "isNotEmpty",
              "type": "bool"
            }
          ],
          "internalType": "struct ResumeContract.Education[]",
          "name": "",
          "type": "tuple[]"
        }
      ],
      "stateMutability": "view",
      "type": "function",
      "constant": true
    },
    {
      "inputs": [],
      "name": "getExperience",
      "outputs": [
        {
          "components": [
            {
              "internalType": "bytes32",
              "name": "expStartDate",
              "type": "bytes32"
            },
            {
              "internalType": "bytes32",
              "name": "expEndDate",
              "type": "bytes32"
            },
            {
              "internalType": "bytes32",
              "name": "companyName",
              "type": "bytes32"
            },
            {
              "internalType": "bytes32",
              "name": "position",
              "type": "bytes32"
            },
            {
              "internalType": "bool",
              "name": "isNotEmpty",
              "type": "bool"
            }
          ],
          "internalType": "struct ResumeContract.Experience[]",
          "name": "",
          "type": "tuple[]"
        }
      ],
      "stateMutability": "view",
      "type": "function",
      "constant": true
    },
    {
      "inputs": [],
      "name": "getSkill",
      "outputs": [
        {
          "components": [
            {
              "internalType": "bytes32",
              "name": "skillName",
              "type": "bytes32"
            },
            {
              "internalType": "bytes32",
              "name": "level",
              "type": "bytes32"
            },
            {
              "internalType": "bytes32",
              "name": "date",
              "type": "bytes32"
            },
            {
              "internalType": "bool",
              "name": "isNotEmpty",
              "type": "bool"
            }
          ],
          "internalType": "struct ResumeContract.Skill[]",
          "name": "",
          "type": "tuple[]"
        }
      ],
      "stateMutability": "view",
      "type": "function",
      "constant": true
    },
    {
      "inputs": [],
      "name": "getAllPersonalInfo",
      "outputs": [
        {
          "components": [
            {
              "internalType": "bytes32",
              "name": "picUrl",
              "type": "bytes32"
            },
            {
              "internalType": "bytes32",
              "name": "name",
              "type": "bytes32"
            },
            {
              "internalType": "bytes32",
              "name": "phone",
              "type": "bytes32"
            },
            {
              "internalType": "bytes32",
              "name": "email",
              "type": "bytes32"
            },
            {
              "internalType": "bytes32",
              "name": "dateOfBirth",
              "type": "bytes32"
            },
            {
              "internalType": "bytes32",
              "name": "socialUrl",
              "type": "bytes32"
            },
            {
              "internalType": "bytes32",
              "name": "location",
              "type": "bytes32"
            }
          ],
          "internalType": "struct ResumeContract.PersonalInfo[][]",
          "name": "",
          "type": "tuple[][]"
        }
      ],
      "stateMutability": "view",
      "type": "function",
      "constant": true
    },
    {
      "inputs": [],
      "name": "getAllEducation",
      "outputs": [
        {
          "components": [
            {
              "internalType": "bytes32",
              "name": "eduStartDate",
              "type": "bytes32"
            },
            {
              "internalType": "bytes32",
              "name": "eduEndDate",
              "type": "bytes32"
            },
            {
              "internalType": "bytes32",
              "name": "institute",
              "type": "bytes32"
            },
            {
              "internalType": "bytes32",
              "name": "degree",
              "type": "bytes32"
            },
            {
              "internalType": "bytes32",
              "name": "faculty",
              "type": "bytes32"
            },
            {
              "internalType": "bytes32",
              "name": "major",
              "type": "bytes32"
            },
            {
              "internalType": "bytes32",
              "name": "gpa",
              "type": "bytes32"
            },
            {
              "internalType": "bool",
              "name": "isNotEmpty",
              "type": "bool"
            }
          ],
          "internalType": "struct ResumeContract.Education[][]",
          "name": "",
          "type": "tuple[][]"
        }
      ],
      "stateMutability": "view",
      "type": "function",
      "constant": true
    },
    {
      "inputs": [],
      "name": "getAllExperience",
      "outputs": [
        {
          "components": [
            {
              "internalType": "bytes32",
              "name": "expStartDate",
              "type": "bytes32"
            },
            {
              "internalType": "bytes32",
              "name": "expEndDate",
              "type": "bytes32"
            },
            {
              "internalType": "bytes32",
              "name": "companyName",
              "type": "bytes32"
            },
            {
              "internalType": "bytes32",
              "name": "position",
              "type": "bytes32"
            },
            {
              "internalType": "bool",
              "name": "isNotEmpty",
              "type": "bool"
            }
          ],
          "internalType": "struct ResumeContract.Experience[][]",
          "name": "",
          "type": "tuple[][]"
        }
      ],
      "stateMutability": "view",
      "type": "function",
      "constant": true
    },
    {
      "inputs": [],
      "name": "getAllSkill",
      "outputs": [
        {
          "components": [
            {
              "internalType": "bytes32",
              "name": "skillName",
              "type": "bytes32"
            },
            {
              "internalType": "bytes32",
              "name": "level",
              "type": "bytes32"
            },
            {
              "internalType": "bytes32",
              "name": "date",
              "type": "bytes32"
            },
            {
              "internalType": "bool",
              "name": "isNotEmpty",
              "type": "bool"
            }
          ],
          "internalType": "struct ResumeContract.Skill[][]",
          "name": "",
          "type": "tuple[][]"
        }
      ],
      "stateMutability": "view",
      "type": "function",
      "constant": true
    },
    {
      "inputs": [
        {
          "internalType": "uint256",
          "name": "index",
          "type": "uint256"
        }
      ],
      "name": "remove",
      "outputs": [
        {
          "internalType": "bool",
          "name": "",
          "type": "bool"
        }
      ],
      "stateMutability": "nonpayable",
      "type": "function"
    },
    {
      "inputs": [
        {
          "internalType": "address",
          "name": "accountId",
          "type": "address"
        }
      ],
      "name": "triggerGetResumeByEvent",
      "outputs": [],
      "stateMutability": "nonpayable",
      "type": "function"
    },
    {
      "inputs": [
        {
          "internalType": "address",
          "name": "accountId",
          "type": "address"
        }
      ],
      "name": "triggerGetPersonalInfoByEvent",
      "outputs": [],
      "stateMutability": "nonpayable",
      "type": "function"
    },
    {
      "inputs": [
        {
          "internalType": "address",
          "name": "accountId",
          "type": "address"
        }
      ],
      "name": "triggerGetEducationByEvent",
      "outputs": [],
      "stateMutability": "nonpayable",
      "type": "function"
    },
    {
      "inputs": [
        {
          "internalType": "address",
          "name": "accountId",
          "type": "address"
        }
      ],
      "name": "triggerGetExperienceByEvent",
      "outputs": [],
      "stateMutability": "nonpayable",
      "type": "function"
    },
    {
      "inputs": [
        {
          "internalType": "address",
          "name": "accountId",
          "type": "address"
        }
      ],
      "name": "triggerGetSkillByEvent",
      "outputs": [],
      "stateMutability": "nonpayable",
      "type": "function"
    }
  ],
  "bytecode": "0x6080604052600060045534801561001557600080fd5b50336000806101000a81548173ffffffffffffffffffffffffffffffffffffffff021916908373ffffffffffffffffffffffffffffffffffffffff160217905550613e98806100656000396000f3fe608060405234801561001057600080fd5b50600436106101725760003560e01c806381f539ff116100de578063d2e0207611610097578063d4e4fffd11610071578063d4e4fffd14610487578063eb546256146104a5578063f3178685146104c1578063f40cf84d146104f157610172565b8063d2e02076146103f7578063d31025d214610427578063d40afcb11461045757610172565b806381f539ff146103215780639ea215f01461033f578063b08026ea1461036f578063bbafa4061461038d578063c829c4a2146103bd578063cdb986cc146103d957610172565b806337ff8b7e1161013057806337ff8b7e1461023b5780633cdc64c01461025757806347865a08146102875780634cc82215146102a55780635b99b708146102d557806372b91240146102f157610172565b8062ce8e3e14610177578063162c97cd14610195578063189e659e146101c55780631c41e2db146101e3578063275e78e81461020157806330b759dd1461021d575b600080fd5b61017f61050f565b60405161018c9190612be8565b60405180910390f35b6101af60048036038101906101aa9190612c7b565b61059d565b6040516101bc9190612d4c565b60405180910390f35b6101cd610714565b6040516101da9190612e89565b60405180910390f35b6101eb6107ec565b6040516101f89190612ffd565b60405180910390f35b61021b6004803603810190610216919061304b565b6108ed565b005b610225610ae9565b6040516102329190613087565b60405180910390f35b6102556004803603810190610250919061304b565b610aef565b005b610271600480360381019061026c91906130a2565b610cba565b60405161027e9190612d4c565b60405180910390f35b61028f610e3a565b60405161029c9190613343565b60405180910390f35b6102bf60048036038101906102ba9190613365565b610fa2565b6040516102cc9190612d4c565b60405180910390f35b6102ef60048036038101906102ea919061304b565b6117c3565b005b61030b60048036038101906103069190613392565b611871565b6040516103189190612d4c565b60405180910390f35b610329611ab4565b6040516103369190613454565b60405180910390f35b61035960048036038101906103549190613476565b611b99565b6040516103669190612d4c565b60405180910390f35b610377611ccb565b604051610384919061360e565b60405180910390f35b6103a760048036038101906103a291906130a2565b611e26565b6040516103b49190612d4c565b60405180910390f35b6103d760048036038101906103d2919061304b565b611f7c565b005b6103e1612157565b6040516103ee9190613747565b60405180910390f35b610411600480360381019061040c9190613769565b612239565b60405161041e9190612d4c565b60405180910390f35b610441600480360381019061043c91906137d0565b612385565b60405161044e9190612d4c565b60405180910390f35b610471600480360381019061046c9190613365565b6124c8565b60405161047e919061385a565b60405180910390f35b61048f612507565b60405161049c91906139a6565b60405180910390f35b6104bf60048036038101906104ba919061304b565b61268b565b005b6104db60048036038101906104d69190612c7b565b612846565b6040516104e89190612d4c565b60405180910390f35b6104f9612993565b6040516105069190613af9565b60405180910390f35b6060600380548060200260200160405190810160405280929190818152602001828054801561059357602002820191906000526020600020905b8160009054906101000a900473ffffffffffffffffffffffffffffffffffffffff1673ffffffffffffffffffffffffffffffffffffffff1681526020019060010190808311610549575b5050505050905090565b600081600160003373ffffffffffffffffffffffffffffffffffffffff1673ffffffffffffffffffffffffffffffffffffffff1681526020019081526020016000206000018054905011156107035760006040518061010001604052808b81526020018a815260200189815260200188815260200187815260200186815260200185815260200160011515815250905080600160003373ffffffffffffffffffffffffffffffffffffffff1673ffffffffffffffffffffffffffffffffffffffff168152602001908152602001600020600201848154811061068257610681613b1b565b5b9060005260206000209060080201600082015181600001556020820151816001015560408201518160020155606082015181600301556080820151816004015560a0820151816005015560c0820151816006015560e08201518160070160006101000a81548160ff0219169083151502179055509050506001915050610708565b600090505b98975050505050505050565b6060600160003373ffffffffffffffffffffffffffffffffffffffff1673ffffffffffffffffffffffffffffffffffffffff168152602001908152602001600020600301805480602002602001604051908101604052809291908181526020016000905b828210156107e357838290600052602060002090600402016040518060800160405290816000820154815260200160018201548152602001600282015481526020016003820160009054906101000a900460ff16151515158152505081526020019060010190610778565b50505050905090565b6060600160003373ffffffffffffffffffffffffffffffffffffffff1673ffffffffffffffffffffffffffffffffffffffff168152602001908152602001600020600201805480602002602001604051908101604052809291908181526020016000905b828210156108e4578382906000526020600020906008020160405180610100016040529081600082015481526020016001820154815260200160028201548152602001600382015481526020016004820154815260200160058201548152602001600682015481526020016007820160009054906101000a900460ff16151515158152505081526020019060010190610850565b50505050905090565b600160008273ffffffffffffffffffffffffffffffffffffffff1673ffffffffffffffffffffffffffffffffffffffff16815260200190815260200160002060040160009054906101000a900460ff1615610ae6576060600160008373ffffffffffffffffffffffffffffffffffffffff1673ffffffffffffffffffffffffffffffffffffffff168152602001908152602001600020600201805480602002602001604051908101604052809291908181526020016000905b82821015610a3a578382906000526020600020906008020160405180610100016040529081600082015481526020016001820154815260200160028201548152602001600382015481526020016004820154815260200160058201548152602001600682015481526020016007820160009054906101000a900460ff161515151581525050815260200190600101906109a6565b50505050905060005b8151811015610ae3576000828281518110610a6157610a60613b1b565b5b602002602001015190507f338a627e22e948a94ec73f04e46ede6a2e12e8a4100246916dbd5c98af353e28816000015182602001518360400151846060015185608001518660a001518760c001518a518a604051610ac799989796959493929190613b59565b60405180910390a1508080610adb90613c15565b915050610a43565b50505b50565b60045481565b600160008273ffffffffffffffffffffffffffffffffffffffff1673ffffffffffffffffffffffffffffffffffffffff16815260200190815260200160002060040160009054906101000a900460ff1615610cb7576060600160008373ffffffffffffffffffffffffffffffffffffffff1673ffffffffffffffffffffffffffffffffffffffff168152602001908152602001600020600101805480602002602001604051908101604052809291908181526020016000905b82821015610c1d57838290600052602060002090600502016040518060a0016040529081600082015481526020016001820154815260200160028201548152602001600382015481526020016004820160009054906101000a900460ff16151515158152505081526020019060010190610ba8565b50505050905060005b8151811015610cb4576000828281518110610c4457610c43613b1b565b5b602002602001015190507f7c333290d4ba954c8326540cf42b538ae005c4c02699071cfb7eb3e1ba2c90048160000151826020015183604001518460600151875187604051610c9896959493929190613c5d565b60405180910390a1508080610cac90613c15565b915050610c26565b50505b50565b6000806040518061010001604052808a8152602001898152602001888152602001878152602001868152602001858152602001848152602001600115158152509050600160003373ffffffffffffffffffffffffffffffffffffffff1673ffffffffffffffffffffffffffffffffffffffff168152602001908152602001600020600201819080600181540180825580915050600190039060005260206000209060080201600090919091909150600082015181600001556020820151816001015560408201518160020155606082015181600301556080820151816004015560a0820151816005015560c0820151816006015560e08201518160070160006101000a81548160ff021916908315150217905550505060018060003373ffffffffffffffffffffffffffffffffffffffff1673ffffffffffffffffffffffffffffffffffffffff16815260200190815260200160002060040160006101000a81548160ff0219169083151502179055506001915050979650505050505050565b60608060005b600380549050811015610f9a576001600060038381548110610e6557610e64613b1b565b5b9060005260206000200160009054906101000a900473ffffffffffffffffffffffffffffffffffffffff1673ffffffffffffffffffffffffffffffffffffffff1673ffffffffffffffffffffffffffffffffffffffff168152602001908152602001600020600001805480602002602001604051908101604052809291908181526020016000905b82821015610f6557838290600052602060002090600702016040518060e001604052908160008201548152602001600182015481526020016002820154815260200160038201548152602001600482015481526020016005820154815260200160068201548152505081526020019060010190610eed565b50505050828281518110610f7c57610f7b613b1b565b5b60200260200101819052508080610f9290613c15565b915050610e40565b508091505090565b600081600160003373ffffffffffffffffffffffffffffffffffffffff1673ffffffffffffffffffffffffffffffffffffffff1681526020019081526020016000206000018054905011156117a15760008290505b60018060003373ffffffffffffffffffffffffffffffffffffffff1673ffffffffffffffffffffffffffffffffffffffff168152602001908152602001600020600001805490506110489190613cbe565b81101561150757600160003373ffffffffffffffffffffffffffffffffffffffff1673ffffffffffffffffffffffffffffffffffffffff16815260200190815260200160002060000160018261109e9190613cf2565b815481106110af576110ae613b1b565b5b9060005260206000209060070201600160003373ffffffffffffffffffffffffffffffffffffffff1673ffffffffffffffffffffffffffffffffffffffff168152602001908152602001600020600001828154811061111157611110613b1b565b5b906000526020600020906007020160008201548160000155600182015481600101556002820154816002015560038201548160030155600482015481600401556005820154816005015560068201548160060155905050600160003373ffffffffffffffffffffffffffffffffffffffff1673ffffffffffffffffffffffffffffffffffffffff1681526020019081526020016000206002016001826111b79190613cf2565b815481106111c8576111c7613b1b565b5b9060005260206000209060080201600160003373ffffffffffffffffffffffffffffffffffffffff1673ffffffffffffffffffffffffffffffffffffffff168152602001908152602001600020600201828154811061122a57611229613b1b565b5b9060005260206000209060080201600082015481600001556001820154816001015560028201548160020155600382015481600301556004820154816004015560058201548160050155600682015481600601556007820160009054906101000a900460ff168160070160006101000a81548160ff021916908315150217905550905050600160003373ffffffffffffffffffffffffffffffffffffffff1673ffffffffffffffffffffffffffffffffffffffff1681526020019081526020016000206001016001826112fd9190613cf2565b8154811061130e5761130d613b1b565b5b9060005260206000209060050201600160003373ffffffffffffffffffffffffffffffffffffffff1673ffffffffffffffffffffffffffffffffffffffff16815260200190815260200160002060010182815481106113705761136f613b1b565b5b9060005260206000209060050201600082015481600001556001820154816001015560028201548160020155600382015481600301556004820160009054906101000a900460ff168160040160006101000a81548160ff021916908315150217905550905050600160003373ffffffffffffffffffffffffffffffffffffffff1673ffffffffffffffffffffffffffffffffffffffff1681526020019081526020016000206003016001826114259190613cf2565b8154811061143657611435613b1b565b5b9060005260206000209060040201600160003373ffffffffffffffffffffffffffffffffffffffff1673ffffffffffffffffffffffffffffffffffffffff168152602001908152602001600020600301828154811061149857611497613b1b565b5b90600052602060002090600402016000820154816000015560018201548160010155600282015481600201556003820160009054906101000a900460ff168160030160006101000a81548160ff02191690831515021790555090505080806114ff90613c15565b915050610ff7565b50600160003373ffffffffffffffffffffffffffffffffffffffff1673ffffffffffffffffffffffffffffffffffffffff16815260200190815260200160002060000180548061155a57611559613d48565b5b600190038181906000526020600020906007020160008082016000905560018201600090556002820160009055600382016000905560048201600090556005820160009055600682016000905550509055600160003373ffffffffffffffffffffffffffffffffffffffff1673ffffffffffffffffffffffffffffffffffffffff1681526020019081526020016000206002018054806115fd576115fc613d48565b5b60019003818190600052602060002090600802016000808201600090556001820160009055600282016000905560038201600090556004820160009055600582016000905560068201600090556007820160006101000a81549060ff021916905550509055600160003373ffffffffffffffffffffffffffffffffffffffff1673ffffffffffffffffffffffffffffffffffffffff1681526020019081526020016000206001018054806116b4576116b3613d48565b5b60019003818190600052602060002090600502016000808201600090556001820160009055600282016000905560038201600090556004820160006101000a81549060ff021916905550509055600160003373ffffffffffffffffffffffffffffffffffffffff1673ffffffffffffffffffffffffffffffffffffffff16815260200190815260200160002060030180548061175357611752613d48565b5b6001900381819060005260206000209060040201600080820160009055600182016000905560028201600090556003820160006101000a81549060ff021916905550509055600190506117be565b600460008154809291906117b490613d77565b9190505550600090505b919050565b600160008273ffffffffffffffffffffffffffffffffffffffff1673ffffffffffffffffffffffffffffffffffffffff16815260200190815260200160002060040160009054906101000a900460ff16156118415761182181611f7c565b61182a81610aef565b611833816108ed565b61183c8161268b565b61186e565b7fdb46d9c9185746ac04f85600280bf31e2ec54c2a10450a61818359dcbdd9c24260405160405180910390a15b50565b6000806040518060800160405280868152602001858152602001848152602001600115158152509050600160003373ffffffffffffffffffffffffffffffffffffffff1673ffffffffffffffffffffffffffffffffffffffff16815260200190815260200160002060030181908060018154018082558091505060019003906000526020600020906004020160009091909190915060008201518160000155602082015181600101556040820151816002015560608201518160030160006101000a81548160ff021916908315150217905550505060018060003373ffffffffffffffffffffffffffffffffffffffff1673ffffffffffffffffffffffffffffffffffffffff16815260200190815260200160002060040160006101000a81548160ff0219169083151502179055506001600260003373ffffffffffffffffffffffffffffffffffffffff1673ffffffffffffffffffffffffffffffffffffffff1681526020019081526020016000205414611a90576001600260003373ffffffffffffffffffffffffffffffffffffffff1673ffffffffffffffffffffffffffffffffffffffff168152602001908152602001600020819055506003339080600181540180825580915050600190039060005260206000200160009091909190916101000a81548173ffffffffffffffffffffffffffffffffffffffff021916908373ffffffffffffffffffffffffffffffffffffffff1602179055505b60046000815480929190611aa390613c15565b919050555060019150509392505050565b6060600160003373ffffffffffffffffffffffffffffffffffffffff1673ffffffffffffffffffffffffffffffffffffffff168152602001908152602001600020600001805480602002602001604051908101604052809291908181526020016000905b82821015611b9057838290600052602060002090600702016040518060e001604052908160008201548152602001600182015481526020016002820154815260200160038201548152602001600482015481526020016005820154815260200160068201548152505081526020019060010190611b18565b50505050905090565b600081600160003373ffffffffffffffffffffffffffffffffffffffff1673ffffffffffffffffffffffffffffffffffffffff168152602001908152602001600020600001805490501115611cbe576000604051806080016040528087815260200186815260200185815260200160011515815250905080600160003373ffffffffffffffffffffffffffffffffffffffff1673ffffffffffffffffffffffffffffffffffffffff1681526020019081526020016000206003018481548110611c6557611c64613b1b565b5b906000526020600020906004020160008201518160000155602082015181600101556040820151816002015560608201518160030160006101000a81548160ff0219169083151502179055509050506001915050611cc3565b600090505b949350505050565b60608060005b600380549050811015611e1e576001600060038381548110611cf657611cf5613b1b565b5b9060005260206000200160009054906101000a900473ffffffffffffffffffffffffffffffffffffffff1673ffffffffffffffffffffffffffffffffffffffff1673ffffffffffffffffffffffffffffffffffffffff168152602001908152602001600020600301805480602002602001604051908101604052809291908181526020016000905b82821015611de957838290600052602060002090600402016040518060800160405290816000820154815260200160018201548152602001600282015481526020016003820160009054906101000a900460ff16151515158152505081526020019060010190611d7e565b50505050828281518110611e0057611dff613b1b565b5b60200260200101819052508080611e1690613c15565b915050611cd1565b508091505090565b6000806040518060e001604052808a8152602001898152602001888152602001878152602001868152602001858152602001848152509050600160003373ffffffffffffffffffffffffffffffffffffffff1673ffffffffffffffffffffffffffffffffffffffff168152602001908152602001600020600001819080600181540180825580915050600190039060005260206000209060070201600090919091909150600082015181600001556020820151816001015560408201518160020155606082015181600301556080820151816004015560a0820151816005015560c08201518160060155505060018060003373ffffffffffffffffffffffffffffffffffffffff1673ffffffffffffffffffffffffffffffffffffffff16815260200190815260200160002060040160006101000a81548160ff0219169083151502179055506001915050979650505050505050565b600160008273ffffffffffffffffffffffffffffffffffffffff1673ffffffffffffffffffffffffffffffffffffffff16815260200190815260200160002060040160009054906101000a900460ff1615612154576060600160008373ffffffffffffffffffffffffffffffffffffffff1673ffffffffffffffffffffffffffffffffffffffff168152602001908152602001600020600001805480602002602001604051908101604052809291908181526020016000905b828210156120ad57838290600052602060002090600702016040518060e001604052908160008201548152602001600182015481526020016002820154815260200160038201548152602001600482015481526020016005820154815260200160068201548152505081526020019060010190612035565b50505050905060005b81518110156121515760008282815181106120d4576120d3613b1b565b5b602002602001015190507f08f654f1ad069805f797f3582c65cfa29cdaa444fa4fdf69a1d6a8f954fdd806816000015182602001518360400151846060015185608001518660a001518760c001516040516121359796959493929190613da0565b60405180910390a150808061214990613c15565b9150506120b6565b50505b50565b6060600160003373ffffffffffffffffffffffffffffffffffffffff1673ffffffffffffffffffffffffffffffffffffffff168152602001908152602001600020600101805480602002602001604051908101604052809291908181526020016000905b8282101561223057838290600052602060002090600502016040518060a0016040529081600082015481526020016001820154815260200160028201548152602001600382015481526020016004820160009054906101000a900460ff161515151581525050815260200190600101906121bb565b50505050905090565b6000806040518060a00160405280878152602001868152602001858152602001848152602001600115158152509050600160003373ffffffffffffffffffffffffffffffffffffffff1673ffffffffffffffffffffffffffffffffffffffff1681526020019081526020016000206001018190806001815401808255809150506001900390600052602060002090600502016000909190919091506000820151816000015560208201518160010155604082015181600201556060820151816003015560808201518160040160006101000a81548160ff021916908315150217905550505060018060003373ffffffffffffffffffffffffffffffffffffffff1673ffffffffffffffffffffffffffffffffffffffff16815260200190815260200160002060040160006101000a81548160ff0219169083151502179055506001915050949350505050565b600081600160003373ffffffffffffffffffffffffffffffffffffffff1673ffffffffffffffffffffffffffffffffffffffff1681526020019081526020016000206000018054905011156124ba5760006040518060a0016040528088815260200187815260200186815260200185815260200160011515815250905080600160003373ffffffffffffffffffffffffffffffffffffffff1673ffffffffffffffffffffffffffffffffffffffff168152602001908152602001600020600101848154811061245757612456613b1b565b5b90600052602060002090600502016000820151816000015560208201518160010155604082015181600201556060820151816003015560808201518160040160006101000a81548160ff02191690831515021790555090505060019150506124bf565b600090505b95945050505050565b600381815481106124d857600080fd5b906000526020600020016000915054906101000a900473ffffffffffffffffffffffffffffffffffffffff1681565b60608060005b60038054905081101561268357600160006003838154811061253257612531613b1b565b5b9060005260206000200160009054906101000a900473ffffffffffffffffffffffffffffffffffffffff1673ffffffffffffffffffffffffffffffffffffffff1673ffffffffffffffffffffffffffffffffffffffff168152602001908152602001600020600201805480602002602001604051908101604052809291908181526020016000905b8282101561264e578382906000526020600020906008020160405180610100016040529081600082015481526020016001820154815260200160028201548152602001600382015481526020016004820154815260200160058201548152602001600682015481526020016007820160009054906101000a900460ff161515151581525050815260200190600101906125ba565b5050505082828151811061266557612664613b1b565b5b6020026020010181905250808061267b90613c15565b91505061250d565b508091505090565b600160008273ffffffffffffffffffffffffffffffffffffffff1673ffffffffffffffffffffffffffffffffffffffff16815260200190815260200160002060040160009054906101000a900460ff1615612843576060600160008373ffffffffffffffffffffffffffffffffffffffff1673ffffffffffffffffffffffffffffffffffffffff168152602001908152602001600020600301805480602002602001604051908101604052809291908181526020016000905b828210156127af57838290600052602060002090600402016040518060800160405290816000820154815260200160018201548152602001600282015481526020016003820160009054906101000a900460ff16151515158152505081526020019060010190612744565b50505050905060005b81518110156128405760008282815181106127d6576127d5613b1b565b5b602002602001015190507f14bf0b25d5177ec42547af690f214c8b0249bb27a6d7cfde835d114fd39a56e9816000015182602001518360400151865186604051612824959493929190613e0f565b60405180910390a150808061283890613c15565b9150506127b8565b50505b50565b600081600160003373ffffffffffffffffffffffffffffffffffffffff1673ffffffffffffffffffffffffffffffffffffffff1681526020019081526020016000206000018054905011156129825760006040518060e001604052808b81526020018a815260200189815260200188815260200187815260200186815260200185815250905080600160003373ffffffffffffffffffffffffffffffffffffffff1673ffffffffffffffffffffffffffffffffffffffff168152602001908152602001600020600001848154811061292157612920613b1b565b5b9060005260206000209060070201600082015181600001556020820151816001015560408201518160020155606082015181600301556080820151816004015560a0820151816005015560c082015181600601559050506001915050612987565b600090505b98975050505050505050565b60608060005b600380549050811015612af05760016000600383815481106129be576129bd613b1b565b5b9060005260206000200160009054906101000a900473ffffffffffffffffffffffffffffffffffffffff1673ffffffffffffffffffffffffffffffffffffffff1673ffffffffffffffffffffffffffffffffffffffff168152602001908152602001600020600101805480602002602001604051908101604052809291908181526020016000905b82821015612abb57838290600052602060002090600502016040518060a0016040529081600082015481526020016001820154815260200160028201548152602001600382015481526020016004820160009054906101000a900460ff16151515158152505081526020019060010190612a46565b50505050828281518110612ad257612ad1613b1b565b5b60200260200101819052508080612ae890613c15565b915050612999565b508091505090565b600081519050919050565b600082825260208201905092915050565b6000819050602082019050919050565b600073ffffffffffffffffffffffffffffffffffffffff82169050919050565b6000612b4f82612b24565b9050919050565b612b5f81612b44565b82525050565b6000612b718383612b56565b60208301905092915050565b6000602082019050919050565b6000612b9582612af8565b612b9f8185612b03565b9350612baa83612b14565b8060005b83811015612bdb578151612bc28882612b65565b9750612bcd83612b7d565b925050600181019050612bae565b5085935050505092915050565b60006020820190508181036000830152612c028184612b8a565b905092915050565b600080fd5b6000819050919050565b612c2281612c0f565b8114612c2d57600080fd5b50565b600081359050612c3f81612c19565b92915050565b6000819050919050565b612c5881612c45565b8114612c6357600080fd5b50565b600081359050612c7581612c4f565b92915050565b600080600080600080600080610100898b031215612c9c57612c9b612c0a565b5b6000612caa8b828c01612c30565b9850506020612cbb8b828c01612c30565b9750506040612ccc8b828c01612c30565b9650506060612cdd8b828c01612c30565b9550506080612cee8b828c01612c30565b94505060a0612cff8b828c01612c30565b93505060c0612d108b828c01612c30565b92505060e0612d218b828c01612c66565b9150509295985092959890939650565b60008115159050919050565b612d4681612d31565b82525050565b6000602082019050612d616000830184612d3d565b92915050565b600081519050919050565b600082825260208201905092915050565b6000819050602082019050919050565b612d9c81612c0f565b82525050565b612dab81612d31565b82525050565b608082016000820151612dc76000850182612d93565b506020820151612dda6020850182612d93565b506040820151612ded6040850182612d93565b506060820151612e006060850182612da2565b50505050565b6000612e128383612db1565b60808301905092915050565b6000602082019050919050565b6000612e3682612d67565b612e408185612d72565b9350612e4b83612d83565b8060005b83811015612e7c578151612e638882612e06565b9750612e6e83612e1e565b925050600181019050612e4f565b5085935050505092915050565b60006020820190508181036000830152612ea38184612e2b565b905092915050565b600081519050919050565b600082825260208201905092915050565b6000819050602082019050919050565b61010082016000820151612eee6000850182612d93565b506020820151612f016020850182612d93565b506040820151612f146040850182612d93565b506060820151612f276060850182612d93565b506080820151612f3a6080850182612d93565b5060a0820151612f4d60a0850182612d93565b5060c0820151612f6060c0850182612d93565b5060e0820151612f7360e0850182612da2565b50505050565b6000612f858383612ed7565b6101008301905092915050565b6000602082019050919050565b6000612faa82612eab565b612fb48185612eb6565b9350612fbf83612ec7565b8060005b83811015612ff0578151612fd78882612f79565b9750612fe283612f92565b925050600181019050612fc3565b5085935050505092915050565b600060208201905081810360008301526130178184612f9f565b905092915050565b61302881612b44565b811461303357600080fd5b50565b6000813590506130458161301f565b92915050565b60006020828403121561306157613060612c0a565b5b600061306f84828501613036565b91505092915050565b61308181612c45565b82525050565b600060208201905061309c6000830184613078565b92915050565b600080600080600080600060e0888a0312156130c1576130c0612c0a565b5b60006130cf8a828b01612c30565b97505060206130e08a828b01612c30565b96505060406130f18a828b01612c30565b95505060606131028a828b01612c30565b94505060806131138a828b01612c30565b93505060a06131248a828b01612c30565b92505060c06131358a828b01612c30565b91505092959891949750929550565b600081519050919050565b600082825260208201905092915050565b6000819050602082019050919050565b600081519050919050565b600082825260208201905092915050565b6000819050602082019050919050565b60e0820160008201516131b26000850182612d93565b5060208201516131c56020850182612d93565b5060408201516131d86040850182612d93565b5060608201516131eb6060850182612d93565b5060808201516131fe6080850182612d93565b5060a082015161321160a0850182612d93565b5060c082015161322460c0850182612d93565b50505050565b6000613236838361319c565b60e08301905092915050565b6000602082019050919050565b600061325a82613170565b613264818561317b565b935061326f8361318c565b8060005b838110156132a0578151613287888261322a565b975061329283613242565b925050600181019050613273565b5085935050505092915050565b60006132b9838361324f565b905092915050565b6000602082019050919050565b60006132d982613144565b6132e3818561314f565b9350836020820285016132f585613160565b8060005b85811015613331578484038952815161331285826132ad565b945061331d836132c1565b925060208a019950506001810190506132f9565b50829750879550505050505092915050565b6000602082019050818103600083015261335d81846132ce565b905092915050565b60006020828403121561337b5761337a612c0a565b5b600061338984828501612c66565b91505092915050565b6000806000606084860312156133ab576133aa612c0a565b5b60006133b986828701612c30565b93505060206133ca86828701612c30565b92505060406133db86828701612c30565b9150509250925092565b600082825260208201905092915050565b600061340182613170565b61340b81856133e5565b93506134168361318c565b8060005b8381101561344757815161342e888261322a565b975061343983613242565b92505060018101905061341a565b5085935050505092915050565b6000602082019050818103600083015261346e81846133f6565b905092915050565b600080600080608085870312156134905761348f612c0a565b5b600061349e87828801612c30565b94505060206134af87828801612c30565b93505060406134c087828801612c30565b92505060606134d187828801612c66565b91505092959194509250565b600081519050919050565b600082825260208201905092915050565b6000819050602082019050919050565b600082825260208201905092915050565b600061352582612d67565b61352f8185613509565b935061353a83612d83565b8060005b8381101561356b5781516135528882612e06565b975061355d83612e1e565b92505060018101905061353e565b5085935050505092915050565b6000613584838361351a565b905092915050565b6000602082019050919050565b60006135a4826134dd565b6135ae81856134e8565b9350836020820285016135c0856134f9565b8060005b858110156135fc57848403895281516135dd8582613578565b94506135e88361358c565b925060208a019950506001810190506135c4565b50829750879550505050505092915050565b600060208201905081810360008301526136288184613599565b905092915050565b600081519050919050565b600082825260208201905092915050565b6000819050602082019050919050565b60a0820160008201516136726000850182612d93565b5060208201516136856020850182612d93565b5060408201516136986040850182612d93565b5060608201516136ab6060850182612d93565b5060808201516136be6080850182612da2565b50505050565b60006136d0838361365c565b60a08301905092915050565b6000602082019050919050565b60006136f482613630565b6136fe818561363b565b93506137098361364c565b8060005b8381101561373a57815161372188826136c4565b975061372c836136dc565b92505060018101905061370d565b5085935050505092915050565b6000602082019050818103600083015261376181846136e9565b905092915050565b6000806000806080858703121561378357613782612c0a565b5b600061379187828801612c30565b94505060206137a287828801612c30565b93505060406137b387828801612c30565b92505060606137c487828801612c30565b91505092959194509250565b600080600080600060a086880312156137ec576137eb612c0a565b5b60006137fa88828901612c30565b955050602061380b88828901612c30565b945050604061381c88828901612c30565b935050606061382d88828901612c30565b925050608061383e88828901612c66565b9150509295509295909350565b61385481612b44565b82525050565b600060208201905061386f600083018461384b565b92915050565b600081519050919050565b600082825260208201905092915050565b6000819050602082019050919050565b600082825260208201905092915050565b60006138bd82612eab565b6138c781856138a1565b93506138d283612ec7565b8060005b838110156139035781516138ea8882612f79565b97506138f583612f92565b9250506001810190506138d6565b5085935050505092915050565b600061391c83836138b2565b905092915050565b6000602082019050919050565b600061393c82613875565b6139468185613880565b93508360208202850161395885613891565b8060005b8581101561399457848403895281516139758582613910565b945061398083613924565b925060208a0199505060018101905061395c565b50829750879550505050505092915050565b600060208201905081810360008301526139c08184613931565b905092915050565b600081519050919050565b600082825260208201905092915050565b6000819050602082019050919050565b600082825260208201905092915050565b6000613a1082613630565b613a1a81856139f4565b9350613a258361364c565b8060005b83811015613a56578151613a3d88826136c4565b9750613a48836136dc565b925050600181019050613a29565b5085935050505092915050565b6000613a6f8383613a05565b905092915050565b6000602082019050919050565b6000613a8f826139c8565b613a9981856139d3565b935083602082028501613aab856139e4565b8060005b85811015613ae75784840389528151613ac88582613a63565b9450613ad383613a77565b925060208a01995050600181019050613aaf565b50829750879550505050505092915050565b60006020820190508181036000830152613b138184613a84565b905092915050565b7f4e487b7100000000000000000000000000000000000000000000000000000000600052603260045260246000fd5b613b5381612c0f565b82525050565b600061012082019050613b6f600083018c613b4a565b613b7c602083018b613b4a565b613b89604083018a613b4a565b613b966060830189613b4a565b613ba36080830188613b4a565b613bb060a0830187613b4a565b613bbd60c0830186613b4a565b613bca60e0830185613078565b613bd8610100830184613078565b9a9950505050505050505050565b7f4e487b7100000000000000000000000000000000000000000000000000000000600052601160045260246000fd5b6000613c2082612c45565b91507fffffffffffffffffffffffffffffffffffffffffffffffffffffffffffffffff8203613c5257613c51613be6565b5b600182019050919050565b600060c082019050613c726000830189613b4a565b613c7f6020830188613b4a565b613c8c6040830187613b4a565b613c996060830186613b4a565b613ca66080830185613078565b613cb360a0830184613078565b979650505050505050565b6000613cc982612c45565b9150613cd483612c45565b925082821015613ce757613ce6613be6565b5b828203905092915050565b6000613cfd82612c45565b9150613d0883612c45565b9250827fffffffffffffffffffffffffffffffffffffffffffffffffffffffffffffffff03821115613d3d57613d3c613be6565b5b828201905092915050565b7f4e487b7100000000000000000000000000000000000000000000000000000000600052603160045260246000fd5b6000613d8282612c45565b915060008203613d9557613d94613be6565b5b600182039050919050565b600060e082019050613db5600083018a613b4a565b613dc26020830189613b4a565b613dcf6040830188613b4a565b613ddc6060830187613b4a565b613de96080830186613b4a565b613df660a0830185613b4a565b613e0360c0830184613b4a565b98975050505050505050565b600060a082019050613e246000830188613b4a565b613e316020830187613b4a565b613e3e6040830186613b4a565b613e4b6060830185613078565b613e586080830184613078565b969550505050505056fea2646970667358221220e89f34aac80d9dc3d3e7301376ba28d403744e3307c687939579698e4c68833664736f6c634300080d0033",
  "immutableReferences": {},
  "source": "// SPDX-License-Identifier: MIT\r\n\r\npragma solidity ^0.8.13;\r\n\r\nimport \"./Ownable.sol\";\r\n\r\ncontract ResumeContract is Ownable {\r\n\r\n\t// Constructor\r\n\tconstructor() {}\r\n\r\n\t//  \r\n\tstruct PersonalInfo {\r\n\t\tbytes32 picUrl; // \r\n\t\tbytes32 name; // \r\n\t\tbytes32 phone; // \r\n\t\tbytes32 email; // \r\n\t\tbytes32 dateOfBirth; // \r\n\t\tbytes32 socialUrl; //  ,    Url\r\n\t\tbytes32 location; // \r\n\t}\r\n\r\n\t//    \r\n\tstruct Education {\r\n\t\tbytes32 eduStartDate; //  \r\n\t\tbytes32 eduEndDate; //  \r\n\t\tbytes32 institute; //  \r\n\t\tbytes32 degree; // \r\n\t\tbytes32 faculty; // \r\n\t\tbytes32 major; // \r\n\t\tbytes32 gpa; // \r\n\t\tbool isNotEmpty;\r\n\t}\r\n\r\n\tstruct Experience {\r\n\t\tbytes32 expStartDate; //  \r\n\t\tbytes32 expEndDate; //  \r\n\t\tbytes32 companyName; // \r\n\t\tbytes32 position; // \r\n\t\tbool isNotEmpty;\r\n\t}\r\n\r\n\t//     \r\n\tstruct Skill {\r\n\t\tbytes32 skillName; // , \r\n\t\tbytes32 level; //   ,  \r\n\t\tbytes32 date; //  \r\n\t\tbool isNotEmpty;\r\n\t}\r\n\r\n\r\n\tstruct ResumeModel {\r\n\t\tPersonalInfo[] personalInfos;\r\n\t\tExperience[] experiences;\r\n\t\tEducation[] educations;\r\n\t\tSkill[] skills;\r\n\t\tbool isNotEmpty;\r\n\t}\r\n\r\n\tmapping (address => ResumeModel) mResumeModels;\r\n\tmapping(address => uint) registerd;\r\n\taddress[] public registeredArray;\r\n\tuint public resumeCount = 0;\r\n\tfunction getUsers() public view returns (address[] memory){\r\n\t\treturn registeredArray;\r\n\t}\r\n\r\n\t//   \r\n\tfunction addPersonalInfo(bytes32 picUrl, bytes32 name, bytes32 phone, bytes32 email, bytes32 dateOfBirth, bytes32 socialUrl, bytes32 location) public returns (bool) {\r\n\t\tPersonalInfo memory info = PersonalInfo(picUrl, name, phone, email, dateOfBirth, socialUrl, location);\r\n\t\tmResumeModels[msg.sender].personalInfos.push(info);\r\n\t\tmResumeModels[msg.sender].isNotEmpty = true;\r\n\t\treturn true;\r\n\t}\r\n\tfunction addEducation(bytes32 startDate, bytes32 endDate, bytes32 institute, bytes32 degree, bytes32 faculty, bytes32 major, bytes32 gpa) public returns (bool) {\r\n\t\tEducation memory edu = Education(startDate, endDate, institute, degree, faculty, major, gpa, true);\r\n\t\tmResumeModels[msg.sender].educations.push(edu);\r\n\t\tmResumeModels[msg.sender].isNotEmpty = true;\r\n\t\treturn true;\r\n\t}\r\n\tfunction addExperience(bytes32 startDate, bytes32 endDate, bytes32 companyName, bytes32 position) public returns (bool) {\r\n\t\tExperience memory exp = Experience(startDate, endDate, companyName, position, true);\r\n\t\tmResumeModels[msg.sender].experiences.push(exp);\r\n\t\tmResumeModels[msg.sender].isNotEmpty = true;\r\n\t\treturn true;\r\n\t}\r\n\tfunction addSkill(bytes32 skill, bytes32 level, bytes32 date) public returns (bool) {\r\n\t\tSkill memory skillStruct = Skill(skill, level, date, true);\r\n\t\tmResumeModels[msg.sender].skills.push(skillStruct);\r\n\t\tmResumeModels[msg.sender].isNotEmpty = true;\r\n    \tif(registerd[msg.sender] != 1) {\r\n        \tregisterd[msg.sender] = 1;\r\n        \tregisteredArray.push(msg.sender); // push to the array\r\n\t\t}\r\n\t\tresumeCount++;\r\n\t\treturn true;\r\n\t}\r\n\r\n\t//   \r\n\tfunction updatePersonalInfo(bytes32 picUrl, bytes32 name, bytes32 phone, bytes32 email, bytes32 dateOfBirth, bytes32 socialUrl, bytes32 location, uint index) public returns (bool) {\r\n\t\tif(mResumeModels[msg.sender].personalInfos.length > index) {\r\n\t\t\tPersonalInfo memory info = PersonalInfo(picUrl, name, phone, email, dateOfBirth, socialUrl, location);\r\n\t\t\tmResumeModels[msg.sender].personalInfos[index] = info;\r\n\t\t\r\n\t\t\treturn true;\r\n\t\t}\r\n\t\treturn false;\r\n\t}\r\n\tfunction updateEducation(bytes32 eduStartDate, bytes32 eduEndDate, bytes32 institute, bytes32 degree, bytes32 faculty, bytes32 major, bytes32 gpa, uint index) public returns (bool) {\r\n\t\tif(mResumeModels[msg.sender].personalInfos.length > index) {\t\t\t\r\n\t\t\tEducation memory edu = Education(eduStartDate, eduEndDate, institute, degree, faculty, major, gpa, true);\r\n\t\t\tmResumeModels[msg.sender].educations[index] = edu;\t\t\r\n\t\t\treturn true;\r\n\t\t}\r\n\t\treturn false;\r\n\t}\r\n\tfunction updateExperience(bytes32 expStartDate, bytes32 expEndDate, bytes32 companyName, bytes32 position, uint index) public returns (bool) {\r\n\t\tif(mResumeModels[msg.sender].personalInfos.length > index) {\r\n\t\t\tExperience memory exp = Experience(expStartDate, expEndDate, companyName, position, true);\r\n\t\t\tmResumeModels[msg.sender].experiences[index] = exp;\t\t\t\r\n\t\t\r\n\t\t\treturn true;\r\n\t\t}\r\n\t\treturn false;\r\n\t}\r\n\tfunction updateSkill(bytes32 skill, bytes32 level, bytes32 date, uint index) public returns (bool) {\r\n\t\tif(mResumeModels[msg.sender].personalInfos.length > index) {\t\t\t\r\n\t\t\tSkill memory skillStruct = Skill(skill, level, date, true);\r\n\t\t\tmResumeModels[msg.sender].skills[index] = skillStruct;\r\n\t\t\r\n\t\t\treturn true;\r\n\t\t}\r\n\t\treturn false;\r\n\t}\r\n\r\n\t//   \r\n\tfunction getPersonalInfo() external view returns(PersonalInfo[] memory) {\r\n\t\treturn mResumeModels[msg.sender].personalInfos;\r\n\t}\r\n\r\n\tfunction getEducation() public view returns (Education[] memory) {\r\n\t\treturn mResumeModels[msg.sender].educations;\r\n\t}\r\n\r\n\tfunction getExperience() public view returns (Experience[] memory) {\r\n\t\treturn  mResumeModels[msg.sender].experiences;\r\n\t}\r\n\r\n\tfunction getSkill() public view returns (Skill[] memory) {\r\n\t\treturn  mResumeModels[msg.sender].skills;\r\n\t}\r\n\t//   \r\n\tfunction getAllPersonalInfo()  external view returns (PersonalInfo[][] memory) {\r\n\t\tPersonalInfo[][] memory allPersonalInfos;\r\n\t\tfor(uint i = 0; i < registeredArray.length; i++) {\r\n\t\t\tallPersonalInfos[i] = mResumeModels[registeredArray[i]].personalInfos;\r\n\t\t}\r\n\t\treturn allPersonalInfos;\r\n\t}\r\n\tfunction getAllEducation()  external view returns (Education[][] memory) {\r\n\t\tEducation[][] memory allEducations;\r\n\t\tfor(uint i = 0; i < registeredArray.length; i++) {\r\n\t\t\tallEducations[i] = mResumeModels[registeredArray[i]].educations;\r\n\t\t}\r\n\t\treturn allEducations;\r\n\t}\r\n\tfunction getAllExperience()  external view returns (Experience[][] memory) {\r\n\t\tExperience[][] memory allExperiences;\r\n\t\tfor(uint i = 0; i < registeredArray.length; i++) {\r\n\t\t\tallExperiences[i] = mResumeModels[registeredArray[i]].experiences;\r\n\t\t}\r\n\t\treturn allExperiences;\r\n\t}\r\n\tfunction getAllSkill()  external view returns (Skill[][] memory) {\r\n\t\tSkill[][] memory allSkills;\r\n\t\tfor(uint i = 0; i < registeredArray.length; i++) {\r\n\t\t\tallSkills[i] = mResumeModels[registeredArray[i]].skills;\r\n\t\t}\r\n\t\treturn allSkills;\r\n\t}\r\n\r\n\t//   \r\n\tfunction remove(uint index) public returns (bool) {\r\n\t\tif(mResumeModels[msg.sender].personalInfos.length > index) {\r\n\t\t\tfor(uint i = index; i < mResumeModels[msg.sender].personalInfos.length-1; i++) {\r\n\t\t\t\tmResumeModels[msg.sender].personalInfos[i] = mResumeModels[msg.sender].personalInfos[i+1];\r\n\t\t\t\tmResumeModels[msg.sender].educations[i] = mResumeModels[msg.sender].educations[i+1];\r\n\t\t\t\tmResumeModels[msg.sender].experiences[i] = mResumeModels[msg.sender].experiences[i+1];\r\n\t\t\t\tmResumeModels[msg.sender].skills[i] = mResumeModels[msg.sender].skills[i+1];\r\n\t\t\t}\r\n\t\t\tmResumeModels[msg.sender].personalInfos.pop();\r\n\t\t\tmResumeModels[msg.sender].educations.pop();\r\n\t\t\tmResumeModels[msg.sender].experiences.pop();\r\n\t\t\tmResumeModels[msg.sender].skills.pop();\r\n\t\r\n\t\t\treturn true;\t\r\n\t\t}\r\n\t\tresumeCount--;\r\n\t\treturn false;\r\n\t}\r\n\r\n\tevent personalInfoEvent(bytes32 picUrl, bytes32 name, bytes32 phone, bytes32 email, bytes32 dateOfBirth, bytes32 socialUrl, bytes32 location);\r\n\r\n\tevent educationEvent(bytes32 eduStartDate, bytes32 eduEndDate, bytes32 institute, bytes32 degree, bytes32 faculty, bytes32 major, bytes32 gpa, uint count, uint index);\r\n\t\t \r\n\tevent experienceEvent(bytes32 expStartDate, bytes32 expEndDate, bytes32 companyName, bytes32 position, uint count, uint index);\r\n\r\n\tevent skillEvent(bytes32 skillName, bytes32 level, bytes32 date, uint count, uint index);\r\n\r\n\tevent resumeEmptyEvent();\r\n\r\n\r\n\tfunction triggerGetResumeByEvent(address accountId) public {\r\n\t\tif(mResumeModels[accountId].isNotEmpty){\r\n\t\t\ttriggerGetPersonalInfoByEvent(accountId);\r\n\t\t\ttriggerGetExperienceByEvent(accountId);\r\n\t\t\ttriggerGetEducationByEvent(accountId);\r\n\t\t\ttriggerGetSkillByEvent(accountId);\r\n\t\t}else{\r\n\t\t\temit resumeEmptyEvent();\r\n\t\t}\r\n\t}\r\n\r\n\tfunction triggerGetPersonalInfoByEvent(address accountId) public {\r\n\t\tif(mResumeModels[accountId].isNotEmpty) {\r\n\t\t\tPersonalInfo[] memory info;\r\n\t\t\tinfo = mResumeModels[accountId].personalInfos;\r\n\r\n\t\t\tfor(uint i=0; i < info.length; i++) {\r\n\t\t\t\tPersonalInfo memory inf = info[i];\r\n\t\t\t\temit personalInfoEvent(inf.picUrl, inf.name, inf.phone, inf.email, inf.dateOfBirth, inf.socialUrl, inf.location);\r\n\t\t\t}\r\n\t\t}\r\n\t}\r\n\r\n\tfunction triggerGetEducationByEvent(address accountId) public {\r\n\t\tif(mResumeModels[accountId].isNotEmpty) {\r\n\t\t\tEducation[] memory eduList;\r\n\t\t\teduList = mResumeModels[accountId].educations;\r\n\r\n\t\t\tfor(uint i=0; i < eduList.length; i++) {\r\n\t\t\t\tEducation memory edu = eduList[i];\r\n\t\t\t\temit educationEvent(edu.eduStartDate, edu.eduEndDate, edu.institute, edu.degree, edu.faculty, edu.major, edu.gpa, eduList.length, i);\r\n\t\t\t}\r\n\t\t}\r\n\t}\r\n\t\r\n\tfunction triggerGetExperienceByEvent(address accountId) public {\r\n\t\tif(mResumeModels[accountId].isNotEmpty) {\r\n\t\t\tExperience[] memory expList;\r\n\t\t\texpList = mResumeModels[accountId].experiences;\r\n\r\n\t\t\tfor(uint i=0; i < expList.length; i++) {\r\n\t\t\t\tExperience memory exp = expList[i];\r\n\t\t\t\temit experienceEvent(exp.expStartDate, exp.expEndDate, exp.companyName, exp.position, expList.length, i);\r\n\t\t\t}\r\n\t\t}\r\n\t}\r\n\r\n\tfunction triggerGetSkillByEvent(address accountId) public {\r\n\t\tif(mResumeModels[accountId].isNotEmpty) {\r\n\t\t\tSkill[] memory skillList;\r\n\t\t\tskillList = mResumeModels[accountId].skills;\r\n\r\n\t\t\tfor(uint i=0; i < skillList.length; i++) {\r\n\t\t\t\tSkill memory skill = skillList[i];\r\n\t\t\t\temit skillEvent(skill.skillName, skill.level, skill.date, skillList.length, i);\r\n\t\t\t}\r\n\t\t}\r\n\t}\r\n}",
  "sourcePath": "C:\\Users\\davej\\Desktop\\workspace\\TestCapstone\\contracts\\ResumeContract.sol",
  "compiler": {
    "name": "solc",
    "version": "0.8.13+commit.abaa5c0e.Emscripten.clang"
  },
  "schemaVersion": "3.4.7",
  "updatedAt": "2022-05-18T14:20:43.505Z",
  "networkType": "ethereum",
  "devdoc": {
    "kind": "dev",
    "methods": {},
    "version": 1
  },
  "userdoc": {
    "kind": "user",
    "methods": {},
    "version": 1
  }
}